{
	"Marketplace/Marketplace.sol": {
		"Marketplace": {
			"abi": [
				{
					"inputs": [
						{
							"internalType": "uint256",
							"name": "_feePercent",
							"type": "uint256"
						}
					],
					"stateMutability": "nonpayable",
					"type": "constructor"
				},
				{
					"anonymous": false,
					"inputs": [
						{
							"indexed": false,
							"internalType": "uint256",
							"name": "itemId",
							"type": "uint256"
						},
						{
							"indexed": true,
							"internalType": "address",
							"name": "nft",
							"type": "address"
						},
						{
							"indexed": false,
							"internalType": "uint256",
							"name": "tokenId",
							"type": "uint256"
						},
						{
							"indexed": false,
							"internalType": "uint256",
							"name": "price",
							"type": "uint256"
						},
						{
							"indexed": true,
							"internalType": "address",
							"name": "seller",
							"type": "address"
						},
						{
							"indexed": true,
							"internalType": "address",
							"name": "buyer",
							"type": "address"
						}
					],
					"name": "Bougth",
					"type": "event"
				},
				{
					"anonymous": false,
					"inputs": [
						{
							"indexed": false,
							"internalType": "uint256",
							"name": "itemId",
							"type": "uint256"
						},
						{
							"indexed": true,
							"internalType": "address",
							"name": "nft",
							"type": "address"
						},
						{
							"indexed": false,
							"internalType": "uint256",
							"name": "tokenId",
							"type": "uint256"
						},
						{
							"indexed": false,
							"internalType": "uint256",
							"name": "price",
							"type": "uint256"
						},
						{
							"indexed": true,
							"internalType": "address",
							"name": "seller",
							"type": "address"
						}
					],
					"name": "Offered",
					"type": "event"
				},
				{
					"inputs": [],
					"name": "feeAccount",
					"outputs": [
						{
							"internalType": "address payable",
							"name": "",
							"type": "address"
						}
					],
					"stateMutability": "view",
					"type": "function"
				},
				{
					"inputs": [],
					"name": "feePercent",
					"outputs": [
						{
							"internalType": "uint256",
							"name": "",
							"type": "uint256"
						}
					],
					"stateMutability": "view",
					"type": "function"
				},
				{
					"inputs": [
						{
							"internalType": "uint256",
							"name": "_itemId",
							"type": "uint256"
						}
					],
					"name": "getTotalPrice",
					"outputs": [
						{
							"internalType": "uint256",
							"name": "",
							"type": "uint256"
						}
					],
					"stateMutability": "view",
					"type": "function"
				},
				{
					"inputs": [],
					"name": "itemCount",
					"outputs": [
						{
							"internalType": "uint256",
							"name": "",
							"type": "uint256"
						}
					],
					"stateMutability": "view",
					"type": "function"
				},
				{
					"inputs": [
						{
							"internalType": "uint256",
							"name": "",
							"type": "uint256"
						}
					],
					"name": "items",
					"outputs": [
						{
							"internalType": "uint256",
							"name": "itemId",
							"type": "uint256"
						},
						{
							"internalType": "contract IERC721",
							"name": "nft",
							"type": "address"
						},
						{
							"internalType": "uint256",
							"name": "tokenId",
							"type": "uint256"
						},
						{
							"internalType": "uint256",
							"name": "price",
							"type": "uint256"
						},
						{
							"internalType": "address payable",
							"name": "seller",
							"type": "address"
						},
						{
							"internalType": "bool",
							"name": "sold",
							"type": "bool"
						}
					],
					"stateMutability": "view",
					"type": "function"
				},
				{
					"inputs": [
						{
							"internalType": "contract IERC721",
							"name": "_nft",
							"type": "address"
						},
						{
							"internalType": "uint256",
							"name": "_tokenId",
							"type": "uint256"
						},
						{
							"internalType": "uint256",
							"name": "_price",
							"type": "uint256"
						}
					],
					"name": "makeItem",
					"outputs": [],
					"stateMutability": "nonpayable",
					"type": "function"
				},
				{
					"inputs": [
						{
							"internalType": "uint256",
							"name": "_itemId",
							"type": "uint256"
						}
					],
					"name": "purchaseItem",
					"outputs": [],
					"stateMutability": "payable",
					"type": "function"
				}
			],
			"devdoc": {
				"kind": "dev",
				"methods": {},
				"version": 1
			},
			"evm": {
				"assembly": "    /* \"Marketplace/Marketplace.sol\":198:2462  contract Marketplace is ReentrancyGuard {\r... */\n  mstore(0x40, 0xc0)\n    /* \"Marketplace/Marketplace.sol\":937:1054  constructor (uint _feePercent) {\r... */\n  callvalue\n  dup1\n  iszero\n  tag_1\n  jumpi\n  0x00\n  dup1\n  revert\ntag_1:\n  pop\n  mload(0x40)\n  sub(codesize, bytecodeSize)\n  dup1\n  bytecodeSize\n  dup4\n  codecopy\n  dup2\n  dup2\n  add\n  0x40\n  mstore\n  dup2\n  add\n  swap1\n  tag_2\n  swap2\n  swap1\n  tag_3\n  jump\t// in\ntag_2:\n    /* \"@openzeppelin/contracts@4.6.0/security/ReentrancyGuard.sol\":1701:1702  1 */\n  0x01\n    /* \"@openzeppelin/contracts@4.6.0/security/ReentrancyGuard.sol\":1806:1813  _status */\n  0x00\n    /* \"@openzeppelin/contracts@4.6.0/security/ReentrancyGuard.sol\":1806:1828  _status = _NOT_ENTERED */\n  dup2\n  swap1\n  sstore\n  pop\n    /* \"Marketplace/Marketplace.sol\":1000:1010  msg.sender */\n  caller\n    /* \"Marketplace/Marketplace.sol\":979:1011  feeAccount = payable(msg.sender) */\n  0xffffffffffffffffffffffffffffffffffffffff\n  and\n  0x80\n  dup2\n  0xffffffffffffffffffffffffffffffffffffffff\n  and\n  0x60\n  shl\n  dup2\n  mstore\n  pop\n  pop\n    /* \"Marketplace/Marketplace.sol\":1035:1046  _feePercent */\n  dup1\n    /* \"Marketplace/Marketplace.sol\":1022:1046  feePercent = _feePercent */\n  0xa0\n  dup2\n  dup2\n  mstore\n  pop\n  pop\n    /* \"Marketplace/Marketplace.sol\":937:1054  constructor (uint _feePercent) {\r... */\n  pop\n    /* \"Marketplace/Marketplace.sol\":198:2462  contract Marketplace is ReentrancyGuard {\r... */\n  jump(tag_8)\n    /* \"#utility.yul\":7:150   */\ntag_10:\n    /* \"#utility.yul\":64:69   */\n  0x00\n    /* \"#utility.yul\":95:101   */\n  dup2\n    /* \"#utility.yul\":89:102   */\n  mload\n    /* \"#utility.yul\":80:102   */\n  swap1\n  pop\n    /* \"#utility.yul\":111:144   */\n  tag_12\n    /* \"#utility.yul\":138:143   */\n  dup2\n    /* \"#utility.yul\":111:144   */\n  tag_13\n  jump\t// in\ntag_12:\n    /* \"#utility.yul\":7:150   */\n  swap3\n  swap2\n  pop\n  pop\n  jump\t// out\n    /* \"#utility.yul\":156:507   */\ntag_3:\n    /* \"#utility.yul\":226:232   */\n  0x00\n    /* \"#utility.yul\":275:277   */\n  0x20\n    /* \"#utility.yul\":263:272   */\n  dup3\n    /* \"#utility.yul\":254:261   */\n  dup5\n    /* \"#utility.yul\":250:273   */\n  sub\n    /* \"#utility.yul\":246:278   */\n  slt\n    /* \"#utility.yul\":243:362   */\n  iszero\n  tag_15\n  jumpi\n    /* \"#utility.yul\":281:360   */\n  tag_16\n  tag_17\n  jump\t// in\ntag_16:\n    /* \"#utility.yul\":243:362   */\ntag_15:\n    /* \"#utility.yul\":401:402   */\n  0x00\n    /* \"#utility.yul\":426:490   */\n  tag_18\n    /* \"#utility.yul\":482:489   */\n  dup5\n    /* \"#utility.yul\":473:479   */\n  dup3\n    /* \"#utility.yul\":462:471   */\n  dup6\n    /* \"#utility.yul\":458:480   */\n  add\n    /* \"#utility.yul\":426:490   */\n  tag_10\n  jump\t// in\ntag_18:\n    /* \"#utility.yul\":416:490   */\n  swap2\n  pop\n    /* \"#utility.yul\":372:500   */\n  pop\n    /* \"#utility.yul\":156:507   */\n  swap3\n  swap2\n  pop\n  pop\n  jump\t// out\n    /* \"#utility.yul\":594:671   */\ntag_21:\n    /* \"#utility.yul\":631:638   */\n  0x00\n    /* \"#utility.yul\":660:665   */\n  dup2\n    /* \"#utility.yul\":649:665   */\n  swap1\n  pop\n    /* \"#utility.yul\":594:671   */\n  swap2\n  swap1\n  pop\n  jump\t// out\n    /* \"#utility.yul\":800:917   */\ntag_17:\n    /* \"#utility.yul\":909:910   */\n  0x00\n    /* \"#utility.yul\":906:907   */\n  dup1\n    /* \"#utility.yul\":899:911   */\n  revert\n    /* \"#utility.yul\":923:1045   */\ntag_13:\n    /* \"#utility.yul\":996:1020   */\n  tag_27\n    /* \"#utility.yul\":1014:1019   */\n  dup2\n    /* \"#utility.yul\":996:1020   */\n  tag_21\n  jump\t// in\ntag_27:\n    /* \"#utility.yul\":989:994   */\n  dup2\n    /* \"#utility.yul\":986:1021   */\n  eq\n    /* \"#utility.yul\":976:1039   */\n  tag_28\n  jumpi\n    /* \"#utility.yul\":1035:1036   */\n  0x00\n    /* \"#utility.yul\":1032:1033   */\n  dup1\n    /* \"#utility.yul\":1025:1037   */\n  revert\n    /* \"#utility.yul\":976:1039   */\ntag_28:\n    /* \"#utility.yul\":923:1045   */\n  pop\n  jump\t// out\n    /* \"Marketplace/Marketplace.sol\":198:2462  contract Marketplace is ReentrancyGuard {\r... */\ntag_8:\n  shr(0x60, mload(0x80))\n  mload(0xa0)\n  codecopy(0x00, dataOffset(sub_0), dataSize(sub_0))\n  0x00\n  assignImmutable(\"0xca1c98d2cee18ab5da51a9df7bbf45ca91ab83c708e48aed82f5115320306ab4\")\n  0x00\n  assignImmutable(\"0x9abd569a0444be7ce52d46a7fb79009940c0c0442116f15017290ff13cb4450c\")\n  return(0x00, dataSize(sub_0))\nstop\n\nsub_0: assembly {\n        /* \"Marketplace/Marketplace.sol\":198:2462  contract Marketplace is ReentrancyGuard {\r... */\n      mstore(0x40, 0x80)\n      jumpi(tag_1, lt(calldatasize, 0x04))\n      shr(0xe0, calldataload(0x00))\n      dup1\n      0xbfb231d2\n      gt\n      tag_9\n      jumpi\n      dup1\n      0xbfb231d2\n      eq\n      tag_5\n      jumpi\n      dup1\n      0xca7dd375\n      eq\n      tag_6\n      jumpi\n      dup1\n      0xd38ea5bf\n      eq\n      tag_7\n      jumpi\n      dup1\n      0xfa00afc7\n      eq\n      tag_8\n      jumpi\n      jump(tag_1)\n    tag_9:\n      dup1\n      0x65e17c9d\n      eq\n      tag_2\n      jumpi\n      dup1\n      0x6bfb0d01\n      eq\n      tag_3\n      jumpi\n      dup1\n      0x7fd6f15c\n      eq\n      tag_4\n      jumpi\n    tag_1:\n      0x00\n      dup1\n      revert\n        /* \"Marketplace/Marketplace.sol\":251:294  address payable public immutable feeAccount */\n    tag_2:\n      callvalue\n      dup1\n      iszero\n      tag_10\n      jumpi\n      0x00\n      dup1\n      revert\n    tag_10:\n      pop\n      tag_11\n      tag_12\n      jump\t// in\n    tag_11:\n      mload(0x40)\n      tag_13\n      swap2\n      swap1\n      tag_14\n      jump\t// in\n    tag_13:\n      mload(0x40)\n      dup1\n      swap2\n      sub\n      swap1\n      return\n        /* \"Marketplace/Marketplace.sol\":340:361  uint public itemCount */\n    tag_3:\n      callvalue\n      dup1\n      iszero\n      tag_15\n      jumpi\n      0x00\n      dup1\n      revert\n    tag_15:\n      pop\n      tag_16\n      tag_17\n      jump\t// in\n    tag_16:\n      mload(0x40)\n      tag_18\n      swap2\n      swap1\n      tag_19\n      jump\t// in\n    tag_18:\n      mload(0x40)\n      dup1\n      swap2\n      sub\n      swap1\n      return\n        /* \"Marketplace/Marketplace.sol\":301:333  uint public immutable feePercent */\n    tag_4:\n      callvalue\n      dup1\n      iszero\n      tag_20\n      jumpi\n      0x00\n      dup1\n      revert\n    tag_20:\n      pop\n      tag_21\n      tag_22\n      jump\t// in\n    tag_21:\n      mload(0x40)\n      tag_23\n      swap2\n      swap1\n      tag_19\n      jump\t// in\n    tag_23:\n      mload(0x40)\n      dup1\n      swap2\n      sub\n      swap1\n      return\n        /* \"Marketplace/Marketplace.sol\":547:581  mapping(uint => Item) public items */\n    tag_5:\n      callvalue\n      dup1\n      iszero\n      tag_24\n      jumpi\n      0x00\n      dup1\n      revert\n    tag_24:\n      pop\n      tag_25\n      0x04\n      dup1\n      calldatasize\n      sub\n      dup2\n      add\n      swap1\n      tag_26\n      swap2\n      swap1\n      tag_27\n      jump\t// in\n    tag_26:\n      tag_28\n      jump\t// in\n    tag_25:\n      mload(0x40)\n      tag_29\n      swap7\n      swap6\n      swap5\n      swap4\n      swap3\n      swap2\n      swap1\n      tag_30\n      jump\t// in\n    tag_29:\n      mload(0x40)\n      dup1\n      swap2\n      sub\n      swap1\n      return\n        /* \"Marketplace/Marketplace.sol\":2316:2453  function getTotalPrice(uint _itemId) view public returns (uint) {\r... */\n    tag_6:\n      callvalue\n      dup1\n      iszero\n      tag_31\n      jumpi\n      0x00\n      dup1\n      revert\n    tag_31:\n      pop\n      tag_32\n      0x04\n      dup1\n      calldatasize\n      sub\n      dup2\n      add\n      swap1\n      tag_33\n      swap2\n      swap1\n      tag_27\n      jump\t// in\n    tag_33:\n      tag_34\n      jump\t// in\n    tag_32:\n      mload(0x40)\n      tag_35\n      swap2\n      swap1\n      tag_19\n      jump\t// in\n    tag_35:\n      mload(0x40)\n      dup1\n      swap2\n      sub\n      swap1\n      return\n        /* \"Marketplace/Marketplace.sol\":1618:2308  function purchaseItem(uint _itemId) external payable nonReentrant {\r... */\n    tag_7:\n      tag_36\n      0x04\n      dup1\n      calldatasize\n      sub\n      dup2\n      add\n      swap1\n      tag_37\n      swap2\n      swap1\n      tag_27\n      jump\t// in\n    tag_37:\n      tag_38\n      jump\t// in\n    tag_36:\n      stop\n        /* \"Marketplace/Marketplace.sol\":1062:1610  function makeItem(IERC721 _nft, uint _tokenId, uint _price) external nonReentrant {\r... */\n    tag_8:\n      callvalue\n      dup1\n      iszero\n      tag_39\n      jumpi\n      0x00\n      dup1\n      revert\n    tag_39:\n      pop\n      tag_40\n      0x04\n      dup1\n      calldatasize\n      sub\n      dup2\n      add\n      swap1\n      tag_41\n      swap2\n      swap1\n      tag_42\n      jump\t// in\n    tag_41:\n      tag_43\n      jump\t// in\n    tag_40:\n      stop\n        /* \"Marketplace/Marketplace.sol\":251:294  address payable public immutable feeAccount */\n    tag_12:\n      immutable(\"0x9abd569a0444be7ce52d46a7fb79009940c0c0442116f15017290ff13cb4450c\")\n      dup2\n      jump\t// out\n        /* \"Marketplace/Marketplace.sol\":340:361  uint public itemCount */\n    tag_17:\n      sload(0x01)\n      dup2\n      jump\t// out\n        /* \"Marketplace/Marketplace.sol\":301:333  uint public immutable feePercent */\n    tag_22:\n      immutable(\"0xca1c98d2cee18ab5da51a9df7bbf45ca91ab83c708e48aed82f5115320306ab4\")\n      dup2\n      jump\t// out\n        /* \"Marketplace/Marketplace.sol\":547:581  mapping(uint => Item) public items */\n    tag_28:\n      mstore(0x20, 0x02)\n      dup1\n      0x00\n      mstore\n      keccak256(0x00, 0x40)\n      0x00\n      swap2\n      pop\n      swap1\n      pop\n      dup1\n      0x00\n      add\n      sload\n      swap1\n      dup1\n      0x01\n      add\n      0x00\n      swap1\n      sload\n      swap1\n      0x0100\n      exp\n      swap1\n      div\n      0xffffffffffffffffffffffffffffffffffffffff\n      and\n      swap1\n      dup1\n      0x02\n      add\n      sload\n      swap1\n      dup1\n      0x03\n      add\n      sload\n      swap1\n      dup1\n      0x04\n      add\n      0x00\n      swap1\n      sload\n      swap1\n      0x0100\n      exp\n      swap1\n      div\n      0xffffffffffffffffffffffffffffffffffffffff\n      and\n      swap1\n      dup1\n      0x04\n      add\n      0x14\n      swap1\n      sload\n      swap1\n      0x0100\n      exp\n      swap1\n      div\n      0xff\n      and\n      swap1\n      pop\n      dup7\n      jump\t// out\n        /* \"Marketplace/Marketplace.sol\":2316:2453  function getTotalPrice(uint _itemId) view public returns (uint) {\r... */\n    tag_34:\n        /* \"Marketplace/Marketplace.sol\":2374:2378  uint */\n      0x00\n        /* \"Marketplace/Marketplace.sol\":2441:2444  100 */\n      0x64\n        /* \"Marketplace/Marketplace.sol\":2428:2438  feePercent */\n      immutable(\"0xca1c98d2cee18ab5da51a9df7bbf45ca91ab83c708e48aed82f5115320306ab4\")\n        /* \"Marketplace/Marketplace.sol\":2422:2425  100 */\n      0x64\n        /* \"Marketplace/Marketplace.sol\":2422:2438  100 + feePercent */\n      tag_45\n      swap2\n      swap1\n      tag_46\n      jump\t// in\n    tag_45:\n        /* \"Marketplace/Marketplace.sol\":2400:2405  items */\n      0x02\n        /* \"Marketplace/Marketplace.sol\":2400:2414  items[_itemId] */\n      0x00\n        /* \"Marketplace/Marketplace.sol\":2406:2413  _itemId */\n      dup6\n        /* \"Marketplace/Marketplace.sol\":2400:2414  items[_itemId] */\n      dup2\n      mstore\n      0x20\n      add\n      swap1\n      dup2\n      mstore\n      0x20\n      add\n      0x00\n      keccak256\n        /* \"Marketplace/Marketplace.sol\":2400:2420  items[_itemId].price */\n      0x03\n      add\n      sload\n        /* \"Marketplace/Marketplace.sol\":2400:2439  items[_itemId].price*(100 + feePercent) */\n      tag_47\n      swap2\n      swap1\n      tag_48\n      jump\t// in\n    tag_47:\n        /* \"Marketplace/Marketplace.sol\":2399:2444  (items[_itemId].price*(100 + feePercent))/100 */\n      tag_49\n      swap2\n      swap1\n      tag_50\n      jump\t// in\n    tag_49:\n        /* \"Marketplace/Marketplace.sol\":2391:2445  return ((items[_itemId].price*(100 + feePercent))/100) */\n      swap1\n      pop\n        /* \"Marketplace/Marketplace.sol\":2316:2453  function getTotalPrice(uint _itemId) view public returns (uint) {\r... */\n      swap2\n      swap1\n      pop\n      jump\t// out\n        /* \"Marketplace/Marketplace.sol\":1618:2308  function purchaseItem(uint _itemId) external payable nonReentrant {\r... */\n    tag_38:\n        /* \"@openzeppelin/contracts@4.6.0/security/ReentrancyGuard.sol\":1744:1745  2 */\n      0x02\n        /* \"@openzeppelin/contracts@4.6.0/security/ReentrancyGuard.sol\":2325:2332  _status */\n      sload(0x00)\n        /* \"@openzeppelin/contracts@4.6.0/security/ReentrancyGuard.sol\":2325:2344  _status != _ENTERED */\n      eq\n      iszero\n        /* \"@openzeppelin/contracts@4.6.0/security/ReentrancyGuard.sol\":2317:2380  require(_status != _ENTERED, \"ReentrancyGuard: reentrant call\") */\n      tag_52\n      jumpi\n      mload(0x40)\n      0x08c379a000000000000000000000000000000000000000000000000000000000\n      dup2\n      mstore\n      0x04\n      add\n      tag_53\n      swap1\n      tag_54\n      jump\t// in\n    tag_53:\n      mload(0x40)\n      dup1\n      swap2\n      sub\n      swap1\n      revert\n    tag_52:\n        /* \"@openzeppelin/contracts@4.6.0/security/ReentrancyGuard.sol\":1744:1745  2 */\n      0x02\n        /* \"@openzeppelin/contracts@4.6.0/security/ReentrancyGuard.sol\":2455:2462  _status */\n      0x00\n        /* \"@openzeppelin/contracts@4.6.0/security/ReentrancyGuard.sol\":2455:2473  _status = _ENTERED */\n      dup2\n      swap1\n      sstore\n      pop\n        /* \"Marketplace/Marketplace.sol\":1695:1711  uint _totalPrice */\n      0x00\n        /* \"Marketplace/Marketplace.sol\":1714:1736  getTotalPrice(_itemId) */\n      tag_56\n        /* \"Marketplace/Marketplace.sol\":1728:1735  _itemId */\n      dup3\n        /* \"Marketplace/Marketplace.sol\":1714:1727  getTotalPrice */\n      tag_34\n        /* \"Marketplace/Marketplace.sol\":1714:1736  getTotalPrice(_itemId) */\n      jump\t// in\n    tag_56:\n        /* \"Marketplace/Marketplace.sol\":1695:1736  uint _totalPrice = getTotalPrice(_itemId) */\n      swap1\n      pop\n        /* \"Marketplace/Marketplace.sol\":1747:1764  Item storage item */\n      0x00\n        /* \"Marketplace/Marketplace.sol\":1767:1772  items */\n      0x02\n        /* \"Marketplace/Marketplace.sol\":1767:1781  items[_itemId] */\n      0x00\n        /* \"Marketplace/Marketplace.sol\":1773:1780  _itemId */\n      dup5\n        /* \"Marketplace/Marketplace.sol\":1767:1781  items[_itemId] */\n      dup2\n      mstore\n      0x20\n      add\n      swap1\n      dup2\n      mstore\n      0x20\n      add\n      0x00\n      keccak256\n        /* \"Marketplace/Marketplace.sol\":1747:1781  Item storage item = items[_itemId] */\n      swap1\n      pop\n        /* \"Marketplace/Marketplace.sol\":1810:1811  0 */\n      0x00\n        /* \"Marketplace/Marketplace.sol\":1800:1807  _itemId */\n      dup4\n        /* \"Marketplace/Marketplace.sol\":1800:1811  _itemId > 0 */\n      gt\n        /* \"Marketplace/Marketplace.sol\":1800:1835  _itemId > 0 && _itemId <= itemCount */\n      dup1\n      iszero\n      tag_57\n      jumpi\n      pop\n        /* \"Marketplace/Marketplace.sol\":1826:1835  itemCount */\n      sload(0x01)\n        /* \"Marketplace/Marketplace.sol\":1815:1822  _itemId */\n      dup4\n        /* \"Marketplace/Marketplace.sol\":1815:1835  _itemId <= itemCount */\n      gt\n      iszero\n        /* \"Marketplace/Marketplace.sol\":1800:1835  _itemId > 0 && _itemId <= itemCount */\n    tag_57:\n        /* \"Marketplace/Marketplace.sol\":1792:1836  require(_itemId > 0 && _itemId <= itemCount) */\n      tag_58\n      jumpi\n      0x00\n      dup1\n      revert\n    tag_58:\n        /* \"Marketplace/Marketplace.sol\":1868:1879  _totalPrice */\n      dup2\n        /* \"Marketplace/Marketplace.sol\":1855:1864  msg.value */\n      callvalue\n        /* \"Marketplace/Marketplace.sol\":1855:1879  msg.value >= _totalPrice */\n      lt\n      iszero\n        /* \"Marketplace/Marketplace.sol\":1847:1880  require(msg.value >= _totalPrice) */\n      tag_59\n      jumpi\n      0x00\n      dup1\n      revert\n    tag_59:\n        /* \"Marketplace/Marketplace.sol\":1900:1904  item */\n      dup1\n        /* \"Marketplace/Marketplace.sol\":1900:1909  item.sold */\n      0x04\n      add\n      0x14\n      swap1\n      sload\n      swap1\n      0x0100\n      exp\n      swap1\n      div\n      0xff\n      and\n        /* \"Marketplace/Marketplace.sol\":1899:1909  !item.sold */\n      iszero\n        /* \"Marketplace/Marketplace.sol\":1891:1910  require(!item.sold) */\n      tag_60\n      jumpi\n      0x00\n      dup1\n      revert\n    tag_60:\n        /* \"Marketplace/Marketplace.sol\":1921:1925  item */\n      dup1\n        /* \"Marketplace/Marketplace.sol\":1921:1932  item.seller */\n      0x04\n      add\n      0x00\n      swap1\n      sload\n      swap1\n      0x0100\n      exp\n      swap1\n      div\n      0xffffffffffffffffffffffffffffffffffffffff\n      and\n        /* \"Marketplace/Marketplace.sol\":1921:1941  item.seller.transfer */\n      0xffffffffffffffffffffffffffffffffffffffff\n      and\n        /* \"Marketplace/Marketplace.sol\":1921:1953  item.seller.transfer(item.price) */\n      0x08fc\n        /* \"Marketplace/Marketplace.sol\":1942:1946  item */\n      dup3\n        /* \"Marketplace/Marketplace.sol\":1942:1952  item.price */\n      0x03\n      add\n      sload\n        /* \"Marketplace/Marketplace.sol\":1921:1953  item.seller.transfer(item.price) */\n      swap1\n      dup2\n      iszero\n      mul\n      swap1\n      mload(0x40)\n      0x00\n      mload(0x40)\n      dup1\n      dup4\n      sub\n      dup2\n      dup6\n      dup9\n      dup9\n      call\n      swap4\n      pop\n      pop\n      pop\n      pop\n      iszero\n      dup1\n      iszero\n      tag_62\n      jumpi\n      returndatasize\n      0x00\n      dup1\n      returndatacopy\n      revert(0x00, returndatasize)\n    tag_62:\n      pop\n        /* \"Marketplace/Marketplace.sol\":1964:1974  feeAccount */\n      immutable(\"0x9abd569a0444be7ce52d46a7fb79009940c0c0442116f15017290ff13cb4450c\")\n        /* \"Marketplace/Marketplace.sol\":1964:1983  feeAccount.transfer */\n      0xffffffffffffffffffffffffffffffffffffffff\n      and\n        /* \"Marketplace/Marketplace.sol\":1964:2009  feeAccount.transfer(_totalPrice - item.price) */\n      0x08fc\n        /* \"Marketplace/Marketplace.sol\":1998:2002  item */\n      dup3\n        /* \"Marketplace/Marketplace.sol\":1998:2008  item.price */\n      0x03\n      add\n      sload\n        /* \"Marketplace/Marketplace.sol\":1984:1995  _totalPrice */\n      dup5\n        /* \"Marketplace/Marketplace.sol\":1984:2008  _totalPrice - item.price */\n      tag_63\n      swap2\n      swap1\n      tag_64\n      jump\t// in\n    tag_63:\n        /* \"Marketplace/Marketplace.sol\":1964:2009  feeAccount.transfer(_totalPrice - item.price) */\n      swap1\n      dup2\n      iszero\n      mul\n      swap1\n      mload(0x40)\n      0x00\n      mload(0x40)\n      dup1\n      dup4\n      sub\n      dup2\n      dup6\n      dup9\n      dup9\n      call\n      swap4\n      pop\n      pop\n      pop\n      pop\n      iszero\n      dup1\n      iszero\n      tag_66\n      jumpi\n      returndatasize\n      0x00\n      dup1\n      returndatacopy\n      revert(0x00, returndatasize)\n    tag_66:\n      pop\n        /* \"Marketplace/Marketplace.sol\":2032:2036  true */\n      0x01\n        /* \"Marketplace/Marketplace.sol\":2020:2024  item */\n      dup2\n        /* \"Marketplace/Marketplace.sol\":2020:2029  item.sold */\n      0x04\n      add\n      0x14\n        /* \"Marketplace/Marketplace.sol\":2020:2036  item.sold = true */\n      0x0100\n      exp\n      dup2\n      sload\n      dup2\n      0xff\n      mul\n      not\n      and\n      swap1\n      dup4\n      iszero\n      iszero\n      mul\n      or\n      swap1\n      sstore\n      pop\n        /* \"Marketplace/Marketplace.sol\":2047:2051  item */\n      dup1\n        /* \"Marketplace/Marketplace.sol\":2047:2055  item.nft */\n      0x01\n      add\n      0x00\n      swap1\n      sload\n      swap1\n      0x0100\n      exp\n      swap1\n      div\n      0xffffffffffffffffffffffffffffffffffffffff\n      and\n        /* \"Marketplace/Marketplace.sol\":2047:2068  item.nft.transferFrom */\n      0xffffffffffffffffffffffffffffffffffffffff\n      and\n      0x23b872dd\n        /* \"Marketplace/Marketplace.sol\":2077:2081  this */\n      address\n        /* \"Marketplace/Marketplace.sol\":2084:2094  msg.sender */\n      caller\n        /* \"Marketplace/Marketplace.sol\":2096:2100  item */\n      dup5\n        /* \"Marketplace/Marketplace.sol\":2096:2108  item.tokenId */\n      0x02\n      add\n      sload\n        /* \"Marketplace/Marketplace.sol\":2047:2109  item.nft.transferFrom(address(this), msg.sender, item.tokenId) */\n      mload(0x40)\n      dup5\n      0xffffffff\n      and\n      0xe0\n      shl\n      dup2\n      mstore\n      0x04\n      add\n      tag_67\n      swap4\n      swap3\n      swap2\n      swap1\n      tag_68\n      jump\t// in\n    tag_67:\n      0x00\n      mload(0x40)\n      dup1\n      dup4\n      sub\n      dup2\n      0x00\n      dup8\n      dup1\n      extcodesize\n      iszero\n      dup1\n      iszero\n      tag_69\n      jumpi\n      0x00\n      dup1\n      revert\n    tag_69:\n      pop\n      gas\n      call\n      iszero\n      dup1\n      iszero\n      tag_71\n      jumpi\n      returndatasize\n      0x00\n      dup1\n      returndatacopy\n      revert(0x00, returndatasize)\n    tag_71:\n      pop\n      pop\n      pop\n      pop\n        /* \"Marketplace/Marketplace.sol\":2279:2289  msg.sender */\n      caller\n        /* \"Marketplace/Marketplace.sol\":2125:2300  Bougth (\r... */\n      0xffffffffffffffffffffffffffffffffffffffff\n      and\n        /* \"Marketplace/Marketplace.sol\":2253:2257  item */\n      dup2\n        /* \"Marketplace/Marketplace.sol\":2253:2264  item.seller */\n      0x04\n      add\n      0x00\n      swap1\n      sload\n      swap1\n      0x0100\n      exp\n      swap1\n      div\n      0xffffffffffffffffffffffffffffffffffffffff\n      and\n        /* \"Marketplace/Marketplace.sol\":2125:2300  Bougth (\r... */\n      0xffffffffffffffffffffffffffffffffffffffff\n      and\n        /* \"Marketplace/Marketplace.sol\":2177:2181  item */\n      dup3\n        /* \"Marketplace/Marketplace.sol\":2177:2185  item.nft */\n      0x01\n      add\n      0x00\n      swap1\n      sload\n      swap1\n      0x0100\n      exp\n      swap1\n      div\n      0xffffffffffffffffffffffffffffffffffffffff\n      and\n        /* \"Marketplace/Marketplace.sol\":2125:2300  Bougth (\r... */\n      0xffffffffffffffffffffffffffffffffffffffff\n      and\n      0xaa5fb7767895bcc2751482a6f35307d2e1e12a67bdf11218f746d4c092fae963\n        /* \"Marketplace/Marketplace.sol\":2147:2154  _itemId */\n      dup7\n        /* \"Marketplace/Marketplace.sol\":2201:2205  item */\n      dup6\n        /* \"Marketplace/Marketplace.sol\":2201:2213  item.tokenId */\n      0x02\n      add\n      sload\n        /* \"Marketplace/Marketplace.sol\":2228:2232  item */\n      dup7\n        /* \"Marketplace/Marketplace.sol\":2228:2238  item.price */\n      0x03\n      add\n      sload\n        /* \"Marketplace/Marketplace.sol\":2125:2300  Bougth (\r... */\n      mload(0x40)\n      tag_72\n      swap4\n      swap3\n      swap2\n      swap1\n      tag_73\n      jump\t// in\n    tag_72:\n      mload(0x40)\n      dup1\n      swap2\n      sub\n      swap1\n      log4\n        /* \"Marketplace/Marketplace.sol\":1684:2308  {\r... */\n      pop\n      pop\n        /* \"@openzeppelin/contracts@4.6.0/security/ReentrancyGuard.sol\":1701:1702  1 */\n      0x01\n        /* \"@openzeppelin/contracts@4.6.0/security/ReentrancyGuard.sol\":2628:2635  _status */\n      0x00\n        /* \"@openzeppelin/contracts@4.6.0/security/ReentrancyGuard.sol\":2628:2650  _status = _NOT_ENTERED */\n      dup2\n      swap1\n      sstore\n      pop\n        /* \"Marketplace/Marketplace.sol\":1618:2308  function purchaseItem(uint _itemId) external payable nonReentrant {\r... */\n      pop\n      jump\t// out\n        /* \"Marketplace/Marketplace.sol\":1062:1610  function makeItem(IERC721 _nft, uint _tokenId, uint _price) external nonReentrant {\r... */\n    tag_43:\n        /* \"@openzeppelin/contracts@4.6.0/security/ReentrancyGuard.sol\":1744:1745  2 */\n      0x02\n        /* \"@openzeppelin/contracts@4.6.0/security/ReentrancyGuard.sol\":2325:2332  _status */\n      sload(0x00)\n        /* \"@openzeppelin/contracts@4.6.0/security/ReentrancyGuard.sol\":2325:2344  _status != _ENTERED */\n      eq\n      iszero\n        /* \"@openzeppelin/contracts@4.6.0/security/ReentrancyGuard.sol\":2317:2380  require(_status != _ENTERED, \"ReentrancyGuard: reentrant call\") */\n      tag_75\n      jumpi\n      mload(0x40)\n      0x08c379a000000000000000000000000000000000000000000000000000000000\n      dup2\n      mstore\n      0x04\n      add\n      tag_76\n      swap1\n      tag_54\n      jump\t// in\n    tag_76:\n      mload(0x40)\n      dup1\n      swap2\n      sub\n      swap1\n      revert\n    tag_75:\n        /* \"@openzeppelin/contracts@4.6.0/security/ReentrancyGuard.sol\":1744:1745  2 */\n      0x02\n        /* \"@openzeppelin/contracts@4.6.0/security/ReentrancyGuard.sol\":2455:2462  _status */\n      0x00\n        /* \"@openzeppelin/contracts@4.6.0/security/ReentrancyGuard.sol\":2455:2473  _status = _ENTERED */\n      dup2\n      swap1\n      sstore\n      pop\n        /* \"Marketplace/Marketplace.sol\":1172:1173  0 */\n      0x00\n        /* \"Marketplace/Marketplace.sol\":1163:1169  _price */\n      dup2\n        /* \"Marketplace/Marketplace.sol\":1163:1173  _price > 0 */\n      gt\n        /* \"Marketplace/Marketplace.sol\":1155:1174  require(_price > 0) */\n      tag_78\n      jumpi\n      0x00\n      dup1\n      revert\n    tag_78:\n        /* \"Marketplace/Marketplace.sol\":1185:1194  itemCount */\n      0x01\n      0x00\n        /* \"Marketplace/Marketplace.sol\":1185:1196  itemCount++ */\n      dup2\n      sload\n      dup1\n      swap3\n      swap2\n      swap1\n      tag_79\n      swap1\n      tag_80\n      jump\t// in\n    tag_79:\n      swap2\n      swap1\n      pop\n      sstore\n      pop\n        /* \"Marketplace/Marketplace.sol\":1207:1211  _nft */\n      dup3\n        /* \"Marketplace/Marketplace.sol\":1207:1224  _nft.transferFrom */\n      0xffffffffffffffffffffffffffffffffffffffff\n      and\n      0x23b872dd\n        /* \"Marketplace/Marketplace.sol\":1225:1235  msg.sender */\n      caller\n        /* \"Marketplace/Marketplace.sol\":1245:1249  this */\n      address\n        /* \"Marketplace/Marketplace.sol\":1252:1260  _tokenId */\n      dup6\n        /* \"Marketplace/Marketplace.sol\":1207:1261  _nft.transferFrom(msg.sender, address(this), _tokenId) */\n      mload(0x40)\n      dup5\n      0xffffffff\n      and\n      0xe0\n      shl\n      dup2\n      mstore\n      0x04\n      add\n      tag_81\n      swap4\n      swap3\n      swap2\n      swap1\n      tag_68\n      jump\t// in\n    tag_81:\n      0x00\n      mload(0x40)\n      dup1\n      dup4\n      sub\n      dup2\n      0x00\n      dup8\n      dup1\n      extcodesize\n      iszero\n      dup1\n      iszero\n      tag_82\n      jumpi\n      0x00\n      dup1\n      revert\n    tag_82:\n      pop\n      gas\n      call\n      iszero\n      dup1\n      iszero\n      tag_84\n      jumpi\n      returndatasize\n      0x00\n      dup1\n      returndatacopy\n      revert(0x00, returndatasize)\n    tag_84:\n      pop\n      pop\n      pop\n      pop\n        /* \"Marketplace/Marketplace.sol\":1291:1447  Item(\r... */\n      mload(0x40)\n      dup1\n      0xc0\n      add\n      0x40\n      mstore\n      dup1\n        /* \"Marketplace/Marketplace.sol\":1310:1319  itemCount */\n      sload(0x01)\n        /* \"Marketplace/Marketplace.sol\":1291:1447  Item(\r... */\n      dup2\n      mstore\n      0x20\n      add\n        /* \"Marketplace/Marketplace.sol\":1334:1338  _nft */\n      dup5\n        /* \"Marketplace/Marketplace.sol\":1291:1447  Item(\r... */\n      0xffffffffffffffffffffffffffffffffffffffff\n      and\n      dup2\n      mstore\n      0x20\n      add\n        /* \"Marketplace/Marketplace.sol\":1353:1361  _tokenId */\n      dup4\n        /* \"Marketplace/Marketplace.sol\":1291:1447  Item(\r... */\n      dup2\n      mstore\n      0x20\n      add\n        /* \"Marketplace/Marketplace.sol\":1376:1382  _price */\n      dup3\n        /* \"Marketplace/Marketplace.sol\":1291:1447  Item(\r... */\n      dup2\n      mstore\n      0x20\n      add\n        /* \"Marketplace/Marketplace.sol\":1405:1415  msg.sender */\n      caller\n        /* \"Marketplace/Marketplace.sol\":1291:1447  Item(\r... */\n      0xffffffffffffffffffffffffffffffffffffffff\n      and\n      dup2\n      mstore\n      0x20\n      add\n        /* \"Marketplace/Marketplace.sol\":1431:1436  false */\n      0x00\n        /* \"Marketplace/Marketplace.sol\":1291:1447  Item(\r... */\n      iszero\n      iszero\n      dup2\n      mstore\n      pop\n        /* \"Marketplace/Marketplace.sol\":1272:1277  items */\n      0x02\n        /* \"Marketplace/Marketplace.sol\":1272:1288  items[itemCount] */\n      0x00\n        /* \"Marketplace/Marketplace.sol\":1278:1287  itemCount */\n      sload(0x01)\n        /* \"Marketplace/Marketplace.sol\":1272:1288  items[itemCount] */\n      dup2\n      mstore\n      0x20\n      add\n      swap1\n      dup2\n      mstore\n      0x20\n      add\n      0x00\n      keccak256\n        /* \"Marketplace/Marketplace.sol\":1272:1447  items[itemCount] = Item(\r... */\n      0x00\n      dup3\n      add\n      mload\n      dup2\n      0x00\n      add\n      sstore\n      0x20\n      dup3\n      add\n      mload\n      dup2\n      0x01\n      add\n      exp(0x0100, 0x00)\n      dup2\n      sload\n      dup2\n      0xffffffffffffffffffffffffffffffffffffffff\n      mul\n      not\n      and\n      swap1\n      dup4\n      0xffffffffffffffffffffffffffffffffffffffff\n      and\n      mul\n      or\n      swap1\n      sstore\n      pop\n      0x40\n      dup3\n      add\n      mload\n      dup2\n      0x02\n      add\n      sstore\n      0x60\n      dup3\n      add\n      mload\n      dup2\n      0x03\n      add\n      sstore\n      0x80\n      dup3\n      add\n      mload\n      dup2\n      0x04\n      add\n      exp(0x0100, 0x00)\n      dup2\n      sload\n      dup2\n      0xffffffffffffffffffffffffffffffffffffffff\n      mul\n      not\n      and\n      swap1\n      dup4\n      0xffffffffffffffffffffffffffffffffffffffff\n      and\n      mul\n      or\n      swap1\n      sstore\n      pop\n      0xa0\n      dup3\n      add\n      mload\n      dup2\n      0x04\n      add\n      exp(0x0100, 0x14)\n      dup2\n      sload\n      dup2\n      0xff\n      mul\n      not\n      and\n      swap1\n      dup4\n      iszero\n      iszero\n      mul\n      or\n      swap1\n      sstore\n      pop\n      swap1\n      pop\n      pop\n        /* \"Marketplace/Marketplace.sol\":1581:1591  msg.sender */\n      caller\n        /* \"Marketplace/Marketplace.sol\":1463:1602  Offered(\r... */\n      0xffffffffffffffffffffffffffffffffffffffff\n      and\n        /* \"Marketplace/Marketplace.sol\":1517:1521  _nft */\n      dup4\n        /* \"Marketplace/Marketplace.sol\":1463:1602  Offered(\r... */\n      0xffffffffffffffffffffffffffffffffffffffff\n      and\n      0x655a0cf9c8db81512be9a76dc1c5ae5380b8816ce6ad659cd61b715e2999d59a\n        /* \"Marketplace/Marketplace.sol\":1485:1494  itemCount */\n      sload(0x01)\n        /* \"Marketplace/Marketplace.sol\":1537:1545  _tokenId */\n      dup6\n        /* \"Marketplace/Marketplace.sol\":1560:1566  _price */\n      dup6\n        /* \"Marketplace/Marketplace.sol\":1463:1602  Offered(\r... */\n      mload(0x40)\n      tag_85\n      swap4\n      swap3\n      swap2\n      swap1\n      tag_73\n      jump\t// in\n    tag_85:\n      mload(0x40)\n      dup1\n      swap2\n      sub\n      swap1\n      log3\n        /* \"@openzeppelin/contracts@4.6.0/security/ReentrancyGuard.sol\":1701:1702  1 */\n      0x01\n        /* \"@openzeppelin/contracts@4.6.0/security/ReentrancyGuard.sol\":2628:2635  _status */\n      0x00\n        /* \"@openzeppelin/contracts@4.6.0/security/ReentrancyGuard.sol\":2628:2650  _status = _NOT_ENTERED */\n      dup2\n      swap1\n      sstore\n      pop\n        /* \"Marketplace/Marketplace.sol\":1062:1610  function makeItem(IERC721 _nft, uint _tokenId, uint _price) external nonReentrant {\r... */\n      pop\n      pop\n      pop\n      jump\t// out\n        /* \"#utility.yul\":7:176   */\n    tag_87:\n        /* \"#utility.yul\":68:73   */\n      0x00\n        /* \"#utility.yul\":106:112   */\n      dup2\n        /* \"#utility.yul\":93:113   */\n      calldataload\n        /* \"#utility.yul\":84:113   */\n      swap1\n      pop\n        /* \"#utility.yul\":122:170   */\n      tag_89\n        /* \"#utility.yul\":164:169   */\n      dup2\n        /* \"#utility.yul\":122:170   */\n      tag_90\n      jump\t// in\n    tag_89:\n        /* \"#utility.yul\":7:176   */\n      swap3\n      swap2\n      pop\n      pop\n      jump\t// out\n        /* \"#utility.yul\":182:321   */\n    tag_91:\n        /* \"#utility.yul\":228:233   */\n      0x00\n        /* \"#utility.yul\":266:272   */\n      dup2\n        /* \"#utility.yul\":253:273   */\n      calldataload\n        /* \"#utility.yul\":244:273   */\n      swap1\n      pop\n        /* \"#utility.yul\":282:315   */\n      tag_93\n        /* \"#utility.yul\":309:314   */\n      dup2\n        /* \"#utility.yul\":282:315   */\n      tag_94\n      jump\t// in\n    tag_93:\n        /* \"#utility.yul\":182:321   */\n      swap3\n      swap2\n      pop\n      pop\n      jump\t// out\n        /* \"#utility.yul\":327:976   */\n    tag_42:\n        /* \"#utility.yul\":419:425   */\n      0x00\n        /* \"#utility.yul\":427:433   */\n      dup1\n        /* \"#utility.yul\":435:441   */\n      0x00\n        /* \"#utility.yul\":484:486   */\n      0x60\n        /* \"#utility.yul\":472:481   */\n      dup5\n        /* \"#utility.yul\":463:470   */\n      dup7\n        /* \"#utility.yul\":459:482   */\n      sub\n        /* \"#utility.yul\":455:487   */\n      slt\n        /* \"#utility.yul\":452:571   */\n      iszero\n      tag_96\n      jumpi\n        /* \"#utility.yul\":490:569   */\n      tag_97\n      tag_98\n      jump\t// in\n    tag_97:\n        /* \"#utility.yul\":452:571   */\n    tag_96:\n        /* \"#utility.yul\":610:611   */\n      0x00\n        /* \"#utility.yul\":635:703   */\n      tag_99\n        /* \"#utility.yul\":695:702   */\n      dup7\n        /* \"#utility.yul\":686:692   */\n      dup3\n        /* \"#utility.yul\":675:684   */\n      dup8\n        /* \"#utility.yul\":671:693   */\n      add\n        /* \"#utility.yul\":635:703   */\n      tag_87\n      jump\t// in\n    tag_99:\n        /* \"#utility.yul\":625:703   */\n      swap4\n      pop\n        /* \"#utility.yul\":581:713   */\n      pop\n        /* \"#utility.yul\":752:754   */\n      0x20\n        /* \"#utility.yul\":778:831   */\n      tag_100\n        /* \"#utility.yul\":823:830   */\n      dup7\n        /* \"#utility.yul\":814:820   */\n      dup3\n        /* \"#utility.yul\":803:812   */\n      dup8\n        /* \"#utility.yul\":799:821   */\n      add\n        /* \"#utility.yul\":778:831   */\n      tag_91\n      jump\t// in\n    tag_100:\n        /* \"#utility.yul\":768:831   */\n      swap3\n      pop\n        /* \"#utility.yul\":723:841   */\n      pop\n        /* \"#utility.yul\":880:882   */\n      0x40\n        /* \"#utility.yul\":906:959   */\n      tag_101\n        /* \"#utility.yul\":951:958   */\n      dup7\n        /* \"#utility.yul\":942:948   */\n      dup3\n        /* \"#utility.yul\":931:940   */\n      dup8\n        /* \"#utility.yul\":927:949   */\n      add\n        /* \"#utility.yul\":906:959   */\n      tag_91\n      jump\t// in\n    tag_101:\n        /* \"#utility.yul\":896:959   */\n      swap2\n      pop\n        /* \"#utility.yul\":851:969   */\n      pop\n        /* \"#utility.yul\":327:976   */\n      swap3\n      pop\n      swap3\n      pop\n      swap3\n      jump\t// out\n        /* \"#utility.yul\":982:1311   */\n    tag_27:\n        /* \"#utility.yul\":1041:1047   */\n      0x00\n        /* \"#utility.yul\":1090:1092   */\n      0x20\n        /* \"#utility.yul\":1078:1087   */\n      dup3\n        /* \"#utility.yul\":1069:1076   */\n      dup5\n        /* \"#utility.yul\":1065:1088   */\n      sub\n        /* \"#utility.yul\":1061:1093   */\n      slt\n        /* \"#utility.yul\":1058:1177   */\n      iszero\n      tag_103\n      jumpi\n        /* \"#utility.yul\":1096:1175   */\n      tag_104\n      tag_98\n      jump\t// in\n    tag_104:\n        /* \"#utility.yul\":1058:1177   */\n    tag_103:\n        /* \"#utility.yul\":1216:1217   */\n      0x00\n        /* \"#utility.yul\":1241:1294   */\n      tag_105\n        /* \"#utility.yul\":1286:1293   */\n      dup5\n        /* \"#utility.yul\":1277:1283   */\n      dup3\n        /* \"#utility.yul\":1266:1275   */\n      dup6\n        /* \"#utility.yul\":1262:1284   */\n      add\n        /* \"#utility.yul\":1241:1294   */\n      tag_91\n      jump\t// in\n    tag_105:\n        /* \"#utility.yul\":1231:1294   */\n      swap2\n      pop\n        /* \"#utility.yul\":1187:1304   */\n      pop\n        /* \"#utility.yul\":982:1311   */\n      swap3\n      swap2\n      pop\n      pop\n      jump\t// out\n        /* \"#utility.yul\":1317:1459   */\n    tag_106:\n        /* \"#utility.yul\":1420:1452   */\n      tag_108\n        /* \"#utility.yul\":1446:1451   */\n      dup2\n        /* \"#utility.yul\":1420:1452   */\n      tag_109\n      jump\t// in\n    tag_108:\n        /* \"#utility.yul\":1415:1418   */\n      dup3\n        /* \"#utility.yul\":1408:1453   */\n      mstore\n        /* \"#utility.yul\":1317:1459   */\n      pop\n      pop\n      jump\t// out\n        /* \"#utility.yul\":1465:1583   */\n    tag_110:\n        /* \"#utility.yul\":1552:1576   */\n      tag_112\n        /* \"#utility.yul\":1570:1575   */\n      dup2\n        /* \"#utility.yul\":1552:1576   */\n      tag_113\n      jump\t// in\n    tag_112:\n        /* \"#utility.yul\":1547:1550   */\n      dup3\n        /* \"#utility.yul\":1540:1577   */\n      mstore\n        /* \"#utility.yul\":1465:1583   */\n      pop\n      pop\n      jump\t// out\n        /* \"#utility.yul\":1589:1698   */\n    tag_114:\n        /* \"#utility.yul\":1670:1691   */\n      tag_116\n        /* \"#utility.yul\":1685:1690   */\n      dup2\n        /* \"#utility.yul\":1670:1691   */\n      tag_117\n      jump\t// in\n    tag_116:\n        /* \"#utility.yul\":1665:1668   */\n      dup3\n        /* \"#utility.yul\":1658:1692   */\n      mstore\n        /* \"#utility.yul\":1589:1698   */\n      pop\n      pop\n      jump\t// out\n        /* \"#utility.yul\":1704:1865   */\n    tag_118:\n        /* \"#utility.yul\":1806:1858   */\n      tag_120\n        /* \"#utility.yul\":1852:1857   */\n      dup2\n        /* \"#utility.yul\":1806:1858   */\n      tag_121\n      jump\t// in\n    tag_120:\n        /* \"#utility.yul\":1801:1804   */\n      dup3\n        /* \"#utility.yul\":1794:1859   */\n      mstore\n        /* \"#utility.yul\":1704:1865   */\n      pop\n      pop\n      jump\t// out\n        /* \"#utility.yul\":1871:2237   */\n    tag_122:\n        /* \"#utility.yul\":2013:2016   */\n      0x00\n        /* \"#utility.yul\":2034:2101   */\n      tag_124\n        /* \"#utility.yul\":2098:2100   */\n      0x1f\n        /* \"#utility.yul\":2093:2096   */\n      dup4\n        /* \"#utility.yul\":2034:2101   */\n      tag_125\n      jump\t// in\n    tag_124:\n        /* \"#utility.yul\":2027:2101   */\n      swap2\n      pop\n        /* \"#utility.yul\":2110:2203   */\n      tag_126\n        /* \"#utility.yul\":2199:2202   */\n      dup3\n        /* \"#utility.yul\":2110:2203   */\n      tag_127\n      jump\t// in\n    tag_126:\n        /* \"#utility.yul\":2228:2230   */\n      0x20\n        /* \"#utility.yul\":2223:2226   */\n      dup3\n        /* \"#utility.yul\":2219:2231   */\n      add\n        /* \"#utility.yul\":2212:2231   */\n      swap1\n      pop\n        /* \"#utility.yul\":1871:2237   */\n      swap2\n      swap1\n      pop\n      jump\t// out\n        /* \"#utility.yul\":2243:2361   */\n    tag_128:\n        /* \"#utility.yul\":2330:2354   */\n      tag_130\n        /* \"#utility.yul\":2348:2353   */\n      dup2\n        /* \"#utility.yul\":2330:2354   */\n      tag_131\n      jump\t// in\n    tag_130:\n        /* \"#utility.yul\":2325:2328   */\n      dup3\n        /* \"#utility.yul\":2318:2355   */\n      mstore\n        /* \"#utility.yul\":2243:2361   */\n      pop\n      pop\n      jump\t// out\n        /* \"#utility.yul\":2367:2621   */\n    tag_14:\n        /* \"#utility.yul\":2476:2480   */\n      0x00\n        /* \"#utility.yul\":2514:2516   */\n      0x20\n        /* \"#utility.yul\":2503:2512   */\n      dup3\n        /* \"#utility.yul\":2499:2517   */\n      add\n        /* \"#utility.yul\":2491:2517   */\n      swap1\n      pop\n        /* \"#utility.yul\":2527:2614   */\n      tag_133\n        /* \"#utility.yul\":2611:2612   */\n      0x00\n        /* \"#utility.yul\":2600:2609   */\n      dup4\n        /* \"#utility.yul\":2596:2613   */\n      add\n        /* \"#utility.yul\":2587:2593   */\n      dup5\n        /* \"#utility.yul\":2527:2614   */\n      tag_106\n      jump\t// in\n    tag_133:\n        /* \"#utility.yul\":2367:2621   */\n      swap3\n      swap2\n      pop\n      pop\n      jump\t// out\n        /* \"#utility.yul\":2627:3069   */\n    tag_68:\n        /* \"#utility.yul\":2776:2780   */\n      0x00\n        /* \"#utility.yul\":2814:2816   */\n      0x60\n        /* \"#utility.yul\":2803:2812   */\n      dup3\n        /* \"#utility.yul\":2799:2817   */\n      add\n        /* \"#utility.yul\":2791:2817   */\n      swap1\n      pop\n        /* \"#utility.yul\":2827:2898   */\n      tag_135\n        /* \"#utility.yul\":2895:2896   */\n      0x00\n        /* \"#utility.yul\":2884:2893   */\n      dup4\n        /* \"#utility.yul\":2880:2897   */\n      add\n        /* \"#utility.yul\":2871:2877   */\n      dup7\n        /* \"#utility.yul\":2827:2898   */\n      tag_110\n      jump\t// in\n    tag_135:\n        /* \"#utility.yul\":2908:2980   */\n      tag_136\n        /* \"#utility.yul\":2976:2978   */\n      0x20\n        /* \"#utility.yul\":2965:2974   */\n      dup4\n        /* \"#utility.yul\":2961:2979   */\n      add\n        /* \"#utility.yul\":2952:2958   */\n      dup6\n        /* \"#utility.yul\":2908:2980   */\n      tag_110\n      jump\t// in\n    tag_136:\n        /* \"#utility.yul\":2990:3062   */\n      tag_137\n        /* \"#utility.yul\":3058:3060   */\n      0x40\n        /* \"#utility.yul\":3047:3056   */\n      dup4\n        /* \"#utility.yul\":3043:3061   */\n      add\n        /* \"#utility.yul\":3034:3040   */\n      dup5\n        /* \"#utility.yul\":2990:3062   */\n      tag_128\n      jump\t// in\n    tag_137:\n        /* \"#utility.yul\":2627:3069   */\n      swap5\n      swap4\n      pop\n      pop\n      pop\n      pop\n      jump\t// out\n        /* \"#utility.yul\":3075:3494   */\n    tag_54:\n        /* \"#utility.yul\":3241:3245   */\n      0x00\n        /* \"#utility.yul\":3279:3281   */\n      0x20\n        /* \"#utility.yul\":3268:3277   */\n      dup3\n        /* \"#utility.yul\":3264:3282   */\n      add\n        /* \"#utility.yul\":3256:3282   */\n      swap1\n      pop\n        /* \"#utility.yul\":3328:3337   */\n      dup2\n        /* \"#utility.yul\":3322:3326   */\n      dup2\n        /* \"#utility.yul\":3318:3338   */\n      sub\n        /* \"#utility.yul\":3314:3315   */\n      0x00\n        /* \"#utility.yul\":3303:3312   */\n      dup4\n        /* \"#utility.yul\":3299:3316   */\n      add\n        /* \"#utility.yul\":3292:3339   */\n      mstore\n        /* \"#utility.yul\":3356:3487   */\n      tag_139\n        /* \"#utility.yul\":3482:3486   */\n      dup2\n        /* \"#utility.yul\":3356:3487   */\n      tag_122\n      jump\t// in\n    tag_139:\n        /* \"#utility.yul\":3348:3487   */\n      swap1\n      pop\n        /* \"#utility.yul\":3075:3494   */\n      swap2\n      swap1\n      pop\n      jump\t// out\n        /* \"#utility.yul\":3500:3722   */\n    tag_19:\n        /* \"#utility.yul\":3593:3597   */\n      0x00\n        /* \"#utility.yul\":3631:3633   */\n      0x20\n        /* \"#utility.yul\":3620:3629   */\n      dup3\n        /* \"#utility.yul\":3616:3634   */\n      add\n        /* \"#utility.yul\":3608:3634   */\n      swap1\n      pop\n        /* \"#utility.yul\":3644:3715   */\n      tag_141\n        /* \"#utility.yul\":3712:3713   */\n      0x00\n        /* \"#utility.yul\":3701:3710   */\n      dup4\n        /* \"#utility.yul\":3697:3714   */\n      add\n        /* \"#utility.yul\":3688:3694   */\n      dup5\n        /* \"#utility.yul\":3644:3715   */\n      tag_128\n      jump\t// in\n    tag_141:\n        /* \"#utility.yul\":3500:3722   */\n      swap3\n      swap2\n      pop\n      pop\n      jump\t// out\n        /* \"#utility.yul\":3728:4553   */\n    tag_30:\n        /* \"#utility.yul\":3986:3990   */\n      0x00\n        /* \"#utility.yul\":4024:4027   */\n      0xc0\n        /* \"#utility.yul\":4013:4022   */\n      dup3\n        /* \"#utility.yul\":4009:4028   */\n      add\n        /* \"#utility.yul\":4001:4028   */\n      swap1\n      pop\n        /* \"#utility.yul\":4038:4109   */\n      tag_143\n        /* \"#utility.yul\":4106:4107   */\n      0x00\n        /* \"#utility.yul\":4095:4104   */\n      dup4\n        /* \"#utility.yul\":4091:4108   */\n      add\n        /* \"#utility.yul\":4082:4088   */\n      dup10\n        /* \"#utility.yul\":4038:4109   */\n      tag_128\n      jump\t// in\n    tag_143:\n        /* \"#utility.yul\":4119:4206   */\n      tag_144\n        /* \"#utility.yul\":4202:4204   */\n      0x20\n        /* \"#utility.yul\":4191:4200   */\n      dup4\n        /* \"#utility.yul\":4187:4205   */\n      add\n        /* \"#utility.yul\":4178:4184   */\n      dup9\n        /* \"#utility.yul\":4119:4206   */\n      tag_118\n      jump\t// in\n    tag_144:\n        /* \"#utility.yul\":4216:4288   */\n      tag_145\n        /* \"#utility.yul\":4284:4286   */\n      0x40\n        /* \"#utility.yul\":4273:4282   */\n      dup4\n        /* \"#utility.yul\":4269:4287   */\n      add\n        /* \"#utility.yul\":4260:4266   */\n      dup8\n        /* \"#utility.yul\":4216:4288   */\n      tag_128\n      jump\t// in\n    tag_145:\n        /* \"#utility.yul\":4298:4370   */\n      tag_146\n        /* \"#utility.yul\":4366:4368   */\n      0x60\n        /* \"#utility.yul\":4355:4364   */\n      dup4\n        /* \"#utility.yul\":4351:4369   */\n      add\n        /* \"#utility.yul\":4342:4348   */\n      dup7\n        /* \"#utility.yul\":4298:4370   */\n      tag_128\n      jump\t// in\n    tag_146:\n        /* \"#utility.yul\":4380:4469   */\n      tag_147\n        /* \"#utility.yul\":4464:4467   */\n      0x80\n        /* \"#utility.yul\":4453:4462   */\n      dup4\n        /* \"#utility.yul\":4449:4468   */\n      add\n        /* \"#utility.yul\":4440:4446   */\n      dup6\n        /* \"#utility.yul\":4380:4469   */\n      tag_106\n      jump\t// in\n    tag_147:\n        /* \"#utility.yul\":4479:4546   */\n      tag_148\n        /* \"#utility.yul\":4541:4544   */\n      0xa0\n        /* \"#utility.yul\":4530:4539   */\n      dup4\n        /* \"#utility.yul\":4526:4545   */\n      add\n        /* \"#utility.yul\":4517:4523   */\n      dup5\n        /* \"#utility.yul\":4479:4546   */\n      tag_114\n      jump\t// in\n    tag_148:\n        /* \"#utility.yul\":3728:4553   */\n      swap8\n      swap7\n      pop\n      pop\n      pop\n      pop\n      pop\n      pop\n      pop\n      jump\t// out\n        /* \"#utility.yul\":4559:5001   */\n    tag_73:\n        /* \"#utility.yul\":4708:4712   */\n      0x00\n        /* \"#utility.yul\":4746:4748   */\n      0x60\n        /* \"#utility.yul\":4735:4744   */\n      dup3\n        /* \"#utility.yul\":4731:4749   */\n      add\n        /* \"#utility.yul\":4723:4749   */\n      swap1\n      pop\n        /* \"#utility.yul\":4759:4830   */\n      tag_150\n        /* \"#utility.yul\":4827:4828   */\n      0x00\n        /* \"#utility.yul\":4816:4825   */\n      dup4\n        /* \"#utility.yul\":4812:4829   */\n      add\n        /* \"#utility.yul\":4803:4809   */\n      dup7\n        /* \"#utility.yul\":4759:4830   */\n      tag_128\n      jump\t// in\n    tag_150:\n        /* \"#utility.yul\":4840:4912   */\n      tag_151\n        /* \"#utility.yul\":4908:4910   */\n      0x20\n        /* \"#utility.yul\":4897:4906   */\n      dup4\n        /* \"#utility.yul\":4893:4911   */\n      add\n        /* \"#utility.yul\":4884:4890   */\n      dup6\n        /* \"#utility.yul\":4840:4912   */\n      tag_128\n      jump\t// in\n    tag_151:\n        /* \"#utility.yul\":4922:4994   */\n      tag_152\n        /* \"#utility.yul\":4990:4992   */\n      0x40\n        /* \"#utility.yul\":4979:4988   */\n      dup4\n        /* \"#utility.yul\":4975:4993   */\n      add\n        /* \"#utility.yul\":4966:4972   */\n      dup5\n        /* \"#utility.yul\":4922:4994   */\n      tag_128\n      jump\t// in\n    tag_152:\n        /* \"#utility.yul\":4559:5001   */\n      swap5\n      swap4\n      pop\n      pop\n      pop\n      pop\n      jump\t// out\n        /* \"#utility.yul\":5088:5257   */\n    tag_125:\n        /* \"#utility.yul\":5172:5183   */\n      0x00\n        /* \"#utility.yul\":5206:5212   */\n      dup3\n        /* \"#utility.yul\":5201:5204   */\n      dup3\n        /* \"#utility.yul\":5194:5213   */\n      mstore\n        /* \"#utility.yul\":5246:5250   */\n      0x20\n        /* \"#utility.yul\":5241:5244   */\n      dup3\n        /* \"#utility.yul\":5237:5251   */\n      add\n        /* \"#utility.yul\":5222:5251   */\n      swap1\n      pop\n        /* \"#utility.yul\":5088:5257   */\n      swap3\n      swap2\n      pop\n      pop\n      jump\t// out\n        /* \"#utility.yul\":5263:5568   */\n    tag_46:\n        /* \"#utility.yul\":5303:5306   */\n      0x00\n        /* \"#utility.yul\":5322:5342   */\n      tag_157\n        /* \"#utility.yul\":5340:5341   */\n      dup3\n        /* \"#utility.yul\":5322:5342   */\n      tag_131\n      jump\t// in\n    tag_157:\n        /* \"#utility.yul\":5317:5342   */\n      swap2\n      pop\n        /* \"#utility.yul\":5356:5376   */\n      tag_158\n        /* \"#utility.yul\":5374:5375   */\n      dup4\n        /* \"#utility.yul\":5356:5376   */\n      tag_131\n      jump\t// in\n    tag_158:\n        /* \"#utility.yul\":5351:5376   */\n      swap3\n      pop\n        /* \"#utility.yul\":5510:5511   */\n      dup3\n        /* \"#utility.yul\":5442:5508   */\n      0xffffffffffffffffffffffffffffffffffffffffffffffffffffffffffffffff\n        /* \"#utility.yul\":5438:5512   */\n      sub\n        /* \"#utility.yul\":5435:5436   */\n      dup3\n        /* \"#utility.yul\":5432:5513   */\n      gt\n        /* \"#utility.yul\":5429:5536   */\n      iszero\n      tag_159\n      jumpi\n        /* \"#utility.yul\":5516:5534   */\n      tag_160\n      tag_161\n      jump\t// in\n    tag_160:\n        /* \"#utility.yul\":5429:5536   */\n    tag_159:\n        /* \"#utility.yul\":5560:5561   */\n      dup3\n        /* \"#utility.yul\":5557:5558   */\n      dup3\n        /* \"#utility.yul\":5553:5562   */\n      add\n        /* \"#utility.yul\":5546:5562   */\n      swap1\n      pop\n        /* \"#utility.yul\":5263:5568   */\n      swap3\n      swap2\n      pop\n      pop\n      jump\t// out\n        /* \"#utility.yul\":5574:5759   */\n    tag_50:\n        /* \"#utility.yul\":5614:5615   */\n      0x00\n        /* \"#utility.yul\":5631:5651   */\n      tag_163\n        /* \"#utility.yul\":5649:5650   */\n      dup3\n        /* \"#utility.yul\":5631:5651   */\n      tag_131\n      jump\t// in\n    tag_163:\n        /* \"#utility.yul\":5626:5651   */\n      swap2\n      pop\n        /* \"#utility.yul\":5665:5685   */\n      tag_164\n        /* \"#utility.yul\":5683:5684   */\n      dup4\n        /* \"#utility.yul\":5665:5685   */\n      tag_131\n      jump\t// in\n    tag_164:\n        /* \"#utility.yul\":5660:5685   */\n      swap3\n      pop\n        /* \"#utility.yul\":5704:5705   */\n      dup3\n        /* \"#utility.yul\":5694:5729   */\n      tag_165\n      jumpi\n        /* \"#utility.yul\":5709:5727   */\n      tag_166\n      tag_167\n      jump\t// in\n    tag_166:\n        /* \"#utility.yul\":5694:5729   */\n    tag_165:\n        /* \"#utility.yul\":5751:5752   */\n      dup3\n        /* \"#utility.yul\":5748:5749   */\n      dup3\n        /* \"#utility.yul\":5744:5753   */\n      div\n        /* \"#utility.yul\":5739:5753   */\n      swap1\n      pop\n        /* \"#utility.yul\":5574:5759   */\n      swap3\n      swap2\n      pop\n      pop\n      jump\t// out\n        /* \"#utility.yul\":5765:6113   */\n    tag_48:\n        /* \"#utility.yul\":5805:5812   */\n      0x00\n        /* \"#utility.yul\":5828:5848   */\n      tag_169\n        /* \"#utility.yul\":5846:5847   */\n      dup3\n        /* \"#utility.yul\":5828:5848   */\n      tag_131\n      jump\t// in\n    tag_169:\n        /* \"#utility.yul\":5823:5848   */\n      swap2\n      pop\n        /* \"#utility.yul\":5862:5882   */\n      tag_170\n        /* \"#utility.yul\":5880:5881   */\n      dup4\n        /* \"#utility.yul\":5862:5882   */\n      tag_131\n      jump\t// in\n    tag_170:\n        /* \"#utility.yul\":5857:5882   */\n      swap3\n      pop\n        /* \"#utility.yul\":6050:6051   */\n      dup2\n        /* \"#utility.yul\":5982:6048   */\n      0xffffffffffffffffffffffffffffffffffffffffffffffffffffffffffffffff\n        /* \"#utility.yul\":5978:6052   */\n      div\n        /* \"#utility.yul\":5975:5976   */\n      dup4\n        /* \"#utility.yul\":5972:6053   */\n      gt\n        /* \"#utility.yul\":5967:5968   */\n      dup3\n        /* \"#utility.yul\":5960:5969   */\n      iszero\n        /* \"#utility.yul\":5953:5970   */\n      iszero\n        /* \"#utility.yul\":5949:6054   */\n      and\n        /* \"#utility.yul\":5946:6077   */\n      iszero\n      tag_171\n      jumpi\n        /* \"#utility.yul\":6057:6075   */\n      tag_172\n      tag_161\n      jump\t// in\n    tag_172:\n        /* \"#utility.yul\":5946:6077   */\n    tag_171:\n        /* \"#utility.yul\":6105:6106   */\n      dup3\n        /* \"#utility.yul\":6102:6103   */\n      dup3\n        /* \"#utility.yul\":6098:6107   */\n      mul\n        /* \"#utility.yul\":6087:6107   */\n      swap1\n      pop\n        /* \"#utility.yul\":5765:6113   */\n      swap3\n      swap2\n      pop\n      pop\n      jump\t// out\n        /* \"#utility.yul\":6119:6310   */\n    tag_64:\n        /* \"#utility.yul\":6159:6163   */\n      0x00\n        /* \"#utility.yul\":6179:6199   */\n      tag_174\n        /* \"#utility.yul\":6197:6198   */\n      dup3\n        /* \"#utility.yul\":6179:6199   */\n      tag_131\n      jump\t// in\n    tag_174:\n        /* \"#utility.yul\":6174:6199   */\n      swap2\n      pop\n        /* \"#utility.yul\":6213:6233   */\n      tag_175\n        /* \"#utility.yul\":6231:6232   */\n      dup4\n        /* \"#utility.yul\":6213:6233   */\n      tag_131\n      jump\t// in\n    tag_175:\n        /* \"#utility.yul\":6208:6233   */\n      swap3\n      pop\n        /* \"#utility.yul\":6252:6253   */\n      dup3\n        /* \"#utility.yul\":6249:6250   */\n      dup3\n        /* \"#utility.yul\":6246:6254   */\n      lt\n        /* \"#utility.yul\":6243:6277   */\n      iszero\n      tag_176\n      jumpi\n        /* \"#utility.yul\":6257:6275   */\n      tag_177\n      tag_161\n      jump\t// in\n    tag_177:\n        /* \"#utility.yul\":6243:6277   */\n    tag_176:\n        /* \"#utility.yul\":6302:6303   */\n      dup3\n        /* \"#utility.yul\":6299:6300   */\n      dup3\n        /* \"#utility.yul\":6295:6304   */\n      sub\n        /* \"#utility.yul\":6287:6304   */\n      swap1\n      pop\n        /* \"#utility.yul\":6119:6310   */\n      swap3\n      swap2\n      pop\n      pop\n      jump\t// out\n        /* \"#utility.yul\":6316:6412   */\n    tag_113:\n        /* \"#utility.yul\":6353:6360   */\n      0x00\n        /* \"#utility.yul\":6382:6406   */\n      tag_179\n        /* \"#utility.yul\":6400:6405   */\n      dup3\n        /* \"#utility.yul\":6382:6406   */\n      tag_180\n      jump\t// in\n    tag_179:\n        /* \"#utility.yul\":6371:6406   */\n      swap1\n      pop\n        /* \"#utility.yul\":6316:6412   */\n      swap2\n      swap1\n      pop\n      jump\t// out\n        /* \"#utility.yul\":6418:6522   */\n    tag_109:\n        /* \"#utility.yul\":6463:6470   */\n      0x00\n        /* \"#utility.yul\":6492:6516   */\n      tag_182\n        /* \"#utility.yul\":6510:6515   */\n      dup3\n        /* \"#utility.yul\":6492:6516   */\n      tag_180\n      jump\t// in\n    tag_182:\n        /* \"#utility.yul\":6481:6516   */\n      swap1\n      pop\n        /* \"#utility.yul\":6418:6522   */\n      swap2\n      swap1\n      pop\n      jump\t// out\n        /* \"#utility.yul\":6528:6618   */\n    tag_117:\n        /* \"#utility.yul\":6562:6569   */\n      0x00\n        /* \"#utility.yul\":6605:6610   */\n      dup2\n        /* \"#utility.yul\":6598:6611   */\n      iszero\n        /* \"#utility.yul\":6591:6612   */\n      iszero\n        /* \"#utility.yul\":6580:6612   */\n      swap1\n      pop\n        /* \"#utility.yul\":6528:6618   */\n      swap2\n      swap1\n      pop\n      jump\t// out\n        /* \"#utility.yul\":6624:6735   */\n    tag_184:\n        /* \"#utility.yul\":6676:6683   */\n      0x00\n        /* \"#utility.yul\":6705:6729   */\n      tag_186\n        /* \"#utility.yul\":6723:6728   */\n      dup3\n        /* \"#utility.yul\":6705:6729   */\n      tag_113\n      jump\t// in\n    tag_186:\n        /* \"#utility.yul\":6694:6729   */\n      swap1\n      pop\n        /* \"#utility.yul\":6624:6735   */\n      swap2\n      swap1\n      pop\n      jump\t// out\n        /* \"#utility.yul\":6741:6867   */\n    tag_180:\n        /* \"#utility.yul\":6778:6785   */\n      0x00\n        /* \"#utility.yul\":6818:6860   */\n      0xffffffffffffffffffffffffffffffffffffffff\n        /* \"#utility.yul\":6811:6816   */\n      dup3\n        /* \"#utility.yul\":6807:6861   */\n      and\n        /* \"#utility.yul\":6796:6861   */\n      swap1\n      pop\n        /* \"#utility.yul\":6741:6867   */\n      swap2\n      swap1\n      pop\n      jump\t// out\n        /* \"#utility.yul\":6873:6950   */\n    tag_131:\n        /* \"#utility.yul\":6910:6917   */\n      0x00\n        /* \"#utility.yul\":6939:6944   */\n      dup2\n        /* \"#utility.yul\":6928:6944   */\n      swap1\n      pop\n        /* \"#utility.yul\":6873:6950   */\n      swap2\n      swap1\n      pop\n      jump\t// out\n        /* \"#utility.yul\":6956:7097   */\n    tag_121:\n        /* \"#utility.yul\":7021:7030   */\n      0x00\n        /* \"#utility.yul\":7054:7091   */\n      tag_190\n        /* \"#utility.yul\":7085:7090   */\n      dup3\n        /* \"#utility.yul\":7054:7091   */\n      tag_191\n      jump\t// in\n    tag_190:\n        /* \"#utility.yul\":7041:7091   */\n      swap1\n      pop\n        /* \"#utility.yul\":6956:7097   */\n      swap2\n      swap1\n      pop\n      jump\t// out\n        /* \"#utility.yul\":7103:7229   */\n    tag_191:\n        /* \"#utility.yul\":7153:7162   */\n      0x00\n        /* \"#utility.yul\":7186:7223   */\n      tag_193\n        /* \"#utility.yul\":7217:7222   */\n      dup3\n        /* \"#utility.yul\":7186:7223   */\n      tag_194\n      jump\t// in\n    tag_193:\n        /* \"#utility.yul\":7173:7223   */\n      swap1\n      pop\n        /* \"#utility.yul\":7103:7229   */\n      swap2\n      swap1\n      pop\n      jump\t// out\n        /* \"#utility.yul\":7235:7348   */\n    tag_194:\n        /* \"#utility.yul\":7285:7294   */\n      0x00\n        /* \"#utility.yul\":7318:7342   */\n      tag_196\n        /* \"#utility.yul\":7336:7341   */\n      dup3\n        /* \"#utility.yul\":7318:7342   */\n      tag_180\n      jump\t// in\n    tag_196:\n        /* \"#utility.yul\":7305:7342   */\n      swap1\n      pop\n        /* \"#utility.yul\":7235:7348   */\n      swap2\n      swap1\n      pop\n      jump\t// out\n        /* \"#utility.yul\":7354:7587   */\n    tag_80:\n        /* \"#utility.yul\":7393:7396   */\n      0x00\n        /* \"#utility.yul\":7416:7440   */\n      tag_198\n        /* \"#utility.yul\":7434:7439   */\n      dup3\n        /* \"#utility.yul\":7416:7440   */\n      tag_131\n      jump\t// in\n    tag_198:\n        /* \"#utility.yul\":7407:7440   */\n      swap2\n      pop\n        /* \"#utility.yul\":7462:7528   */\n      0xffffffffffffffffffffffffffffffffffffffffffffffffffffffffffffffff\n        /* \"#utility.yul\":7455:7460   */\n      dup3\n        /* \"#utility.yul\":7452:7529   */\n      eq\n        /* \"#utility.yul\":7449:7552   */\n      iszero\n      tag_199\n      jumpi\n        /* \"#utility.yul\":7532:7550   */\n      tag_200\n      tag_161\n      jump\t// in\n    tag_200:\n        /* \"#utility.yul\":7449:7552   */\n    tag_199:\n        /* \"#utility.yul\":7579:7580   */\n      0x01\n        /* \"#utility.yul\":7572:7577   */\n      dup3\n        /* \"#utility.yul\":7568:7581   */\n      add\n        /* \"#utility.yul\":7561:7581   */\n      swap1\n      pop\n        /* \"#utility.yul\":7354:7587   */\n      swap2\n      swap1\n      pop\n      jump\t// out\n        /* \"#utility.yul\":7593:7773   */\n    tag_161:\n        /* \"#utility.yul\":7641:7718   */\n      0x4e487b7100000000000000000000000000000000000000000000000000000000\n        /* \"#utility.yul\":7638:7639   */\n      0x00\n        /* \"#utility.yul\":7631:7719   */\n      mstore\n        /* \"#utility.yul\":7738:7742   */\n      0x11\n        /* \"#utility.yul\":7735:7736   */\n      0x04\n        /* \"#utility.yul\":7728:7743   */\n      mstore\n        /* \"#utility.yul\":7762:7766   */\n      0x24\n        /* \"#utility.yul\":7759:7760   */\n      0x00\n        /* \"#utility.yul\":7752:7767   */\n      revert\n        /* \"#utility.yul\":7779:7959   */\n    tag_167:\n        /* \"#utility.yul\":7827:7904   */\n      0x4e487b7100000000000000000000000000000000000000000000000000000000\n        /* \"#utility.yul\":7824:7825   */\n      0x00\n        /* \"#utility.yul\":7817:7905   */\n      mstore\n        /* \"#utility.yul\":7924:7928   */\n      0x12\n        /* \"#utility.yul\":7921:7922   */\n      0x04\n        /* \"#utility.yul\":7914:7929   */\n      mstore\n        /* \"#utility.yul\":7948:7952   */\n      0x24\n        /* \"#utility.yul\":7945:7946   */\n      0x00\n        /* \"#utility.yul\":7938:7953   */\n      revert\n        /* \"#utility.yul\":8088:8205   */\n    tag_98:\n        /* \"#utility.yul\":8197:8198   */\n      0x00\n        /* \"#utility.yul\":8194:8195   */\n      dup1\n        /* \"#utility.yul\":8187:8199   */\n      revert\n        /* \"#utility.yul\":8211:8392   */\n    tag_127:\n        /* \"#utility.yul\":8351:8384   */\n      0x5265656e7472616e637947756172643a207265656e7472616e742063616c6c00\n        /* \"#utility.yul\":8347:8348   */\n      0x00\n        /* \"#utility.yul\":8339:8345   */\n      dup3\n        /* \"#utility.yul\":8335:8349   */\n      add\n        /* \"#utility.yul\":8328:8385   */\n      mstore\n        /* \"#utility.yul\":8211:8392   */\n      pop\n      jump\t// out\n        /* \"#utility.yul\":8398:8550   */\n    tag_90:\n        /* \"#utility.yul\":8486:8525   */\n      tag_208\n        /* \"#utility.yul\":8519:8524   */\n      dup2\n        /* \"#utility.yul\":8486:8525   */\n      tag_184\n      jump\t// in\n    tag_208:\n        /* \"#utility.yul\":8479:8484   */\n      dup2\n        /* \"#utility.yul\":8476:8526   */\n      eq\n        /* \"#utility.yul\":8466:8544   */\n      tag_209\n      jumpi\n        /* \"#utility.yul\":8540:8541   */\n      0x00\n        /* \"#utility.yul\":8537:8538   */\n      dup1\n        /* \"#utility.yul\":8530:8542   */\n      revert\n        /* \"#utility.yul\":8466:8544   */\n    tag_209:\n        /* \"#utility.yul\":8398:8550   */\n      pop\n      jump\t// out\n        /* \"#utility.yul\":8556:8678   */\n    tag_94:\n        /* \"#utility.yul\":8629:8653   */\n      tag_211\n        /* \"#utility.yul\":8647:8652   */\n      dup2\n        /* \"#utility.yul\":8629:8653   */\n      tag_131\n      jump\t// in\n    tag_211:\n        /* \"#utility.yul\":8622:8627   */\n      dup2\n        /* \"#utility.yul\":8619:8654   */\n      eq\n        /* \"#utility.yul\":8609:8672   */\n      tag_212\n      jumpi\n        /* \"#utility.yul\":8668:8669   */\n      0x00\n        /* \"#utility.yul\":8665:8666   */\n      dup1\n        /* \"#utility.yul\":8658:8670   */\n      revert\n        /* \"#utility.yul\":8609:8672   */\n    tag_212:\n        /* \"#utility.yul\":8556:8678   */\n      pop\n      jump\t// out\n\n    auxdata: 0xa2646970667358221220318708d0339dbaa7919d3042a869cc09f10bef9ce781fb280917cc00434954ae64736f6c63430008070033\n}\n",
				"bytecode": {
					"linkReferences": {},
					"object": "60c060405234801561001057600080fd5b50604051610f17380380610f1783398181016040528101906100329190610094565b60016000819055503373ffffffffffffffffffffffffffffffffffffffff1660808173ffffffffffffffffffffffffffffffffffffffff1660601b815250508060a08181525050506100e7565b60008151905061008e816100d0565b92915050565b6000602082840312156100aa576100a96100cb565b5b60006100b88482850161007f565b91505092915050565b6000819050919050565b600080fd5b6100d9816100c1565b81146100e457600080fd5b50565b60805160601c60a051610dfa61011d600039600081816101e601526102970152600081816101bc015261041b0152610dfa6000f3fe6080604052600436106100705760003560e01c8063bfb231d21161004e578063bfb231d2146100f6578063ca7dd37514610138578063d38ea5bf14610175578063fa00afc71461019157610070565b806365e17c9d146100755780636bfb0d01146100a05780637fd6f15c146100cb575b600080fd5b34801561008157600080fd5b5061008a6101ba565b60405161009791906109d4565b60405180910390f35b3480156100ac57600080fd5b506100b56101de565b6040516100c29190610a46565b60405180910390f35b3480156100d757600080fd5b506100e06101e4565b6040516100ed9190610a46565b60405180910390f35b34801561010257600080fd5b5061011d60048036038101906101189190610939565b610208565b60405161012f96959493929190610a61565b60405180910390f35b34801561014457600080fd5b5061015f600480360381019061015a9190610939565b610291565b60405161016c9190610a46565b60405180910390f35b61018f600480360381019061018a9190610939565b6102f4565b005b34801561019d57600080fd5b506101b860048036038101906101b391906108e6565b610620565b005b7f000000000000000000000000000000000000000000000000000000000000000081565b60015481565b7f000000000000000000000000000000000000000000000000000000000000000081565b60026020528060005260406000206000915090508060000154908060010160009054906101000a900473ffffffffffffffffffffffffffffffffffffffff16908060020154908060030154908060040160009054906101000a900473ffffffffffffffffffffffffffffffffffffffff16908060040160149054906101000a900460ff16905086565b600060647f000000000000000000000000000000000000000000000000000000000000000060646102c29190610b0a565b60026000858152602001908152602001600020600301546102e39190610b91565b6102ed9190610b60565b9050919050565b6002600054141561033a576040517f08c379a000000000000000000000000000000000000000000000000000000000815260040161033190610a26565b60405180910390fd5b6002600081905550600061034d82610291565b9050600060026000848152602001908152602001600020905060008311801561037857506001548311155b61038157600080fd5b8134101561038e57600080fd5b8060040160149054906101000a900460ff16156103aa57600080fd5b8060040160009054906101000a900473ffffffffffffffffffffffffffffffffffffffff1673ffffffffffffffffffffffffffffffffffffffff166108fc82600301549081150290604051600060405180830381858888f19350505050158015610418573d6000803e3d6000fd5b507f000000000000000000000000000000000000000000000000000000000000000073ffffffffffffffffffffffffffffffffffffffff166108fc8260030154846104639190610beb565b9081150290604051600060405180830381858888f1935050505015801561048e573d6000803e3d6000fd5b5060018160040160146101000a81548160ff0219169083151502179055508060010160009054906101000a900473ffffffffffffffffffffffffffffffffffffffff1673ffffffffffffffffffffffffffffffffffffffff166323b872dd303384600201546040518463ffffffff1660e01b8152600401610511939291906109ef565b600060405180830381600087803b15801561052b57600080fd5b505af115801561053f573d6000803e3d6000fd5b505050503373ffffffffffffffffffffffffffffffffffffffff168160040160009054906101000a900473ffffffffffffffffffffffffffffffffffffffff1673ffffffffffffffffffffffffffffffffffffffff168260010160009054906101000a900473ffffffffffffffffffffffffffffffffffffffff1673ffffffffffffffffffffffffffffffffffffffff167faa5fb7767895bcc2751482a6f35307d2e1e12a67bdf11218f746d4c092fae963868560020154866003015460405161060b93929190610ac2565b60405180910390a45050600160008190555050565b60026000541415610666576040517f08c379a000000000000000000000000000000000000000000000000000000000815260040161065d90610a26565b60405180910390fd5b60026000819055506000811161067b57600080fd5b6001600081548092919061068e90610cc1565b91905055508273ffffffffffffffffffffffffffffffffffffffff166323b872dd3330856040518463ffffffff1660e01b81526004016106d0939291906109ef565b600060405180830381600087803b1580156106ea57600080fd5b505af11580156106fe573d6000803e3d6000fd5b505050506040518060c0016040528060015481526020018473ffffffffffffffffffffffffffffffffffffffff1681526020018381526020018281526020013373ffffffffffffffffffffffffffffffffffffffff168152602001600015158152506002600060015481526020019081526020016000206000820151816000015560208201518160010160006101000a81548173ffffffffffffffffffffffffffffffffffffffff021916908373ffffffffffffffffffffffffffffffffffffffff160217905550604082015181600201556060820151816003015560808201518160040160006101000a81548173ffffffffffffffffffffffffffffffffffffffff021916908373ffffffffffffffffffffffffffffffffffffffff16021790555060a08201518160040160146101000a81548160ff0219169083151502179055509050503373ffffffffffffffffffffffffffffffffffffffff168373ffffffffffffffffffffffffffffffffffffffff167f655a0cf9c8db81512be9a76dc1c5ae5380b8816ce6ad659cd61b715e2999d59a60015485856040516108a793929190610ac2565b60405180910390a36001600081905550505050565b6000813590506108cb81610d96565b92915050565b6000813590506108e081610dad565b92915050565b6000806000606084860312156108ff576108fe610d68565b5b600061090d868287016108bc565b935050602061091e868287016108d1565b925050604061092f868287016108d1565b9150509250925092565b60006020828403121561094f5761094e610d68565b5b600061095d848285016108d1565b91505092915050565b61096f81610c31565b82525050565b61097e81610c1f565b82525050565b61098d81610c43565b82525050565b61099c81610c8b565b82525050565b60006109af601f83610af9565b91506109ba82610d6d565b602082019050919050565b6109ce81610c81565b82525050565b60006020820190506109e96000830184610966565b92915050565b6000606082019050610a046000830186610975565b610a116020830185610975565b610a1e60408301846109c5565b949350505050565b60006020820190508181036000830152610a3f816109a2565b9050919050565b6000602082019050610a5b60008301846109c5565b92915050565b600060c082019050610a7660008301896109c5565b610a836020830188610993565b610a9060408301876109c5565b610a9d60608301866109c5565b610aaa6080830185610966565b610ab760a0830184610984565b979650505050505050565b6000606082019050610ad760008301866109c5565b610ae460208301856109c5565b610af160408301846109c5565b949350505050565b600082825260208201905092915050565b6000610b1582610c81565b9150610b2083610c81565b9250827fffffffffffffffffffffffffffffffffffffffffffffffffffffffffffffffff03821115610b5557610b54610d0a565b5b828201905092915050565b6000610b6b82610c81565b9150610b7683610c81565b925082610b8657610b85610d39565b5b828204905092915050565b6000610b9c82610c81565b9150610ba783610c81565b9250817fffffffffffffffffffffffffffffffffffffffffffffffffffffffffffffffff0483118215151615610be057610bdf610d0a565b5b828202905092915050565b6000610bf682610c81565b9150610c0183610c81565b925082821015610c1457610c13610d0a565b5b828203905092915050565b6000610c2a82610c61565b9050919050565b6000610c3c82610c61565b9050919050565b60008115159050919050565b6000610c5a82610c1f565b9050919050565b600073ffffffffffffffffffffffffffffffffffffffff82169050919050565b6000819050919050565b6000610c9682610c9d565b9050919050565b6000610ca882610caf565b9050919050565b6000610cba82610c61565b9050919050565b6000610ccc82610c81565b91507fffffffffffffffffffffffffffffffffffffffffffffffffffffffffffffffff821415610cff57610cfe610d0a565b5b600182019050919050565b7f4e487b7100000000000000000000000000000000000000000000000000000000600052601160045260246000fd5b7f4e487b7100000000000000000000000000000000000000000000000000000000600052601260045260246000fd5b600080fd5b7f5265656e7472616e637947756172643a207265656e7472616e742063616c6c00600082015250565b610d9f81610c4f565b8114610daa57600080fd5b50565b610db681610c81565b8114610dc157600080fd5b5056fea2646970667358221220318708d0339dbaa7919d3042a869cc09f10bef9ce781fb280917cc00434954ae64736f6c63430008070033",
					"opcodes": "PUSH1 0xC0 PUSH1 0x40 MSTORE CALLVALUE DUP1 ISZERO PUSH2 0x10 JUMPI PUSH1 0x0 DUP1 REVERT JUMPDEST POP PUSH1 0x40 MLOAD PUSH2 0xF17 CODESIZE SUB DUP1 PUSH2 0xF17 DUP4 CODECOPY DUP2 DUP2 ADD PUSH1 0x40 MSTORE DUP2 ADD SWAP1 PUSH2 0x32 SWAP2 SWAP1 PUSH2 0x94 JUMP JUMPDEST PUSH1 0x1 PUSH1 0x0 DUP2 SWAP1 SSTORE POP CALLER PUSH20 0xFFFFFFFFFFFFFFFFFFFFFFFFFFFFFFFFFFFFFFFF AND PUSH1 0x80 DUP2 PUSH20 0xFFFFFFFFFFFFFFFFFFFFFFFFFFFFFFFFFFFFFFFF AND PUSH1 0x60 SHL DUP2 MSTORE POP POP DUP1 PUSH1 0xA0 DUP2 DUP2 MSTORE POP POP POP PUSH2 0xE7 JUMP JUMPDEST PUSH1 0x0 DUP2 MLOAD SWAP1 POP PUSH2 0x8E DUP2 PUSH2 0xD0 JUMP JUMPDEST SWAP3 SWAP2 POP POP JUMP JUMPDEST PUSH1 0x0 PUSH1 0x20 DUP3 DUP5 SUB SLT ISZERO PUSH2 0xAA JUMPI PUSH2 0xA9 PUSH2 0xCB JUMP JUMPDEST JUMPDEST PUSH1 0x0 PUSH2 0xB8 DUP5 DUP3 DUP6 ADD PUSH2 0x7F JUMP JUMPDEST SWAP2 POP POP SWAP3 SWAP2 POP POP JUMP JUMPDEST PUSH1 0x0 DUP2 SWAP1 POP SWAP2 SWAP1 POP JUMP JUMPDEST PUSH1 0x0 DUP1 REVERT JUMPDEST PUSH2 0xD9 DUP2 PUSH2 0xC1 JUMP JUMPDEST DUP2 EQ PUSH2 0xE4 JUMPI PUSH1 0x0 DUP1 REVERT JUMPDEST POP JUMP JUMPDEST PUSH1 0x80 MLOAD PUSH1 0x60 SHR PUSH1 0xA0 MLOAD PUSH2 0xDFA PUSH2 0x11D PUSH1 0x0 CODECOPY PUSH1 0x0 DUP2 DUP2 PUSH2 0x1E6 ADD MSTORE PUSH2 0x297 ADD MSTORE PUSH1 0x0 DUP2 DUP2 PUSH2 0x1BC ADD MSTORE PUSH2 0x41B ADD MSTORE PUSH2 0xDFA PUSH1 0x0 RETURN INVALID PUSH1 0x80 PUSH1 0x40 MSTORE PUSH1 0x4 CALLDATASIZE LT PUSH2 0x70 JUMPI PUSH1 0x0 CALLDATALOAD PUSH1 0xE0 SHR DUP1 PUSH4 0xBFB231D2 GT PUSH2 0x4E JUMPI DUP1 PUSH4 0xBFB231D2 EQ PUSH2 0xF6 JUMPI DUP1 PUSH4 0xCA7DD375 EQ PUSH2 0x138 JUMPI DUP1 PUSH4 0xD38EA5BF EQ PUSH2 0x175 JUMPI DUP1 PUSH4 0xFA00AFC7 EQ PUSH2 0x191 JUMPI PUSH2 0x70 JUMP JUMPDEST DUP1 PUSH4 0x65E17C9D EQ PUSH2 0x75 JUMPI DUP1 PUSH4 0x6BFB0D01 EQ PUSH2 0xA0 JUMPI DUP1 PUSH4 0x7FD6F15C EQ PUSH2 0xCB JUMPI JUMPDEST PUSH1 0x0 DUP1 REVERT JUMPDEST CALLVALUE DUP1 ISZERO PUSH2 0x81 JUMPI PUSH1 0x0 DUP1 REVERT JUMPDEST POP PUSH2 0x8A PUSH2 0x1BA JUMP JUMPDEST PUSH1 0x40 MLOAD PUSH2 0x97 SWAP2 SWAP1 PUSH2 0x9D4 JUMP JUMPDEST PUSH1 0x40 MLOAD DUP1 SWAP2 SUB SWAP1 RETURN JUMPDEST CALLVALUE DUP1 ISZERO PUSH2 0xAC JUMPI PUSH1 0x0 DUP1 REVERT JUMPDEST POP PUSH2 0xB5 PUSH2 0x1DE JUMP JUMPDEST PUSH1 0x40 MLOAD PUSH2 0xC2 SWAP2 SWAP1 PUSH2 0xA46 JUMP JUMPDEST PUSH1 0x40 MLOAD DUP1 SWAP2 SUB SWAP1 RETURN JUMPDEST CALLVALUE DUP1 ISZERO PUSH2 0xD7 JUMPI PUSH1 0x0 DUP1 REVERT JUMPDEST POP PUSH2 0xE0 PUSH2 0x1E4 JUMP JUMPDEST PUSH1 0x40 MLOAD PUSH2 0xED SWAP2 SWAP1 PUSH2 0xA46 JUMP JUMPDEST PUSH1 0x40 MLOAD DUP1 SWAP2 SUB SWAP1 RETURN JUMPDEST CALLVALUE DUP1 ISZERO PUSH2 0x102 JUMPI PUSH1 0x0 DUP1 REVERT JUMPDEST POP PUSH2 0x11D PUSH1 0x4 DUP1 CALLDATASIZE SUB DUP2 ADD SWAP1 PUSH2 0x118 SWAP2 SWAP1 PUSH2 0x939 JUMP JUMPDEST PUSH2 0x208 JUMP JUMPDEST PUSH1 0x40 MLOAD PUSH2 0x12F SWAP7 SWAP6 SWAP5 SWAP4 SWAP3 SWAP2 SWAP1 PUSH2 0xA61 JUMP JUMPDEST PUSH1 0x40 MLOAD DUP1 SWAP2 SUB SWAP1 RETURN JUMPDEST CALLVALUE DUP1 ISZERO PUSH2 0x144 JUMPI PUSH1 0x0 DUP1 REVERT JUMPDEST POP PUSH2 0x15F PUSH1 0x4 DUP1 CALLDATASIZE SUB DUP2 ADD SWAP1 PUSH2 0x15A SWAP2 SWAP1 PUSH2 0x939 JUMP JUMPDEST PUSH2 0x291 JUMP JUMPDEST PUSH1 0x40 MLOAD PUSH2 0x16C SWAP2 SWAP1 PUSH2 0xA46 JUMP JUMPDEST PUSH1 0x40 MLOAD DUP1 SWAP2 SUB SWAP1 RETURN JUMPDEST PUSH2 0x18F PUSH1 0x4 DUP1 CALLDATASIZE SUB DUP2 ADD SWAP1 PUSH2 0x18A SWAP2 SWAP1 PUSH2 0x939 JUMP JUMPDEST PUSH2 0x2F4 JUMP JUMPDEST STOP JUMPDEST CALLVALUE DUP1 ISZERO PUSH2 0x19D JUMPI PUSH1 0x0 DUP1 REVERT JUMPDEST POP PUSH2 0x1B8 PUSH1 0x4 DUP1 CALLDATASIZE SUB DUP2 ADD SWAP1 PUSH2 0x1B3 SWAP2 SWAP1 PUSH2 0x8E6 JUMP JUMPDEST PUSH2 0x620 JUMP JUMPDEST STOP JUMPDEST PUSH32 0x0 DUP2 JUMP JUMPDEST PUSH1 0x1 SLOAD DUP2 JUMP JUMPDEST PUSH32 0x0 DUP2 JUMP JUMPDEST PUSH1 0x2 PUSH1 0x20 MSTORE DUP1 PUSH1 0x0 MSTORE PUSH1 0x40 PUSH1 0x0 KECCAK256 PUSH1 0x0 SWAP2 POP SWAP1 POP DUP1 PUSH1 0x0 ADD SLOAD SWAP1 DUP1 PUSH1 0x1 ADD PUSH1 0x0 SWAP1 SLOAD SWAP1 PUSH2 0x100 EXP SWAP1 DIV PUSH20 0xFFFFFFFFFFFFFFFFFFFFFFFFFFFFFFFFFFFFFFFF AND SWAP1 DUP1 PUSH1 0x2 ADD SLOAD SWAP1 DUP1 PUSH1 0x3 ADD SLOAD SWAP1 DUP1 PUSH1 0x4 ADD PUSH1 0x0 SWAP1 SLOAD SWAP1 PUSH2 0x100 EXP SWAP1 DIV PUSH20 0xFFFFFFFFFFFFFFFFFFFFFFFFFFFFFFFFFFFFFFFF AND SWAP1 DUP1 PUSH1 0x4 ADD PUSH1 0x14 SWAP1 SLOAD SWAP1 PUSH2 0x100 EXP SWAP1 DIV PUSH1 0xFF AND SWAP1 POP DUP7 JUMP JUMPDEST PUSH1 0x0 PUSH1 0x64 PUSH32 0x0 PUSH1 0x64 PUSH2 0x2C2 SWAP2 SWAP1 PUSH2 0xB0A JUMP JUMPDEST PUSH1 0x2 PUSH1 0x0 DUP6 DUP2 MSTORE PUSH1 0x20 ADD SWAP1 DUP2 MSTORE PUSH1 0x20 ADD PUSH1 0x0 KECCAK256 PUSH1 0x3 ADD SLOAD PUSH2 0x2E3 SWAP2 SWAP1 PUSH2 0xB91 JUMP JUMPDEST PUSH2 0x2ED SWAP2 SWAP1 PUSH2 0xB60 JUMP JUMPDEST SWAP1 POP SWAP2 SWAP1 POP JUMP JUMPDEST PUSH1 0x2 PUSH1 0x0 SLOAD EQ ISZERO PUSH2 0x33A JUMPI PUSH1 0x40 MLOAD PUSH32 0x8C379A000000000000000000000000000000000000000000000000000000000 DUP2 MSTORE PUSH1 0x4 ADD PUSH2 0x331 SWAP1 PUSH2 0xA26 JUMP JUMPDEST PUSH1 0x40 MLOAD DUP1 SWAP2 SUB SWAP1 REVERT JUMPDEST PUSH1 0x2 PUSH1 0x0 DUP2 SWAP1 SSTORE POP PUSH1 0x0 PUSH2 0x34D DUP3 PUSH2 0x291 JUMP JUMPDEST SWAP1 POP PUSH1 0x0 PUSH1 0x2 PUSH1 0x0 DUP5 DUP2 MSTORE PUSH1 0x20 ADD SWAP1 DUP2 MSTORE PUSH1 0x20 ADD PUSH1 0x0 KECCAK256 SWAP1 POP PUSH1 0x0 DUP4 GT DUP1 ISZERO PUSH2 0x378 JUMPI POP PUSH1 0x1 SLOAD DUP4 GT ISZERO JUMPDEST PUSH2 0x381 JUMPI PUSH1 0x0 DUP1 REVERT JUMPDEST DUP2 CALLVALUE LT ISZERO PUSH2 0x38E JUMPI PUSH1 0x0 DUP1 REVERT JUMPDEST DUP1 PUSH1 0x4 ADD PUSH1 0x14 SWAP1 SLOAD SWAP1 PUSH2 0x100 EXP SWAP1 DIV PUSH1 0xFF AND ISZERO PUSH2 0x3AA JUMPI PUSH1 0x0 DUP1 REVERT JUMPDEST DUP1 PUSH1 0x4 ADD PUSH1 0x0 SWAP1 SLOAD SWAP1 PUSH2 0x100 EXP SWAP1 DIV PUSH20 0xFFFFFFFFFFFFFFFFFFFFFFFFFFFFFFFFFFFFFFFF AND PUSH20 0xFFFFFFFFFFFFFFFFFFFFFFFFFFFFFFFFFFFFFFFF AND PUSH2 0x8FC DUP3 PUSH1 0x3 ADD SLOAD SWAP1 DUP2 ISZERO MUL SWAP1 PUSH1 0x40 MLOAD PUSH1 0x0 PUSH1 0x40 MLOAD DUP1 DUP4 SUB DUP2 DUP6 DUP9 DUP9 CALL SWAP4 POP POP POP POP ISZERO DUP1 ISZERO PUSH2 0x418 JUMPI RETURNDATASIZE PUSH1 0x0 DUP1 RETURNDATACOPY RETURNDATASIZE PUSH1 0x0 REVERT JUMPDEST POP PUSH32 0x0 PUSH20 0xFFFFFFFFFFFFFFFFFFFFFFFFFFFFFFFFFFFFFFFF AND PUSH2 0x8FC DUP3 PUSH1 0x3 ADD SLOAD DUP5 PUSH2 0x463 SWAP2 SWAP1 PUSH2 0xBEB JUMP JUMPDEST SWAP1 DUP2 ISZERO MUL SWAP1 PUSH1 0x40 MLOAD PUSH1 0x0 PUSH1 0x40 MLOAD DUP1 DUP4 SUB DUP2 DUP6 DUP9 DUP9 CALL SWAP4 POP POP POP POP ISZERO DUP1 ISZERO PUSH2 0x48E JUMPI RETURNDATASIZE PUSH1 0x0 DUP1 RETURNDATACOPY RETURNDATASIZE PUSH1 0x0 REVERT JUMPDEST POP PUSH1 0x1 DUP2 PUSH1 0x4 ADD PUSH1 0x14 PUSH2 0x100 EXP DUP2 SLOAD DUP2 PUSH1 0xFF MUL NOT AND SWAP1 DUP4 ISZERO ISZERO MUL OR SWAP1 SSTORE POP DUP1 PUSH1 0x1 ADD PUSH1 0x0 SWAP1 SLOAD SWAP1 PUSH2 0x100 EXP SWAP1 DIV PUSH20 0xFFFFFFFFFFFFFFFFFFFFFFFFFFFFFFFFFFFFFFFF AND PUSH20 0xFFFFFFFFFFFFFFFFFFFFFFFFFFFFFFFFFFFFFFFF AND PUSH4 0x23B872DD ADDRESS CALLER DUP5 PUSH1 0x2 ADD SLOAD PUSH1 0x40 MLOAD DUP5 PUSH4 0xFFFFFFFF AND PUSH1 0xE0 SHL DUP2 MSTORE PUSH1 0x4 ADD PUSH2 0x511 SWAP4 SWAP3 SWAP2 SWAP1 PUSH2 0x9EF JUMP JUMPDEST PUSH1 0x0 PUSH1 0x40 MLOAD DUP1 DUP4 SUB DUP2 PUSH1 0x0 DUP8 DUP1 EXTCODESIZE ISZERO DUP1 ISZERO PUSH2 0x52B JUMPI PUSH1 0x0 DUP1 REVERT JUMPDEST POP GAS CALL ISZERO DUP1 ISZERO PUSH2 0x53F JUMPI RETURNDATASIZE PUSH1 0x0 DUP1 RETURNDATACOPY RETURNDATASIZE PUSH1 0x0 REVERT JUMPDEST POP POP POP POP CALLER PUSH20 0xFFFFFFFFFFFFFFFFFFFFFFFFFFFFFFFFFFFFFFFF AND DUP2 PUSH1 0x4 ADD PUSH1 0x0 SWAP1 SLOAD SWAP1 PUSH2 0x100 EXP SWAP1 DIV PUSH20 0xFFFFFFFFFFFFFFFFFFFFFFFFFFFFFFFFFFFFFFFF AND PUSH20 0xFFFFFFFFFFFFFFFFFFFFFFFFFFFFFFFFFFFFFFFF AND DUP3 PUSH1 0x1 ADD PUSH1 0x0 SWAP1 SLOAD SWAP1 PUSH2 0x100 EXP SWAP1 DIV PUSH20 0xFFFFFFFFFFFFFFFFFFFFFFFFFFFFFFFFFFFFFFFF AND PUSH20 0xFFFFFFFFFFFFFFFFFFFFFFFFFFFFFFFFFFFFFFFF AND PUSH32 0xAA5FB7767895BCC2751482A6F35307D2E1E12A67BDF11218F746D4C092FAE963 DUP7 DUP6 PUSH1 0x2 ADD SLOAD DUP7 PUSH1 0x3 ADD SLOAD PUSH1 0x40 MLOAD PUSH2 0x60B SWAP4 SWAP3 SWAP2 SWAP1 PUSH2 0xAC2 JUMP JUMPDEST PUSH1 0x40 MLOAD DUP1 SWAP2 SUB SWAP1 LOG4 POP POP PUSH1 0x1 PUSH1 0x0 DUP2 SWAP1 SSTORE POP POP JUMP JUMPDEST PUSH1 0x2 PUSH1 0x0 SLOAD EQ ISZERO PUSH2 0x666 JUMPI PUSH1 0x40 MLOAD PUSH32 0x8C379A000000000000000000000000000000000000000000000000000000000 DUP2 MSTORE PUSH1 0x4 ADD PUSH2 0x65D SWAP1 PUSH2 0xA26 JUMP JUMPDEST PUSH1 0x40 MLOAD DUP1 SWAP2 SUB SWAP1 REVERT JUMPDEST PUSH1 0x2 PUSH1 0x0 DUP2 SWAP1 SSTORE POP PUSH1 0x0 DUP2 GT PUSH2 0x67B JUMPI PUSH1 0x0 DUP1 REVERT JUMPDEST PUSH1 0x1 PUSH1 0x0 DUP2 SLOAD DUP1 SWAP3 SWAP2 SWAP1 PUSH2 0x68E SWAP1 PUSH2 0xCC1 JUMP JUMPDEST SWAP2 SWAP1 POP SSTORE POP DUP3 PUSH20 0xFFFFFFFFFFFFFFFFFFFFFFFFFFFFFFFFFFFFFFFF AND PUSH4 0x23B872DD CALLER ADDRESS DUP6 PUSH1 0x40 MLOAD DUP5 PUSH4 0xFFFFFFFF AND PUSH1 0xE0 SHL DUP2 MSTORE PUSH1 0x4 ADD PUSH2 0x6D0 SWAP4 SWAP3 SWAP2 SWAP1 PUSH2 0x9EF JUMP JUMPDEST PUSH1 0x0 PUSH1 0x40 MLOAD DUP1 DUP4 SUB DUP2 PUSH1 0x0 DUP8 DUP1 EXTCODESIZE ISZERO DUP1 ISZERO PUSH2 0x6EA JUMPI PUSH1 0x0 DUP1 REVERT JUMPDEST POP GAS CALL ISZERO DUP1 ISZERO PUSH2 0x6FE JUMPI RETURNDATASIZE PUSH1 0x0 DUP1 RETURNDATACOPY RETURNDATASIZE PUSH1 0x0 REVERT JUMPDEST POP POP POP POP PUSH1 0x40 MLOAD DUP1 PUSH1 0xC0 ADD PUSH1 0x40 MSTORE DUP1 PUSH1 0x1 SLOAD DUP2 MSTORE PUSH1 0x20 ADD DUP5 PUSH20 0xFFFFFFFFFFFFFFFFFFFFFFFFFFFFFFFFFFFFFFFF AND DUP2 MSTORE PUSH1 0x20 ADD DUP4 DUP2 MSTORE PUSH1 0x20 ADD DUP3 DUP2 MSTORE PUSH1 0x20 ADD CALLER PUSH20 0xFFFFFFFFFFFFFFFFFFFFFFFFFFFFFFFFFFFFFFFF AND DUP2 MSTORE PUSH1 0x20 ADD PUSH1 0x0 ISZERO ISZERO DUP2 MSTORE POP PUSH1 0x2 PUSH1 0x0 PUSH1 0x1 SLOAD DUP2 MSTORE PUSH1 0x20 ADD SWAP1 DUP2 MSTORE PUSH1 0x20 ADD PUSH1 0x0 KECCAK256 PUSH1 0x0 DUP3 ADD MLOAD DUP2 PUSH1 0x0 ADD SSTORE PUSH1 0x20 DUP3 ADD MLOAD DUP2 PUSH1 0x1 ADD PUSH1 0x0 PUSH2 0x100 EXP DUP2 SLOAD DUP2 PUSH20 0xFFFFFFFFFFFFFFFFFFFFFFFFFFFFFFFFFFFFFFFF MUL NOT AND SWAP1 DUP4 PUSH20 0xFFFFFFFFFFFFFFFFFFFFFFFFFFFFFFFFFFFFFFFF AND MUL OR SWAP1 SSTORE POP PUSH1 0x40 DUP3 ADD MLOAD DUP2 PUSH1 0x2 ADD SSTORE PUSH1 0x60 DUP3 ADD MLOAD DUP2 PUSH1 0x3 ADD SSTORE PUSH1 0x80 DUP3 ADD MLOAD DUP2 PUSH1 0x4 ADD PUSH1 0x0 PUSH2 0x100 EXP DUP2 SLOAD DUP2 PUSH20 0xFFFFFFFFFFFFFFFFFFFFFFFFFFFFFFFFFFFFFFFF MUL NOT AND SWAP1 DUP4 PUSH20 0xFFFFFFFFFFFFFFFFFFFFFFFFFFFFFFFFFFFFFFFF AND MUL OR SWAP1 SSTORE POP PUSH1 0xA0 DUP3 ADD MLOAD DUP2 PUSH1 0x4 ADD PUSH1 0x14 PUSH2 0x100 EXP DUP2 SLOAD DUP2 PUSH1 0xFF MUL NOT AND SWAP1 DUP4 ISZERO ISZERO MUL OR SWAP1 SSTORE POP SWAP1 POP POP CALLER PUSH20 0xFFFFFFFFFFFFFFFFFFFFFFFFFFFFFFFFFFFFFFFF AND DUP4 PUSH20 0xFFFFFFFFFFFFFFFFFFFFFFFFFFFFFFFFFFFFFFFF AND PUSH32 0x655A0CF9C8DB81512BE9A76DC1C5AE5380B8816CE6AD659CD61B715E2999D59A PUSH1 0x1 SLOAD DUP6 DUP6 PUSH1 0x40 MLOAD PUSH2 0x8A7 SWAP4 SWAP3 SWAP2 SWAP1 PUSH2 0xAC2 JUMP JUMPDEST PUSH1 0x40 MLOAD DUP1 SWAP2 SUB SWAP1 LOG3 PUSH1 0x1 PUSH1 0x0 DUP2 SWAP1 SSTORE POP POP POP POP JUMP JUMPDEST PUSH1 0x0 DUP2 CALLDATALOAD SWAP1 POP PUSH2 0x8CB DUP2 PUSH2 0xD96 JUMP JUMPDEST SWAP3 SWAP2 POP POP JUMP JUMPDEST PUSH1 0x0 DUP2 CALLDATALOAD SWAP1 POP PUSH2 0x8E0 DUP2 PUSH2 0xDAD JUMP JUMPDEST SWAP3 SWAP2 POP POP JUMP JUMPDEST PUSH1 0x0 DUP1 PUSH1 0x0 PUSH1 0x60 DUP5 DUP7 SUB SLT ISZERO PUSH2 0x8FF JUMPI PUSH2 0x8FE PUSH2 0xD68 JUMP JUMPDEST JUMPDEST PUSH1 0x0 PUSH2 0x90D DUP7 DUP3 DUP8 ADD PUSH2 0x8BC JUMP JUMPDEST SWAP4 POP POP PUSH1 0x20 PUSH2 0x91E DUP7 DUP3 DUP8 ADD PUSH2 0x8D1 JUMP JUMPDEST SWAP3 POP POP PUSH1 0x40 PUSH2 0x92F DUP7 DUP3 DUP8 ADD PUSH2 0x8D1 JUMP JUMPDEST SWAP2 POP POP SWAP3 POP SWAP3 POP SWAP3 JUMP JUMPDEST PUSH1 0x0 PUSH1 0x20 DUP3 DUP5 SUB SLT ISZERO PUSH2 0x94F JUMPI PUSH2 0x94E PUSH2 0xD68 JUMP JUMPDEST JUMPDEST PUSH1 0x0 PUSH2 0x95D DUP5 DUP3 DUP6 ADD PUSH2 0x8D1 JUMP JUMPDEST SWAP2 POP POP SWAP3 SWAP2 POP POP JUMP JUMPDEST PUSH2 0x96F DUP2 PUSH2 0xC31 JUMP JUMPDEST DUP3 MSTORE POP POP JUMP JUMPDEST PUSH2 0x97E DUP2 PUSH2 0xC1F JUMP JUMPDEST DUP3 MSTORE POP POP JUMP JUMPDEST PUSH2 0x98D DUP2 PUSH2 0xC43 JUMP JUMPDEST DUP3 MSTORE POP POP JUMP JUMPDEST PUSH2 0x99C DUP2 PUSH2 0xC8B JUMP JUMPDEST DUP3 MSTORE POP POP JUMP JUMPDEST PUSH1 0x0 PUSH2 0x9AF PUSH1 0x1F DUP4 PUSH2 0xAF9 JUMP JUMPDEST SWAP2 POP PUSH2 0x9BA DUP3 PUSH2 0xD6D JUMP JUMPDEST PUSH1 0x20 DUP3 ADD SWAP1 POP SWAP2 SWAP1 POP JUMP JUMPDEST PUSH2 0x9CE DUP2 PUSH2 0xC81 JUMP JUMPDEST DUP3 MSTORE POP POP JUMP JUMPDEST PUSH1 0x0 PUSH1 0x20 DUP3 ADD SWAP1 POP PUSH2 0x9E9 PUSH1 0x0 DUP4 ADD DUP5 PUSH2 0x966 JUMP JUMPDEST SWAP3 SWAP2 POP POP JUMP JUMPDEST PUSH1 0x0 PUSH1 0x60 DUP3 ADD SWAP1 POP PUSH2 0xA04 PUSH1 0x0 DUP4 ADD DUP7 PUSH2 0x975 JUMP JUMPDEST PUSH2 0xA11 PUSH1 0x20 DUP4 ADD DUP6 PUSH2 0x975 JUMP JUMPDEST PUSH2 0xA1E PUSH1 0x40 DUP4 ADD DUP5 PUSH2 0x9C5 JUMP JUMPDEST SWAP5 SWAP4 POP POP POP POP JUMP JUMPDEST PUSH1 0x0 PUSH1 0x20 DUP3 ADD SWAP1 POP DUP2 DUP2 SUB PUSH1 0x0 DUP4 ADD MSTORE PUSH2 0xA3F DUP2 PUSH2 0x9A2 JUMP JUMPDEST SWAP1 POP SWAP2 SWAP1 POP JUMP JUMPDEST PUSH1 0x0 PUSH1 0x20 DUP3 ADD SWAP1 POP PUSH2 0xA5B PUSH1 0x0 DUP4 ADD DUP5 PUSH2 0x9C5 JUMP JUMPDEST SWAP3 SWAP2 POP POP JUMP JUMPDEST PUSH1 0x0 PUSH1 0xC0 DUP3 ADD SWAP1 POP PUSH2 0xA76 PUSH1 0x0 DUP4 ADD DUP10 PUSH2 0x9C5 JUMP JUMPDEST PUSH2 0xA83 PUSH1 0x20 DUP4 ADD DUP9 PUSH2 0x993 JUMP JUMPDEST PUSH2 0xA90 PUSH1 0x40 DUP4 ADD DUP8 PUSH2 0x9C5 JUMP JUMPDEST PUSH2 0xA9D PUSH1 0x60 DUP4 ADD DUP7 PUSH2 0x9C5 JUMP JUMPDEST PUSH2 0xAAA PUSH1 0x80 DUP4 ADD DUP6 PUSH2 0x966 JUMP JUMPDEST PUSH2 0xAB7 PUSH1 0xA0 DUP4 ADD DUP5 PUSH2 0x984 JUMP JUMPDEST SWAP8 SWAP7 POP POP POP POP POP POP POP JUMP JUMPDEST PUSH1 0x0 PUSH1 0x60 DUP3 ADD SWAP1 POP PUSH2 0xAD7 PUSH1 0x0 DUP4 ADD DUP7 PUSH2 0x9C5 JUMP JUMPDEST PUSH2 0xAE4 PUSH1 0x20 DUP4 ADD DUP6 PUSH2 0x9C5 JUMP JUMPDEST PUSH2 0xAF1 PUSH1 0x40 DUP4 ADD DUP5 PUSH2 0x9C5 JUMP JUMPDEST SWAP5 SWAP4 POP POP POP POP JUMP JUMPDEST PUSH1 0x0 DUP3 DUP3 MSTORE PUSH1 0x20 DUP3 ADD SWAP1 POP SWAP3 SWAP2 POP POP JUMP JUMPDEST PUSH1 0x0 PUSH2 0xB15 DUP3 PUSH2 0xC81 JUMP JUMPDEST SWAP2 POP PUSH2 0xB20 DUP4 PUSH2 0xC81 JUMP JUMPDEST SWAP3 POP DUP3 PUSH32 0xFFFFFFFFFFFFFFFFFFFFFFFFFFFFFFFFFFFFFFFFFFFFFFFFFFFFFFFFFFFFFFFF SUB DUP3 GT ISZERO PUSH2 0xB55 JUMPI PUSH2 0xB54 PUSH2 0xD0A JUMP JUMPDEST JUMPDEST DUP3 DUP3 ADD SWAP1 POP SWAP3 SWAP2 POP POP JUMP JUMPDEST PUSH1 0x0 PUSH2 0xB6B DUP3 PUSH2 0xC81 JUMP JUMPDEST SWAP2 POP PUSH2 0xB76 DUP4 PUSH2 0xC81 JUMP JUMPDEST SWAP3 POP DUP3 PUSH2 0xB86 JUMPI PUSH2 0xB85 PUSH2 0xD39 JUMP JUMPDEST JUMPDEST DUP3 DUP3 DIV SWAP1 POP SWAP3 SWAP2 POP POP JUMP JUMPDEST PUSH1 0x0 PUSH2 0xB9C DUP3 PUSH2 0xC81 JUMP JUMPDEST SWAP2 POP PUSH2 0xBA7 DUP4 PUSH2 0xC81 JUMP JUMPDEST SWAP3 POP DUP2 PUSH32 0xFFFFFFFFFFFFFFFFFFFFFFFFFFFFFFFFFFFFFFFFFFFFFFFFFFFFFFFFFFFFFFFF DIV DUP4 GT DUP3 ISZERO ISZERO AND ISZERO PUSH2 0xBE0 JUMPI PUSH2 0xBDF PUSH2 0xD0A JUMP JUMPDEST JUMPDEST DUP3 DUP3 MUL SWAP1 POP SWAP3 SWAP2 POP POP JUMP JUMPDEST PUSH1 0x0 PUSH2 0xBF6 DUP3 PUSH2 0xC81 JUMP JUMPDEST SWAP2 POP PUSH2 0xC01 DUP4 PUSH2 0xC81 JUMP JUMPDEST SWAP3 POP DUP3 DUP3 LT ISZERO PUSH2 0xC14 JUMPI PUSH2 0xC13 PUSH2 0xD0A JUMP JUMPDEST JUMPDEST DUP3 DUP3 SUB SWAP1 POP SWAP3 SWAP2 POP POP JUMP JUMPDEST PUSH1 0x0 PUSH2 0xC2A DUP3 PUSH2 0xC61 JUMP JUMPDEST SWAP1 POP SWAP2 SWAP1 POP JUMP JUMPDEST PUSH1 0x0 PUSH2 0xC3C DUP3 PUSH2 0xC61 JUMP JUMPDEST SWAP1 POP SWAP2 SWAP1 POP JUMP JUMPDEST PUSH1 0x0 DUP2 ISZERO ISZERO SWAP1 POP SWAP2 SWAP1 POP JUMP JUMPDEST PUSH1 0x0 PUSH2 0xC5A DUP3 PUSH2 0xC1F JUMP JUMPDEST SWAP1 POP SWAP2 SWAP1 POP JUMP JUMPDEST PUSH1 0x0 PUSH20 0xFFFFFFFFFFFFFFFFFFFFFFFFFFFFFFFFFFFFFFFF DUP3 AND SWAP1 POP SWAP2 SWAP1 POP JUMP JUMPDEST PUSH1 0x0 DUP2 SWAP1 POP SWAP2 SWAP1 POP JUMP JUMPDEST PUSH1 0x0 PUSH2 0xC96 DUP3 PUSH2 0xC9D JUMP JUMPDEST SWAP1 POP SWAP2 SWAP1 POP JUMP JUMPDEST PUSH1 0x0 PUSH2 0xCA8 DUP3 PUSH2 0xCAF JUMP JUMPDEST SWAP1 POP SWAP2 SWAP1 POP JUMP JUMPDEST PUSH1 0x0 PUSH2 0xCBA DUP3 PUSH2 0xC61 JUMP JUMPDEST SWAP1 POP SWAP2 SWAP1 POP JUMP JUMPDEST PUSH1 0x0 PUSH2 0xCCC DUP3 PUSH2 0xC81 JUMP JUMPDEST SWAP2 POP PUSH32 0xFFFFFFFFFFFFFFFFFFFFFFFFFFFFFFFFFFFFFFFFFFFFFFFFFFFFFFFFFFFFFFFF DUP3 EQ ISZERO PUSH2 0xCFF JUMPI PUSH2 0xCFE PUSH2 0xD0A JUMP JUMPDEST JUMPDEST PUSH1 0x1 DUP3 ADD SWAP1 POP SWAP2 SWAP1 POP JUMP JUMPDEST PUSH32 0x4E487B7100000000000000000000000000000000000000000000000000000000 PUSH1 0x0 MSTORE PUSH1 0x11 PUSH1 0x4 MSTORE PUSH1 0x24 PUSH1 0x0 REVERT JUMPDEST PUSH32 0x4E487B7100000000000000000000000000000000000000000000000000000000 PUSH1 0x0 MSTORE PUSH1 0x12 PUSH1 0x4 MSTORE PUSH1 0x24 PUSH1 0x0 REVERT JUMPDEST PUSH1 0x0 DUP1 REVERT JUMPDEST PUSH32 0x5265656E7472616E637947756172643A207265656E7472616E742063616C6C00 PUSH1 0x0 DUP3 ADD MSTORE POP JUMP JUMPDEST PUSH2 0xD9F DUP2 PUSH2 0xC4F JUMP JUMPDEST DUP2 EQ PUSH2 0xDAA JUMPI PUSH1 0x0 DUP1 REVERT JUMPDEST POP JUMP JUMPDEST PUSH2 0xDB6 DUP2 PUSH2 0xC81 JUMP JUMPDEST DUP2 EQ PUSH2 0xDC1 JUMPI PUSH1 0x0 DUP1 REVERT JUMPDEST POP JUMP INVALID LOG2 PUSH5 0x6970667358 0x22 SLT KECCAK256 BALANCE DUP8 ADDMOD 0xD0 CALLER SWAP14 0xBA 0xA7 SWAP2 SWAP14 ADDRESS TIMESTAMP 0xA8 PUSH10 0xCC09F10BEF9CE781FB28 MULMOD OR 0xCC STOP NUMBER 0x49 SLOAD 0xAE PUSH5 0x736F6C6343 STOP ADDMOD SMOD STOP CALLER "
				},
				"gasEstimates": {
					"creation": {
						"codeDepositCost": "715600",
						"executionCost": "infinite",
						"totalCost": "infinite"
					},
					"external": {
						"feeAccount()": "infinite",
						"feePercent()": "infinite",
						"getTotalPrice(uint256)": "infinite",
						"itemCount()": "2452",
						"items(uint256)": "infinite",
						"makeItem(address,uint256,uint256)": "infinite",
						"purchaseItem(uint256)": "infinite"
					}
				},
				"methodIdentifiers": {
					"feeAccount()": "65e17c9d",
					"feePercent()": "7fd6f15c",
					"getTotalPrice(uint256)": "ca7dd375",
					"itemCount()": "6bfb0d01",
					"items(uint256)": "bfb231d2",
					"makeItem(address,uint256,uint256)": "fa00afc7",
					"purchaseItem(uint256)": "d38ea5bf"
				}
			},
			"storageLayout": {
				"storage": [
					{
						"astId": 10,
						"contract": "Marketplace/Marketplace.sol:Marketplace",
						"label": "_status",
						"offset": 0,
						"slot": "0",
						"type": "t_uint256"
					},
					{
						"astId": 179,
						"contract": "Marketplace/Marketplace.sol:Marketplace",
						"label": "itemCount",
						"offset": 0,
						"slot": "1",
						"type": "t_uint256"
					},
					{
						"astId": 198,
						"contract": "Marketplace/Marketplace.sol:Marketplace",
						"label": "items",
						"offset": 0,
						"slot": "2",
						"type": "t_mapping(t_uint256,t_struct(Item)193_storage)"
					}
				],
				"types": {
					"t_address_payable": {
						"encoding": "inplace",
						"label": "address payable",
						"numberOfBytes": "20"
					},
					"t_bool": {
						"encoding": "inplace",
						"label": "bool",
						"numberOfBytes": "1"
					},
					"t_contract(IERC721)155": {
						"encoding": "inplace",
						"label": "contract IERC721",
						"numberOfBytes": "20"
					},
					"t_mapping(t_uint256,t_struct(Item)193_storage)": {
						"encoding": "mapping",
						"key": "t_uint256",
						"label": "mapping(uint256 => struct Marketplace.Item)",
						"numberOfBytes": "32",
						"value": "t_struct(Item)193_storage"
					},
					"t_struct(Item)193_storage": {
						"encoding": "inplace",
						"label": "struct Marketplace.Item",
						"members": [
							{
								"astId": 181,
								"contract": "Marketplace/Marketplace.sol:Marketplace",
								"label": "itemId",
								"offset": 0,
								"slot": "0",
								"type": "t_uint256"
							},
							{
								"astId": 184,
								"contract": "Marketplace/Marketplace.sol:Marketplace",
								"label": "nft",
								"offset": 0,
								"slot": "1",
								"type": "t_contract(IERC721)155"
							},
							{
								"astId": 186,
								"contract": "Marketplace/Marketplace.sol:Marketplace",
								"label": "tokenId",
								"offset": 0,
								"slot": "2",
								"type": "t_uint256"
							},
							{
								"astId": 188,
								"contract": "Marketplace/Marketplace.sol:Marketplace",
								"label": "price",
								"offset": 0,
								"slot": "3",
								"type": "t_uint256"
							},
							{
								"astId": 190,
								"contract": "Marketplace/Marketplace.sol:Marketplace",
								"label": "seller",
								"offset": 0,
								"slot": "4",
								"type": "t_address_payable"
							},
							{
								"astId": 192,
								"contract": "Marketplace/Marketplace.sol:Marketplace",
								"label": "sold",
								"offset": 20,
								"slot": "4",
								"type": "t_bool"
							}
						],
						"numberOfBytes": "160"
					},
					"t_uint256": {
						"encoding": "inplace",
						"label": "uint256",
						"numberOfBytes": "32"
					}
				}
			},
			"userdoc": {
				"kind": "user",
				"methods": {},
				"version": 1
			}
		}
	}
}