{
	"Marketplace/Marketplace.sol": {
		"Marketplace": {
			"abi": [
				{
					"inputs": [
						{
							"internalType": "uint256",
							"name": "_feePercent",
							"type": "uint256"
						}
					],
					"stateMutability": "nonpayable",
					"type": "constructor"
				},
				{
					"anonymous": false,
					"inputs": [
						{
							"indexed": false,
							"internalType": "uint256",
							"name": "itemId",
							"type": "uint256"
						},
						{
							"indexed": true,
							"internalType": "address",
							"name": "nft",
							"type": "address"
						},
						{
							"indexed": false,
							"internalType": "uint256",
							"name": "tokenId",
							"type": "uint256"
						},
						{
							"indexed": false,
							"internalType": "uint256",
							"name": "price",
							"type": "uint256"
						},
						{
							"indexed": true,
							"internalType": "address",
							"name": "seller",
							"type": "address"
						},
						{
							"indexed": true,
							"internalType": "address",
							"name": "buyer",
							"type": "address"
						}
					],
					"name": "Bougth",
					"type": "event"
				},
				{
					"anonymous": false,
					"inputs": [
						{
							"indexed": false,
							"internalType": "uint256",
							"name": "itemId",
							"type": "uint256"
						},
						{
							"indexed": true,
							"internalType": "address",
							"name": "nft",
							"type": "address"
						},
						{
							"indexed": false,
							"internalType": "uint256",
							"name": "tokenId",
							"type": "uint256"
						},
						{
							"indexed": false,
							"internalType": "uint256",
							"name": "price",
							"type": "uint256"
						},
						{
							"indexed": true,
							"internalType": "address",
							"name": "seller",
							"type": "address"
						}
					],
					"name": "Offered",
					"type": "event"
				},
				{
					"inputs": [],
					"name": "feeAccount",
					"outputs": [
						{
							"internalType": "address payable",
							"name": "",
							"type": "address"
						}
					],
					"stateMutability": "view",
					"type": "function"
				},
				{
					"inputs": [],
					"name": "feePercent",
					"outputs": [
						{
							"internalType": "uint256",
							"name": "",
							"type": "uint256"
						}
					],
					"stateMutability": "view",
					"type": "function"
				},
				{
					"inputs": [],
					"name": "itemCount",
					"outputs": [
						{
							"internalType": "uint256",
							"name": "",
							"type": "uint256"
						}
					],
					"stateMutability": "view",
					"type": "function"
				},
				{
					"inputs": [
						{
							"internalType": "uint256",
							"name": "",
							"type": "uint256"
						}
					],
					"name": "items",
					"outputs": [
						{
							"internalType": "uint256",
							"name": "itemId",
							"type": "uint256"
						},
						{
							"internalType": "contract IERC721",
							"name": "nft",
							"type": "address"
						},
						{
							"internalType": "uint256",
							"name": "tokenId",
							"type": "uint256"
						},
						{
							"internalType": "uint256",
							"name": "price",
							"type": "uint256"
						},
						{
							"internalType": "address payable",
							"name": "seller",
							"type": "address"
						},
						{
							"internalType": "bool",
							"name": "sold",
							"type": "bool"
						}
					],
					"stateMutability": "view",
					"type": "function"
				}
			],
			"devdoc": {
				"kind": "dev",
				"methods": {},
				"version": 1
			},
			"evm": {
				"assembly": "    /* \"Marketplace/Marketplace.sol\":198:1057  contract Marketplace is ReentrancyGuard {\r... */\n  mstore(0x40, 0xc0)\n    /* \"Marketplace/Marketplace.sol\":937:1054  constructor (uint _feePercent) {\r... */\n  callvalue\n  dup1\n  iszero\n  tag_1\n  jumpi\n  0x00\n  dup1\n  revert\ntag_1:\n  pop\n  mload(0x40)\n  sub(codesize, bytecodeSize)\n  dup1\n  bytecodeSize\n  dup4\n  codecopy\n  dup2\n  dup2\n  add\n  0x40\n  mstore\n  dup2\n  add\n  swap1\n  tag_2\n  swap2\n  swap1\n  tag_3\n  jump\t// in\ntag_2:\n    /* \"@openzeppelin/contracts@4.6.0/security/ReentrancyGuard.sol\":1701:1702  1 */\n  0x01\n    /* \"@openzeppelin/contracts@4.6.0/security/ReentrancyGuard.sol\":1806:1813  _status */\n  0x00\n    /* \"@openzeppelin/contracts@4.6.0/security/ReentrancyGuard.sol\":1806:1828  _status = _NOT_ENTERED */\n  dup2\n  swap1\n  sstore\n  pop\n    /* \"Marketplace/Marketplace.sol\":1000:1010  msg.sender */\n  caller\n    /* \"Marketplace/Marketplace.sol\":979:1011  feeAccount = payable(msg.sender) */\n  0xffffffffffffffffffffffffffffffffffffffff\n  and\n  0x80\n  dup2\n  0xffffffffffffffffffffffffffffffffffffffff\n  and\n  0x60\n  shl\n  dup2\n  mstore\n  pop\n  pop\n    /* \"Marketplace/Marketplace.sol\":1035:1046  _feePercent */\n  dup1\n    /* \"Marketplace/Marketplace.sol\":1022:1046  feePercent = _feePercent */\n  0xa0\n  dup2\n  dup2\n  mstore\n  pop\n  pop\n    /* \"Marketplace/Marketplace.sol\":937:1054  constructor (uint _feePercent) {\r... */\n  pop\n    /* \"Marketplace/Marketplace.sol\":198:1057  contract Marketplace is ReentrancyGuard {\r... */\n  jump(tag_8)\n    /* \"#utility.yul\":7:150   */\ntag_10:\n    /* \"#utility.yul\":64:69   */\n  0x00\n    /* \"#utility.yul\":95:101   */\n  dup2\n    /* \"#utility.yul\":89:102   */\n  mload\n    /* \"#utility.yul\":80:102   */\n  swap1\n  pop\n    /* \"#utility.yul\":111:144   */\n  tag_12\n    /* \"#utility.yul\":138:143   */\n  dup2\n    /* \"#utility.yul\":111:144   */\n  tag_13\n  jump\t// in\ntag_12:\n    /* \"#utility.yul\":7:150   */\n  swap3\n  swap2\n  pop\n  pop\n  jump\t// out\n    /* \"#utility.yul\":156:507   */\ntag_3:\n    /* \"#utility.yul\":226:232   */\n  0x00\n    /* \"#utility.yul\":275:277   */\n  0x20\n    /* \"#utility.yul\":263:272   */\n  dup3\n    /* \"#utility.yul\":254:261   */\n  dup5\n    /* \"#utility.yul\":250:273   */\n  sub\n    /* \"#utility.yul\":246:278   */\n  slt\n    /* \"#utility.yul\":243:362   */\n  iszero\n  tag_15\n  jumpi\n    /* \"#utility.yul\":281:360   */\n  tag_16\n  tag_17\n  jump\t// in\ntag_16:\n    /* \"#utility.yul\":243:362   */\ntag_15:\n    /* \"#utility.yul\":401:402   */\n  0x00\n    /* \"#utility.yul\":426:490   */\n  tag_18\n    /* \"#utility.yul\":482:489   */\n  dup5\n    /* \"#utility.yul\":473:479   */\n  dup3\n    /* \"#utility.yul\":462:471   */\n  dup6\n    /* \"#utility.yul\":458:480   */\n  add\n    /* \"#utility.yul\":426:490   */\n  tag_10\n  jump\t// in\ntag_18:\n    /* \"#utility.yul\":416:490   */\n  swap2\n  pop\n    /* \"#utility.yul\":372:500   */\n  pop\n    /* \"#utility.yul\":156:507   */\n  swap3\n  swap2\n  pop\n  pop\n  jump\t// out\n    /* \"#utility.yul\":594:671   */\ntag_21:\n    /* \"#utility.yul\":631:638   */\n  0x00\n    /* \"#utility.yul\":660:665   */\n  dup2\n    /* \"#utility.yul\":649:665   */\n  swap1\n  pop\n    /* \"#utility.yul\":594:671   */\n  swap2\n  swap1\n  pop\n  jump\t// out\n    /* \"#utility.yul\":800:917   */\ntag_17:\n    /* \"#utility.yul\":909:910   */\n  0x00\n    /* \"#utility.yul\":906:907   */\n  dup1\n    /* \"#utility.yul\":899:911   */\n  revert\n    /* \"#utility.yul\":923:1045   */\ntag_13:\n    /* \"#utility.yul\":996:1020   */\n  tag_27\n    /* \"#utility.yul\":1014:1019   */\n  dup2\n    /* \"#utility.yul\":996:1020   */\n  tag_21\n  jump\t// in\ntag_27:\n    /* \"#utility.yul\":989:994   */\n  dup2\n    /* \"#utility.yul\":986:1021   */\n  eq\n    /* \"#utility.yul\":976:1039   */\n  tag_28\n  jumpi\n    /* \"#utility.yul\":1035:1036   */\n  0x00\n    /* \"#utility.yul\":1032:1033   */\n  dup1\n    /* \"#utility.yul\":1025:1037   */\n  revert\n    /* \"#utility.yul\":976:1039   */\ntag_28:\n    /* \"#utility.yul\":923:1045   */\n  pop\n  jump\t// out\n    /* \"Marketplace/Marketplace.sol\":198:1057  contract Marketplace is ReentrancyGuard {\r... */\ntag_8:\n  shr(0x60, mload(0x80))\n  mload(0xa0)\n  codecopy(0x00, dataOffset(sub_0), dataSize(sub_0))\n  0x00\n  assignImmutable(\"0xca1c98d2cee18ab5da51a9df7bbf45ca91ab83c708e48aed82f5115320306ab4\")\n  0x00\n  assignImmutable(\"0x9abd569a0444be7ce52d46a7fb79009940c0c0442116f15017290ff13cb4450c\")\n  return(0x00, dataSize(sub_0))\nstop\n\nsub_0: assembly {\n        /* \"Marketplace/Marketplace.sol\":198:1057  contract Marketplace is ReentrancyGuard {\r... */\n      mstore(0x40, 0x80)\n      callvalue\n      dup1\n      iszero\n      tag_1\n      jumpi\n      0x00\n      dup1\n      revert\n    tag_1:\n      pop\n      jumpi(tag_2, lt(calldatasize, 0x04))\n      shr(0xe0, calldataload(0x00))\n      dup1\n      0x65e17c9d\n      eq\n      tag_3\n      jumpi\n      dup1\n      0x6bfb0d01\n      eq\n      tag_4\n      jumpi\n      dup1\n      0x7fd6f15c\n      eq\n      tag_5\n      jumpi\n      dup1\n      0xbfb231d2\n      eq\n      tag_6\n      jumpi\n    tag_2:\n      0x00\n      dup1\n      revert\n        /* \"Marketplace/Marketplace.sol\":251:294  address payable public immutable feeAccount */\n    tag_3:\n      tag_7\n      tag_8\n      jump\t// in\n    tag_7:\n      mload(0x40)\n      tag_9\n      swap2\n      swap1\n      tag_10\n      jump\t// in\n    tag_9:\n      mload(0x40)\n      dup1\n      swap2\n      sub\n      swap1\n      return\n        /* \"Marketplace/Marketplace.sol\":340:361  uint public itemCount */\n    tag_4:\n      tag_11\n      tag_12\n      jump\t// in\n    tag_11:\n      mload(0x40)\n      tag_13\n      swap2\n      swap1\n      tag_14\n      jump\t// in\n    tag_13:\n      mload(0x40)\n      dup1\n      swap2\n      sub\n      swap1\n      return\n        /* \"Marketplace/Marketplace.sol\":301:333  uint public immutable feePercent */\n    tag_5:\n      tag_15\n      tag_16\n      jump\t// in\n    tag_15:\n      mload(0x40)\n      tag_17\n      swap2\n      swap1\n      tag_14\n      jump\t// in\n    tag_17:\n      mload(0x40)\n      dup1\n      swap2\n      sub\n      swap1\n      return\n        /* \"Marketplace/Marketplace.sol\":547:581  mapping(uint => Item) public items */\n    tag_6:\n      tag_18\n      0x04\n      dup1\n      calldatasize\n      sub\n      dup2\n      add\n      swap1\n      tag_19\n      swap2\n      swap1\n      tag_20\n      jump\t// in\n    tag_19:\n      tag_21\n      jump\t// in\n    tag_18:\n      mload(0x40)\n      tag_22\n      swap7\n      swap6\n      swap5\n      swap4\n      swap3\n      swap2\n      swap1\n      tag_23\n      jump\t// in\n    tag_22:\n      mload(0x40)\n      dup1\n      swap2\n      sub\n      swap1\n      return\n        /* \"Marketplace/Marketplace.sol\":251:294  address payable public immutable feeAccount */\n    tag_8:\n      immutable(\"0x9abd569a0444be7ce52d46a7fb79009940c0c0442116f15017290ff13cb4450c\")\n      dup2\n      jump\t// out\n        /* \"Marketplace/Marketplace.sol\":340:361  uint public itemCount */\n    tag_12:\n      sload(0x01)\n      dup2\n      jump\t// out\n        /* \"Marketplace/Marketplace.sol\":301:333  uint public immutable feePercent */\n    tag_16:\n      immutable(\"0xca1c98d2cee18ab5da51a9df7bbf45ca91ab83c708e48aed82f5115320306ab4\")\n      dup2\n      jump\t// out\n        /* \"Marketplace/Marketplace.sol\":547:581  mapping(uint => Item) public items */\n    tag_21:\n      mstore(0x20, 0x02)\n      dup1\n      0x00\n      mstore\n      keccak256(0x00, 0x40)\n      0x00\n      swap2\n      pop\n      swap1\n      pop\n      dup1\n      0x00\n      add\n      sload\n      swap1\n      dup1\n      0x01\n      add\n      0x00\n      swap1\n      sload\n      swap1\n      0x0100\n      exp\n      swap1\n      div\n      0xffffffffffffffffffffffffffffffffffffffff\n      and\n      swap1\n      dup1\n      0x02\n      add\n      sload\n      swap1\n      dup1\n      0x03\n      add\n      sload\n      swap1\n      dup1\n      0x04\n      add\n      0x00\n      swap1\n      sload\n      swap1\n      0x0100\n      exp\n      swap1\n      div\n      0xffffffffffffffffffffffffffffffffffffffff\n      and\n      swap1\n      dup1\n      0x04\n      add\n      0x14\n      swap1\n      sload\n      swap1\n      0x0100\n      exp\n      swap1\n      div\n      0xff\n      and\n      swap1\n      pop\n      dup7\n      jump\t// out\n        /* \"#utility.yul\":7:146   */\n    tag_25:\n        /* \"#utility.yul\":53:58   */\n      0x00\n        /* \"#utility.yul\":91:97   */\n      dup2\n        /* \"#utility.yul\":78:98   */\n      calldataload\n        /* \"#utility.yul\":69:98   */\n      swap1\n      pop\n        /* \"#utility.yul\":107:140   */\n      tag_27\n        /* \"#utility.yul\":134:139   */\n      dup2\n        /* \"#utility.yul\":107:140   */\n      tag_28\n      jump\t// in\n    tag_27:\n        /* \"#utility.yul\":7:146   */\n      swap3\n      swap2\n      pop\n      pop\n      jump\t// out\n        /* \"#utility.yul\":152:481   */\n    tag_20:\n        /* \"#utility.yul\":211:217   */\n      0x00\n        /* \"#utility.yul\":260:262   */\n      0x20\n        /* \"#utility.yul\":248:257   */\n      dup3\n        /* \"#utility.yul\":239:246   */\n      dup5\n        /* \"#utility.yul\":235:258   */\n      sub\n        /* \"#utility.yul\":231:263   */\n      slt\n        /* \"#utility.yul\":228:347   */\n      iszero\n      tag_30\n      jumpi\n        /* \"#utility.yul\":266:345   */\n      tag_31\n      tag_32\n      jump\t// in\n    tag_31:\n        /* \"#utility.yul\":228:347   */\n    tag_30:\n        /* \"#utility.yul\":386:387   */\n      0x00\n        /* \"#utility.yul\":411:464   */\n      tag_33\n        /* \"#utility.yul\":456:463   */\n      dup5\n        /* \"#utility.yul\":447:453   */\n      dup3\n        /* \"#utility.yul\":436:445   */\n      dup6\n        /* \"#utility.yul\":432:454   */\n      add\n        /* \"#utility.yul\":411:464   */\n      tag_25\n      jump\t// in\n    tag_33:\n        /* \"#utility.yul\":401:464   */\n      swap2\n      pop\n        /* \"#utility.yul\":357:474   */\n      pop\n        /* \"#utility.yul\":152:481   */\n      swap3\n      swap2\n      pop\n      pop\n      jump\t// out\n        /* \"#utility.yul\":487:629   */\n    tag_34:\n        /* \"#utility.yul\":590:622   */\n      tag_36\n        /* \"#utility.yul\":616:621   */\n      dup2\n        /* \"#utility.yul\":590:622   */\n      tag_37\n      jump\t// in\n    tag_36:\n        /* \"#utility.yul\":585:588   */\n      dup3\n        /* \"#utility.yul\":578:623   */\n      mstore\n        /* \"#utility.yul\":487:629   */\n      pop\n      pop\n      jump\t// out\n        /* \"#utility.yul\":635:744   */\n    tag_38:\n        /* \"#utility.yul\":716:737   */\n      tag_40\n        /* \"#utility.yul\":731:736   */\n      dup2\n        /* \"#utility.yul\":716:737   */\n      tag_41\n      jump\t// in\n    tag_40:\n        /* \"#utility.yul\":711:714   */\n      dup3\n        /* \"#utility.yul\":704:738   */\n      mstore\n        /* \"#utility.yul\":635:744   */\n      pop\n      pop\n      jump\t// out\n        /* \"#utility.yul\":750:911   */\n    tag_42:\n        /* \"#utility.yul\":852:904   */\n      tag_44\n        /* \"#utility.yul\":898:903   */\n      dup2\n        /* \"#utility.yul\":852:904   */\n      tag_45\n      jump\t// in\n    tag_44:\n        /* \"#utility.yul\":847:850   */\n      dup3\n        /* \"#utility.yul\":840:905   */\n      mstore\n        /* \"#utility.yul\":750:911   */\n      pop\n      pop\n      jump\t// out\n        /* \"#utility.yul\":917:1035   */\n    tag_46:\n        /* \"#utility.yul\":1004:1028   */\n      tag_48\n        /* \"#utility.yul\":1022:1027   */\n      dup2\n        /* \"#utility.yul\":1004:1028   */\n      tag_49\n      jump\t// in\n    tag_48:\n        /* \"#utility.yul\":999:1002   */\n      dup3\n        /* \"#utility.yul\":992:1029   */\n      mstore\n        /* \"#utility.yul\":917:1035   */\n      pop\n      pop\n      jump\t// out\n        /* \"#utility.yul\":1041:1295   */\n    tag_10:\n        /* \"#utility.yul\":1150:1154   */\n      0x00\n        /* \"#utility.yul\":1188:1190   */\n      0x20\n        /* \"#utility.yul\":1177:1186   */\n      dup3\n        /* \"#utility.yul\":1173:1191   */\n      add\n        /* \"#utility.yul\":1165:1191   */\n      swap1\n      pop\n        /* \"#utility.yul\":1201:1288   */\n      tag_51\n        /* \"#utility.yul\":1285:1286   */\n      0x00\n        /* \"#utility.yul\":1274:1283   */\n      dup4\n        /* \"#utility.yul\":1270:1287   */\n      add\n        /* \"#utility.yul\":1261:1267   */\n      dup5\n        /* \"#utility.yul\":1201:1288   */\n      tag_34\n      jump\t// in\n    tag_51:\n        /* \"#utility.yul\":1041:1295   */\n      swap3\n      swap2\n      pop\n      pop\n      jump\t// out\n        /* \"#utility.yul\":1301:1523   */\n    tag_14:\n        /* \"#utility.yul\":1394:1398   */\n      0x00\n        /* \"#utility.yul\":1432:1434   */\n      0x20\n        /* \"#utility.yul\":1421:1430   */\n      dup3\n        /* \"#utility.yul\":1417:1435   */\n      add\n        /* \"#utility.yul\":1409:1435   */\n      swap1\n      pop\n        /* \"#utility.yul\":1445:1516   */\n      tag_53\n        /* \"#utility.yul\":1513:1514   */\n      0x00\n        /* \"#utility.yul\":1502:1511   */\n      dup4\n        /* \"#utility.yul\":1498:1515   */\n      add\n        /* \"#utility.yul\":1489:1495   */\n      dup5\n        /* \"#utility.yul\":1445:1516   */\n      tag_46\n      jump\t// in\n    tag_53:\n        /* \"#utility.yul\":1301:1523   */\n      swap3\n      swap2\n      pop\n      pop\n      jump\t// out\n        /* \"#utility.yul\":1529:2354   */\n    tag_23:\n        /* \"#utility.yul\":1787:1791   */\n      0x00\n        /* \"#utility.yul\":1825:1828   */\n      0xc0\n        /* \"#utility.yul\":1814:1823   */\n      dup3\n        /* \"#utility.yul\":1810:1829   */\n      add\n        /* \"#utility.yul\":1802:1829   */\n      swap1\n      pop\n        /* \"#utility.yul\":1839:1910   */\n      tag_55\n        /* \"#utility.yul\":1907:1908   */\n      0x00\n        /* \"#utility.yul\":1896:1905   */\n      dup4\n        /* \"#utility.yul\":1892:1909   */\n      add\n        /* \"#utility.yul\":1883:1889   */\n      dup10\n        /* \"#utility.yul\":1839:1910   */\n      tag_46\n      jump\t// in\n    tag_55:\n        /* \"#utility.yul\":1920:2007   */\n      tag_56\n        /* \"#utility.yul\":2003:2005   */\n      0x20\n        /* \"#utility.yul\":1992:2001   */\n      dup4\n        /* \"#utility.yul\":1988:2006   */\n      add\n        /* \"#utility.yul\":1979:1985   */\n      dup9\n        /* \"#utility.yul\":1920:2007   */\n      tag_42\n      jump\t// in\n    tag_56:\n        /* \"#utility.yul\":2017:2089   */\n      tag_57\n        /* \"#utility.yul\":2085:2087   */\n      0x40\n        /* \"#utility.yul\":2074:2083   */\n      dup4\n        /* \"#utility.yul\":2070:2088   */\n      add\n        /* \"#utility.yul\":2061:2067   */\n      dup8\n        /* \"#utility.yul\":2017:2089   */\n      tag_46\n      jump\t// in\n    tag_57:\n        /* \"#utility.yul\":2099:2171   */\n      tag_58\n        /* \"#utility.yul\":2167:2169   */\n      0x60\n        /* \"#utility.yul\":2156:2165   */\n      dup4\n        /* \"#utility.yul\":2152:2170   */\n      add\n        /* \"#utility.yul\":2143:2149   */\n      dup7\n        /* \"#utility.yul\":2099:2171   */\n      tag_46\n      jump\t// in\n    tag_58:\n        /* \"#utility.yul\":2181:2270   */\n      tag_59\n        /* \"#utility.yul\":2265:2268   */\n      0x80\n        /* \"#utility.yul\":2254:2263   */\n      dup4\n        /* \"#utility.yul\":2250:2269   */\n      add\n        /* \"#utility.yul\":2241:2247   */\n      dup6\n        /* \"#utility.yul\":2181:2270   */\n      tag_34\n      jump\t// in\n    tag_59:\n        /* \"#utility.yul\":2280:2347   */\n      tag_60\n        /* \"#utility.yul\":2342:2345   */\n      0xa0\n        /* \"#utility.yul\":2331:2340   */\n      dup4\n        /* \"#utility.yul\":2327:2346   */\n      add\n        /* \"#utility.yul\":2318:2324   */\n      dup5\n        /* \"#utility.yul\":2280:2347   */\n      tag_38\n      jump\t// in\n    tag_60:\n        /* \"#utility.yul\":1529:2354   */\n      swap8\n      swap7\n      pop\n      pop\n      pop\n      pop\n      pop\n      pop\n      pop\n      jump\t// out\n        /* \"#utility.yul\":2441:2545   */\n    tag_37:\n        /* \"#utility.yul\":2486:2493   */\n      0x00\n        /* \"#utility.yul\":2515:2539   */\n      tag_64\n        /* \"#utility.yul\":2533:2538   */\n      dup3\n        /* \"#utility.yul\":2515:2539   */\n      tag_65\n      jump\t// in\n    tag_64:\n        /* \"#utility.yul\":2504:2539   */\n      swap1\n      pop\n        /* \"#utility.yul\":2441:2545   */\n      swap2\n      swap1\n      pop\n      jump\t// out\n        /* \"#utility.yul\":2551:2641   */\n    tag_41:\n        /* \"#utility.yul\":2585:2592   */\n      0x00\n        /* \"#utility.yul\":2628:2633   */\n      dup2\n        /* \"#utility.yul\":2621:2634   */\n      iszero\n        /* \"#utility.yul\":2614:2635   */\n      iszero\n        /* \"#utility.yul\":2603:2635   */\n      swap1\n      pop\n        /* \"#utility.yul\":2551:2641   */\n      swap2\n      swap1\n      pop\n      jump\t// out\n        /* \"#utility.yul\":2647:2773   */\n    tag_65:\n        /* \"#utility.yul\":2684:2691   */\n      0x00\n        /* \"#utility.yul\":2724:2766   */\n      0xffffffffffffffffffffffffffffffffffffffff\n        /* \"#utility.yul\":2717:2722   */\n      dup3\n        /* \"#utility.yul\":2713:2767   */\n      and\n        /* \"#utility.yul\":2702:2767   */\n      swap1\n      pop\n        /* \"#utility.yul\":2647:2773   */\n      swap2\n      swap1\n      pop\n      jump\t// out\n        /* \"#utility.yul\":2779:2856   */\n    tag_49:\n        /* \"#utility.yul\":2816:2823   */\n      0x00\n        /* \"#utility.yul\":2845:2850   */\n      dup2\n        /* \"#utility.yul\":2834:2850   */\n      swap1\n      pop\n        /* \"#utility.yul\":2779:2856   */\n      swap2\n      swap1\n      pop\n      jump\t// out\n        /* \"#utility.yul\":2862:3003   */\n    tag_45:\n        /* \"#utility.yul\":2927:2936   */\n      0x00\n        /* \"#utility.yul\":2960:2997   */\n      tag_70\n        /* \"#utility.yul\":2991:2996   */\n      dup3\n        /* \"#utility.yul\":2960:2997   */\n      tag_71\n      jump\t// in\n    tag_70:\n        /* \"#utility.yul\":2947:2997   */\n      swap1\n      pop\n        /* \"#utility.yul\":2862:3003   */\n      swap2\n      swap1\n      pop\n      jump\t// out\n        /* \"#utility.yul\":3009:3135   */\n    tag_71:\n        /* \"#utility.yul\":3059:3068   */\n      0x00\n        /* \"#utility.yul\":3092:3129   */\n      tag_73\n        /* \"#utility.yul\":3123:3128   */\n      dup3\n        /* \"#utility.yul\":3092:3129   */\n      tag_74\n      jump\t// in\n    tag_73:\n        /* \"#utility.yul\":3079:3129   */\n      swap1\n      pop\n        /* \"#utility.yul\":3009:3135   */\n      swap2\n      swap1\n      pop\n      jump\t// out\n        /* \"#utility.yul\":3141:3254   */\n    tag_74:\n        /* \"#utility.yul\":3191:3200   */\n      0x00\n        /* \"#utility.yul\":3224:3248   */\n      tag_76\n        /* \"#utility.yul\":3242:3247   */\n      dup3\n        /* \"#utility.yul\":3224:3248   */\n      tag_65\n      jump\t// in\n    tag_76:\n        /* \"#utility.yul\":3211:3248   */\n      swap1\n      pop\n        /* \"#utility.yul\":3141:3254   */\n      swap2\n      swap1\n      pop\n      jump\t// out\n        /* \"#utility.yul\":3383:3500   */\n    tag_32:\n        /* \"#utility.yul\":3492:3493   */\n      0x00\n        /* \"#utility.yul\":3489:3490   */\n      dup1\n        /* \"#utility.yul\":3482:3494   */\n      revert\n        /* \"#utility.yul\":3506:3628   */\n    tag_28:\n        /* \"#utility.yul\":3579:3603   */\n      tag_81\n        /* \"#utility.yul\":3597:3602   */\n      dup2\n        /* \"#utility.yul\":3579:3603   */\n      tag_49\n      jump\t// in\n    tag_81:\n        /* \"#utility.yul\":3572:3577   */\n      dup2\n        /* \"#utility.yul\":3569:3604   */\n      eq\n        /* \"#utility.yul\":3559:3622   */\n      tag_82\n      jumpi\n        /* \"#utility.yul\":3618:3619   */\n      0x00\n        /* \"#utility.yul\":3615:3616   */\n      dup1\n        /* \"#utility.yul\":3608:3620   */\n      revert\n        /* \"#utility.yul\":3559:3622   */\n    tag_82:\n        /* \"#utility.yul\":3506:3628   */\n      pop\n      jump\t// out\n\n    auxdata: 0xa264697066735822122089fec552913e3c3fa2131fcb587d8f09d73be55a8a575b93881de06ff2ed6e7a64736f6c63430008070033\n}\n",
				"bytecode": {
					"linkReferences": {},
					"object": "60c060405234801561001057600080fd5b506040516104aa3803806104aa83398181016040528101906100329190610094565b60016000819055503373ffffffffffffffffffffffffffffffffffffffff1660808173ffffffffffffffffffffffffffffffffffffffff1660601b815250508060a08181525050506100e7565b60008151905061008e816100d0565b92915050565b6000602082840312156100aa576100a96100cb565b5b60006100b88482850161007f565b91505092915050565b6000819050919050565b600080fd5b6100d9816100c1565b81146100e457600080fd5b50565b60805160601c60a05161039c61010e600039600061010c0152600060e2015261039c6000f3fe608060405234801561001057600080fd5b506004361061004c5760003560e01c806365e17c9d146100515780636bfb0d011461006f5780637fd6f15c1461008d578063bfb231d2146100ab575b600080fd5b6100596100e0565b6040516100669190610235565b60405180910390f35b610077610104565b6040516100849190610250565b60405180910390f35b61009561010a565b6040516100a29190610250565b60405180910390f35b6100c560048036038101906100c091906101cc565b61012e565b6040516100d79695949392919061026b565b60405180910390f35b7f000000000000000000000000000000000000000000000000000000000000000081565b60015481565b7f000000000000000000000000000000000000000000000000000000000000000081565b60026020528060005260406000206000915090508060000154908060010160009054906101000a900473ffffffffffffffffffffffffffffffffffffffff16908060020154908060030154908060040160009054906101000a900473ffffffffffffffffffffffffffffffffffffffff16908060040160149054906101000a900460ff16905086565b6000813590506101c68161034f565b92915050565b6000602082840312156101e2576101e161034a565b5b60006101f0848285016101b7565b91505092915050565b610202816102cc565b82525050565b610211816102de565b82525050565b61022081610314565b82525050565b61022f8161030a565b82525050565b600060208201905061024a60008301846101f9565b92915050565b60006020820190506102656000830184610226565b92915050565b600060c0820190506102806000830189610226565b61028d6020830188610217565b61029a6040830187610226565b6102a76060830186610226565b6102b460808301856101f9565b6102c160a0830184610208565b979650505050505050565b60006102d7826102ea565b9050919050565b60008115159050919050565b600073ffffffffffffffffffffffffffffffffffffffff82169050919050565b6000819050919050565b600061031f82610326565b9050919050565b600061033182610338565b9050919050565b6000610343826102ea565b9050919050565b600080fd5b6103588161030a565b811461036357600080fd5b5056fea264697066735822122089fec552913e3c3fa2131fcb587d8f09d73be55a8a575b93881de06ff2ed6e7a64736f6c63430008070033",
					"opcodes": "PUSH1 0xC0 PUSH1 0x40 MSTORE CALLVALUE DUP1 ISZERO PUSH2 0x10 JUMPI PUSH1 0x0 DUP1 REVERT JUMPDEST POP PUSH1 0x40 MLOAD PUSH2 0x4AA CODESIZE SUB DUP1 PUSH2 0x4AA DUP4 CODECOPY DUP2 DUP2 ADD PUSH1 0x40 MSTORE DUP2 ADD SWAP1 PUSH2 0x32 SWAP2 SWAP1 PUSH2 0x94 JUMP JUMPDEST PUSH1 0x1 PUSH1 0x0 DUP2 SWAP1 SSTORE POP CALLER PUSH20 0xFFFFFFFFFFFFFFFFFFFFFFFFFFFFFFFFFFFFFFFF AND PUSH1 0x80 DUP2 PUSH20 0xFFFFFFFFFFFFFFFFFFFFFFFFFFFFFFFFFFFFFFFF AND PUSH1 0x60 SHL DUP2 MSTORE POP POP DUP1 PUSH1 0xA0 DUP2 DUP2 MSTORE POP POP POP PUSH2 0xE7 JUMP JUMPDEST PUSH1 0x0 DUP2 MLOAD SWAP1 POP PUSH2 0x8E DUP2 PUSH2 0xD0 JUMP JUMPDEST SWAP3 SWAP2 POP POP JUMP JUMPDEST PUSH1 0x0 PUSH1 0x20 DUP3 DUP5 SUB SLT ISZERO PUSH2 0xAA JUMPI PUSH2 0xA9 PUSH2 0xCB JUMP JUMPDEST JUMPDEST PUSH1 0x0 PUSH2 0xB8 DUP5 DUP3 DUP6 ADD PUSH2 0x7F JUMP JUMPDEST SWAP2 POP POP SWAP3 SWAP2 POP POP JUMP JUMPDEST PUSH1 0x0 DUP2 SWAP1 POP SWAP2 SWAP1 POP JUMP JUMPDEST PUSH1 0x0 DUP1 REVERT JUMPDEST PUSH2 0xD9 DUP2 PUSH2 0xC1 JUMP JUMPDEST DUP2 EQ PUSH2 0xE4 JUMPI PUSH1 0x0 DUP1 REVERT JUMPDEST POP JUMP JUMPDEST PUSH1 0x80 MLOAD PUSH1 0x60 SHR PUSH1 0xA0 MLOAD PUSH2 0x39C PUSH2 0x10E PUSH1 0x0 CODECOPY PUSH1 0x0 PUSH2 0x10C ADD MSTORE PUSH1 0x0 PUSH1 0xE2 ADD MSTORE PUSH2 0x39C PUSH1 0x0 RETURN INVALID PUSH1 0x80 PUSH1 0x40 MSTORE CALLVALUE DUP1 ISZERO PUSH2 0x10 JUMPI PUSH1 0x0 DUP1 REVERT JUMPDEST POP PUSH1 0x4 CALLDATASIZE LT PUSH2 0x4C JUMPI PUSH1 0x0 CALLDATALOAD PUSH1 0xE0 SHR DUP1 PUSH4 0x65E17C9D EQ PUSH2 0x51 JUMPI DUP1 PUSH4 0x6BFB0D01 EQ PUSH2 0x6F JUMPI DUP1 PUSH4 0x7FD6F15C EQ PUSH2 0x8D JUMPI DUP1 PUSH4 0xBFB231D2 EQ PUSH2 0xAB JUMPI JUMPDEST PUSH1 0x0 DUP1 REVERT JUMPDEST PUSH2 0x59 PUSH2 0xE0 JUMP JUMPDEST PUSH1 0x40 MLOAD PUSH2 0x66 SWAP2 SWAP1 PUSH2 0x235 JUMP JUMPDEST PUSH1 0x40 MLOAD DUP1 SWAP2 SUB SWAP1 RETURN JUMPDEST PUSH2 0x77 PUSH2 0x104 JUMP JUMPDEST PUSH1 0x40 MLOAD PUSH2 0x84 SWAP2 SWAP1 PUSH2 0x250 JUMP JUMPDEST PUSH1 0x40 MLOAD DUP1 SWAP2 SUB SWAP1 RETURN JUMPDEST PUSH2 0x95 PUSH2 0x10A JUMP JUMPDEST PUSH1 0x40 MLOAD PUSH2 0xA2 SWAP2 SWAP1 PUSH2 0x250 JUMP JUMPDEST PUSH1 0x40 MLOAD DUP1 SWAP2 SUB SWAP1 RETURN JUMPDEST PUSH2 0xC5 PUSH1 0x4 DUP1 CALLDATASIZE SUB DUP2 ADD SWAP1 PUSH2 0xC0 SWAP2 SWAP1 PUSH2 0x1CC JUMP JUMPDEST PUSH2 0x12E JUMP JUMPDEST PUSH1 0x40 MLOAD PUSH2 0xD7 SWAP7 SWAP6 SWAP5 SWAP4 SWAP3 SWAP2 SWAP1 PUSH2 0x26B JUMP JUMPDEST PUSH1 0x40 MLOAD DUP1 SWAP2 SUB SWAP1 RETURN JUMPDEST PUSH32 0x0 DUP2 JUMP JUMPDEST PUSH1 0x1 SLOAD DUP2 JUMP JUMPDEST PUSH32 0x0 DUP2 JUMP JUMPDEST PUSH1 0x2 PUSH1 0x20 MSTORE DUP1 PUSH1 0x0 MSTORE PUSH1 0x40 PUSH1 0x0 KECCAK256 PUSH1 0x0 SWAP2 POP SWAP1 POP DUP1 PUSH1 0x0 ADD SLOAD SWAP1 DUP1 PUSH1 0x1 ADD PUSH1 0x0 SWAP1 SLOAD SWAP1 PUSH2 0x100 EXP SWAP1 DIV PUSH20 0xFFFFFFFFFFFFFFFFFFFFFFFFFFFFFFFFFFFFFFFF AND SWAP1 DUP1 PUSH1 0x2 ADD SLOAD SWAP1 DUP1 PUSH1 0x3 ADD SLOAD SWAP1 DUP1 PUSH1 0x4 ADD PUSH1 0x0 SWAP1 SLOAD SWAP1 PUSH2 0x100 EXP SWAP1 DIV PUSH20 0xFFFFFFFFFFFFFFFFFFFFFFFFFFFFFFFFFFFFFFFF AND SWAP1 DUP1 PUSH1 0x4 ADD PUSH1 0x14 SWAP1 SLOAD SWAP1 PUSH2 0x100 EXP SWAP1 DIV PUSH1 0xFF AND SWAP1 POP DUP7 JUMP JUMPDEST PUSH1 0x0 DUP2 CALLDATALOAD SWAP1 POP PUSH2 0x1C6 DUP2 PUSH2 0x34F JUMP JUMPDEST SWAP3 SWAP2 POP POP JUMP JUMPDEST PUSH1 0x0 PUSH1 0x20 DUP3 DUP5 SUB SLT ISZERO PUSH2 0x1E2 JUMPI PUSH2 0x1E1 PUSH2 0x34A JUMP JUMPDEST JUMPDEST PUSH1 0x0 PUSH2 0x1F0 DUP5 DUP3 DUP6 ADD PUSH2 0x1B7 JUMP JUMPDEST SWAP2 POP POP SWAP3 SWAP2 POP POP JUMP JUMPDEST PUSH2 0x202 DUP2 PUSH2 0x2CC JUMP JUMPDEST DUP3 MSTORE POP POP JUMP JUMPDEST PUSH2 0x211 DUP2 PUSH2 0x2DE JUMP JUMPDEST DUP3 MSTORE POP POP JUMP JUMPDEST PUSH2 0x220 DUP2 PUSH2 0x314 JUMP JUMPDEST DUP3 MSTORE POP POP JUMP JUMPDEST PUSH2 0x22F DUP2 PUSH2 0x30A JUMP JUMPDEST DUP3 MSTORE POP POP JUMP JUMPDEST PUSH1 0x0 PUSH1 0x20 DUP3 ADD SWAP1 POP PUSH2 0x24A PUSH1 0x0 DUP4 ADD DUP5 PUSH2 0x1F9 JUMP JUMPDEST SWAP3 SWAP2 POP POP JUMP JUMPDEST PUSH1 0x0 PUSH1 0x20 DUP3 ADD SWAP1 POP PUSH2 0x265 PUSH1 0x0 DUP4 ADD DUP5 PUSH2 0x226 JUMP JUMPDEST SWAP3 SWAP2 POP POP JUMP JUMPDEST PUSH1 0x0 PUSH1 0xC0 DUP3 ADD SWAP1 POP PUSH2 0x280 PUSH1 0x0 DUP4 ADD DUP10 PUSH2 0x226 JUMP JUMPDEST PUSH2 0x28D PUSH1 0x20 DUP4 ADD DUP9 PUSH2 0x217 JUMP JUMPDEST PUSH2 0x29A PUSH1 0x40 DUP4 ADD DUP8 PUSH2 0x226 JUMP JUMPDEST PUSH2 0x2A7 PUSH1 0x60 DUP4 ADD DUP7 PUSH2 0x226 JUMP JUMPDEST PUSH2 0x2B4 PUSH1 0x80 DUP4 ADD DUP6 PUSH2 0x1F9 JUMP JUMPDEST PUSH2 0x2C1 PUSH1 0xA0 DUP4 ADD DUP5 PUSH2 0x208 JUMP JUMPDEST SWAP8 SWAP7 POP POP POP POP POP POP POP JUMP JUMPDEST PUSH1 0x0 PUSH2 0x2D7 DUP3 PUSH2 0x2EA JUMP JUMPDEST SWAP1 POP SWAP2 SWAP1 POP JUMP JUMPDEST PUSH1 0x0 DUP2 ISZERO ISZERO SWAP1 POP SWAP2 SWAP1 POP JUMP JUMPDEST PUSH1 0x0 PUSH20 0xFFFFFFFFFFFFFFFFFFFFFFFFFFFFFFFFFFFFFFFF DUP3 AND SWAP1 POP SWAP2 SWAP1 POP JUMP JUMPDEST PUSH1 0x0 DUP2 SWAP1 POP SWAP2 SWAP1 POP JUMP JUMPDEST PUSH1 0x0 PUSH2 0x31F DUP3 PUSH2 0x326 JUMP JUMPDEST SWAP1 POP SWAP2 SWAP1 POP JUMP JUMPDEST PUSH1 0x0 PUSH2 0x331 DUP3 PUSH2 0x338 JUMP JUMPDEST SWAP1 POP SWAP2 SWAP1 POP JUMP JUMPDEST PUSH1 0x0 PUSH2 0x343 DUP3 PUSH2 0x2EA JUMP JUMPDEST SWAP1 POP SWAP2 SWAP1 POP JUMP JUMPDEST PUSH1 0x0 DUP1 REVERT JUMPDEST PUSH2 0x358 DUP2 PUSH2 0x30A JUMP JUMPDEST DUP2 EQ PUSH2 0x363 JUMPI PUSH1 0x0 DUP1 REVERT JUMPDEST POP JUMP INVALID LOG2 PUSH5 0x6970667358 0x22 SLT KECCAK256 DUP10 INVALID 0xC5 MSTORE SWAP2 RETURNDATACOPY EXTCODECOPY EXTCODEHASH LOG2 SGT 0x1F 0xCB PC PUSH30 0x8F09D73BE55A8A575B93881DE06FF2ED6E7A64736F6C6343000807003300 "
				},
				"gasEstimates": {
					"creation": {
						"codeDepositCost": "184800",
						"executionCost": "infinite",
						"totalCost": "infinite"
					},
					"external": {
						"feeAccount()": "infinite",
						"feePercent()": "infinite",
						"itemCount()": "2429",
						"items(uint256)": "infinite"
					}
				},
				"methodIdentifiers": {
					"feeAccount()": "65e17c9d",
					"feePercent()": "7fd6f15c",
					"itemCount()": "6bfb0d01",
					"items(uint256)": "bfb231d2"
				}
			},
			"storageLayout": {
				"storage": [
					{
						"astId": 10,
						"contract": "Marketplace/Marketplace.sol:Marketplace",
						"label": "_status",
						"offset": 0,
						"slot": "0",
						"type": "t_uint256"
					},
					{
						"astId": 179,
						"contract": "Marketplace/Marketplace.sol:Marketplace",
						"label": "itemCount",
						"offset": 0,
						"slot": "1",
						"type": "t_uint256"
					},
					{
						"astId": 198,
						"contract": "Marketplace/Marketplace.sol:Marketplace",
						"label": "items",
						"offset": 0,
						"slot": "2",
						"type": "t_mapping(t_uint256,t_struct(Item)193_storage)"
					}
				],
				"types": {
					"t_address_payable": {
						"encoding": "inplace",
						"label": "address payable",
						"numberOfBytes": "20"
					},
					"t_bool": {
						"encoding": "inplace",
						"label": "bool",
						"numberOfBytes": "1"
					},
					"t_contract(IERC721)155": {
						"encoding": "inplace",
						"label": "contract IERC721",
						"numberOfBytes": "20"
					},
					"t_mapping(t_uint256,t_struct(Item)193_storage)": {
						"encoding": "mapping",
						"key": "t_uint256",
						"label": "mapping(uint256 => struct Marketplace.Item)",
						"numberOfBytes": "32",
						"value": "t_struct(Item)193_storage"
					},
					"t_struct(Item)193_storage": {
						"encoding": "inplace",
						"label": "struct Marketplace.Item",
						"members": [
							{
								"astId": 181,
								"contract": "Marketplace/Marketplace.sol:Marketplace",
								"label": "itemId",
								"offset": 0,
								"slot": "0",
								"type": "t_uint256"
							},
							{
								"astId": 184,
								"contract": "Marketplace/Marketplace.sol:Marketplace",
								"label": "nft",
								"offset": 0,
								"slot": "1",
								"type": "t_contract(IERC721)155"
							},
							{
								"astId": 186,
								"contract": "Marketplace/Marketplace.sol:Marketplace",
								"label": "tokenId",
								"offset": 0,
								"slot": "2",
								"type": "t_uint256"
							},
							{
								"astId": 188,
								"contract": "Marketplace/Marketplace.sol:Marketplace",
								"label": "price",
								"offset": 0,
								"slot": "3",
								"type": "t_uint256"
							},
							{
								"astId": 190,
								"contract": "Marketplace/Marketplace.sol:Marketplace",
								"label": "seller",
								"offset": 0,
								"slot": "4",
								"type": "t_address_payable"
							},
							{
								"astId": 192,
								"contract": "Marketplace/Marketplace.sol:Marketplace",
								"label": "sold",
								"offset": 20,
								"slot": "4",
								"type": "t_bool"
							}
						],
						"numberOfBytes": "160"
					},
					"t_uint256": {
						"encoding": "inplace",
						"label": "uint256",
						"numberOfBytes": "32"
					}
				}
			},
			"userdoc": {
				"kind": "user",
				"methods": {},
				"version": 1
			}
		}
	}
}