{
	"Marketplace/Marketplace.sol": {
		"Marketplace": {
			"abi": [
				{
					"inputs": [
						{
							"internalType": "uint256",
							"name": "_feePercent",
							"type": "uint256"
						}
					],
					"stateMutability": "nonpayable",
					"type": "constructor"
				},
				{
					"anonymous": false,
					"inputs": [
						{
							"indexed": false,
							"internalType": "uint256",
							"name": "itemId",
							"type": "uint256"
						},
						{
							"indexed": true,
							"internalType": "address",
							"name": "nft",
							"type": "address"
						},
						{
							"indexed": false,
							"internalType": "uint256",
							"name": "tokenId",
							"type": "uint256"
						},
						{
							"indexed": false,
							"internalType": "uint256",
							"name": "price",
							"type": "uint256"
						},
						{
							"indexed": true,
							"internalType": "address",
							"name": "seller",
							"type": "address"
						},
						{
							"indexed": true,
							"internalType": "address",
							"name": "buyer",
							"type": "address"
						}
					],
					"name": "Bougth",
					"type": "event"
				},
				{
					"anonymous": false,
					"inputs": [
						{
							"indexed": false,
							"internalType": "uint256",
							"name": "itemId",
							"type": "uint256"
						},
						{
							"indexed": true,
							"internalType": "address",
							"name": "nft",
							"type": "address"
						},
						{
							"indexed": false,
							"internalType": "uint256",
							"name": "tokenId",
							"type": "uint256"
						},
						{
							"indexed": false,
							"internalType": "uint256",
							"name": "price",
							"type": "uint256"
						},
						{
							"indexed": true,
							"internalType": "address",
							"name": "seller",
							"type": "address"
						}
					],
					"name": "Offered",
					"type": "event"
				},
				{
					"inputs": [],
					"name": "feeAccount",
					"outputs": [
						{
							"internalType": "address payable",
							"name": "",
							"type": "address"
						}
					],
					"stateMutability": "view",
					"type": "function"
				},
				{
					"inputs": [],
					"name": "feePercent",
					"outputs": [
						{
							"internalType": "uint256",
							"name": "",
							"type": "uint256"
						}
					],
					"stateMutability": "view",
					"type": "function"
				},
				{
					"inputs": [],
					"name": "itemCount",
					"outputs": [
						{
							"internalType": "uint256",
							"name": "",
							"type": "uint256"
						}
					],
					"stateMutability": "view",
					"type": "function"
				},
				{
					"inputs": [
						{
							"internalType": "uint256",
							"name": "",
							"type": "uint256"
						}
					],
					"name": "items",
					"outputs": [
						{
							"internalType": "uint256",
							"name": "itemId",
							"type": "uint256"
						},
						{
							"internalType": "contract IERC721",
							"name": "nft",
							"type": "address"
						},
						{
							"internalType": "uint256",
							"name": "tokenId",
							"type": "uint256"
						},
						{
							"internalType": "uint256",
							"name": "price",
							"type": "uint256"
						},
						{
							"internalType": "address payable",
							"name": "seller",
							"type": "address"
						},
						{
							"internalType": "bool",
							"name": "sold",
							"type": "bool"
						}
					],
					"stateMutability": "view",
					"type": "function"
				},
				{
					"inputs": [
						{
							"internalType": "contract IERC721",
							"name": "_nft",
							"type": "address"
						},
						{
							"internalType": "uint256",
							"name": "_tokenId",
							"type": "uint256"
						},
						{
							"internalType": "uint256",
							"name": "_price",
							"type": "uint256"
						}
					],
					"name": "makeItem",
					"outputs": [],
					"stateMutability": "nonpayable",
					"type": "function"
				}
			],
			"devdoc": {
				"kind": "dev",
				"methods": {},
				"version": 1
			},
			"evm": {
				"assembly": "    /* \"Marketplace/Marketplace.sol\":198:1207  contract Marketplace is ReentrancyGuard {\r... */\n  mstore(0x40, 0xc0)\n    /* \"Marketplace/Marketplace.sol\":937:1054  constructor (uint _feePercent) {\r... */\n  callvalue\n  dup1\n  iszero\n  tag_1\n  jumpi\n  0x00\n  dup1\n  revert\ntag_1:\n  pop\n  mload(0x40)\n  sub(codesize, bytecodeSize)\n  dup1\n  bytecodeSize\n  dup4\n  codecopy\n  dup2\n  dup2\n  add\n  0x40\n  mstore\n  dup2\n  add\n  swap1\n  tag_2\n  swap2\n  swap1\n  tag_3\n  jump\t// in\ntag_2:\n    /* \"@openzeppelin/contracts@4.6.0/security/ReentrancyGuard.sol\":1701:1702  1 */\n  0x01\n    /* \"@openzeppelin/contracts@4.6.0/security/ReentrancyGuard.sol\":1806:1813  _status */\n  0x00\n    /* \"@openzeppelin/contracts@4.6.0/security/ReentrancyGuard.sol\":1806:1828  _status = _NOT_ENTERED */\n  dup2\n  swap1\n  sstore\n  pop\n    /* \"Marketplace/Marketplace.sol\":1000:1010  msg.sender */\n  caller\n    /* \"Marketplace/Marketplace.sol\":979:1011  feeAccount = payable(msg.sender) */\n  0xffffffffffffffffffffffffffffffffffffffff\n  and\n  0x80\n  dup2\n  0xffffffffffffffffffffffffffffffffffffffff\n  and\n  0x60\n  shl\n  dup2\n  mstore\n  pop\n  pop\n    /* \"Marketplace/Marketplace.sol\":1035:1046  _feePercent */\n  dup1\n    /* \"Marketplace/Marketplace.sol\":1022:1046  feePercent = _feePercent */\n  0xa0\n  dup2\n  dup2\n  mstore\n  pop\n  pop\n    /* \"Marketplace/Marketplace.sol\":937:1054  constructor (uint _feePercent) {\r... */\n  pop\n    /* \"Marketplace/Marketplace.sol\":198:1207  contract Marketplace is ReentrancyGuard {\r... */\n  jump(tag_8)\n    /* \"#utility.yul\":7:150   */\ntag_10:\n    /* \"#utility.yul\":64:69   */\n  0x00\n    /* \"#utility.yul\":95:101   */\n  dup2\n    /* \"#utility.yul\":89:102   */\n  mload\n    /* \"#utility.yul\":80:102   */\n  swap1\n  pop\n    /* \"#utility.yul\":111:144   */\n  tag_12\n    /* \"#utility.yul\":138:143   */\n  dup2\n    /* \"#utility.yul\":111:144   */\n  tag_13\n  jump\t// in\ntag_12:\n    /* \"#utility.yul\":7:150   */\n  swap3\n  swap2\n  pop\n  pop\n  jump\t// out\n    /* \"#utility.yul\":156:507   */\ntag_3:\n    /* \"#utility.yul\":226:232   */\n  0x00\n    /* \"#utility.yul\":275:277   */\n  0x20\n    /* \"#utility.yul\":263:272   */\n  dup3\n    /* \"#utility.yul\":254:261   */\n  dup5\n    /* \"#utility.yul\":250:273   */\n  sub\n    /* \"#utility.yul\":246:278   */\n  slt\n    /* \"#utility.yul\":243:362   */\n  iszero\n  tag_15\n  jumpi\n    /* \"#utility.yul\":281:360   */\n  tag_16\n  tag_17\n  jump\t// in\ntag_16:\n    /* \"#utility.yul\":243:362   */\ntag_15:\n    /* \"#utility.yul\":401:402   */\n  0x00\n    /* \"#utility.yul\":426:490   */\n  tag_18\n    /* \"#utility.yul\":482:489   */\n  dup5\n    /* \"#utility.yul\":473:479   */\n  dup3\n    /* \"#utility.yul\":462:471   */\n  dup6\n    /* \"#utility.yul\":458:480   */\n  add\n    /* \"#utility.yul\":426:490   */\n  tag_10\n  jump\t// in\ntag_18:\n    /* \"#utility.yul\":416:490   */\n  swap2\n  pop\n    /* \"#utility.yul\":372:500   */\n  pop\n    /* \"#utility.yul\":156:507   */\n  swap3\n  swap2\n  pop\n  pop\n  jump\t// out\n    /* \"#utility.yul\":594:671   */\ntag_21:\n    /* \"#utility.yul\":631:638   */\n  0x00\n    /* \"#utility.yul\":660:665   */\n  dup2\n    /* \"#utility.yul\":649:665   */\n  swap1\n  pop\n    /* \"#utility.yul\":594:671   */\n  swap2\n  swap1\n  pop\n  jump\t// out\n    /* \"#utility.yul\":800:917   */\ntag_17:\n    /* \"#utility.yul\":909:910   */\n  0x00\n    /* \"#utility.yul\":906:907   */\n  dup1\n    /* \"#utility.yul\":899:911   */\n  revert\n    /* \"#utility.yul\":923:1045   */\ntag_13:\n    /* \"#utility.yul\":996:1020   */\n  tag_27\n    /* \"#utility.yul\":1014:1019   */\n  dup2\n    /* \"#utility.yul\":996:1020   */\n  tag_21\n  jump\t// in\ntag_27:\n    /* \"#utility.yul\":989:994   */\n  dup2\n    /* \"#utility.yul\":986:1021   */\n  eq\n    /* \"#utility.yul\":976:1039   */\n  tag_28\n  jumpi\n    /* \"#utility.yul\":1035:1036   */\n  0x00\n    /* \"#utility.yul\":1032:1033   */\n  dup1\n    /* \"#utility.yul\":1025:1037   */\n  revert\n    /* \"#utility.yul\":976:1039   */\ntag_28:\n    /* \"#utility.yul\":923:1045   */\n  pop\n  jump\t// out\n    /* \"Marketplace/Marketplace.sol\":198:1207  contract Marketplace is ReentrancyGuard {\r... */\ntag_8:\n  shr(0x60, mload(0x80))\n  mload(0xa0)\n  codecopy(0x00, dataOffset(sub_0), dataSize(sub_0))\n  0x00\n  assignImmutable(\"0xca1c98d2cee18ab5da51a9df7bbf45ca91ab83c708e48aed82f5115320306ab4\")\n  0x00\n  assignImmutable(\"0x9abd569a0444be7ce52d46a7fb79009940c0c0442116f15017290ff13cb4450c\")\n  return(0x00, dataSize(sub_0))\nstop\n\nsub_0: assembly {\n        /* \"Marketplace/Marketplace.sol\":198:1207  contract Marketplace is ReentrancyGuard {\r... */\n      mstore(0x40, 0x80)\n      callvalue\n      dup1\n      iszero\n      tag_1\n      jumpi\n      0x00\n      dup1\n      revert\n    tag_1:\n      pop\n      jumpi(tag_2, lt(calldatasize, 0x04))\n      shr(0xe0, calldataload(0x00))\n      dup1\n      0x65e17c9d\n      eq\n      tag_3\n      jumpi\n      dup1\n      0x6bfb0d01\n      eq\n      tag_4\n      jumpi\n      dup1\n      0x7fd6f15c\n      eq\n      tag_5\n      jumpi\n      dup1\n      0xbfb231d2\n      eq\n      tag_6\n      jumpi\n      dup1\n      0xfa00afc7\n      eq\n      tag_7\n      jumpi\n    tag_2:\n      0x00\n      dup1\n      revert\n        /* \"Marketplace/Marketplace.sol\":251:294  address payable public immutable feeAccount */\n    tag_3:\n      tag_8\n      tag_9\n      jump\t// in\n    tag_8:\n      mload(0x40)\n      tag_10\n      swap2\n      swap1\n      tag_11\n      jump\t// in\n    tag_10:\n      mload(0x40)\n      dup1\n      swap2\n      sub\n      swap1\n      return\n        /* \"Marketplace/Marketplace.sol\":340:361  uint public itemCount */\n    tag_4:\n      tag_12\n      tag_13\n      jump\t// in\n    tag_12:\n      mload(0x40)\n      tag_14\n      swap2\n      swap1\n      tag_15\n      jump\t// in\n    tag_14:\n      mload(0x40)\n      dup1\n      swap2\n      sub\n      swap1\n      return\n        /* \"Marketplace/Marketplace.sol\":301:333  uint public immutable feePercent */\n    tag_5:\n      tag_16\n      tag_17\n      jump\t// in\n    tag_16:\n      mload(0x40)\n      tag_18\n      swap2\n      swap1\n      tag_15\n      jump\t// in\n    tag_18:\n      mload(0x40)\n      dup1\n      swap2\n      sub\n      swap1\n      return\n        /* \"Marketplace/Marketplace.sol\":547:581  mapping(uint => Item) public items */\n    tag_6:\n      tag_19\n      0x04\n      dup1\n      calldatasize\n      sub\n      dup2\n      add\n      swap1\n      tag_20\n      swap2\n      swap1\n      tag_21\n      jump\t// in\n    tag_20:\n      tag_22\n      jump\t// in\n    tag_19:\n      mload(0x40)\n      tag_23\n      swap7\n      swap6\n      swap5\n      swap4\n      swap3\n      swap2\n      swap1\n      tag_24\n      jump\t// in\n    tag_23:\n      mload(0x40)\n      dup1\n      swap2\n      sub\n      swap1\n      return\n        /* \"Marketplace/Marketplace.sol\":1062:1204  function makeItem(IERC721 _nft, uint _tokenId, uint _price) external nonReentrant {\r... */\n    tag_7:\n      tag_25\n      0x04\n      dup1\n      calldatasize\n      sub\n      dup2\n      add\n      swap1\n      tag_26\n      swap2\n      swap1\n      tag_27\n      jump\t// in\n    tag_26:\n      tag_28\n      jump\t// in\n    tag_25:\n      stop\n        /* \"Marketplace/Marketplace.sol\":251:294  address payable public immutable feeAccount */\n    tag_9:\n      immutable(\"0x9abd569a0444be7ce52d46a7fb79009940c0c0442116f15017290ff13cb4450c\")\n      dup2\n      jump\t// out\n        /* \"Marketplace/Marketplace.sol\":340:361  uint public itemCount */\n    tag_13:\n      sload(0x01)\n      dup2\n      jump\t// out\n        /* \"Marketplace/Marketplace.sol\":301:333  uint public immutable feePercent */\n    tag_17:\n      immutable(\"0xca1c98d2cee18ab5da51a9df7bbf45ca91ab83c708e48aed82f5115320306ab4\")\n      dup2\n      jump\t// out\n        /* \"Marketplace/Marketplace.sol\":547:581  mapping(uint => Item) public items */\n    tag_22:\n      mstore(0x20, 0x02)\n      dup1\n      0x00\n      mstore\n      keccak256(0x00, 0x40)\n      0x00\n      swap2\n      pop\n      swap1\n      pop\n      dup1\n      0x00\n      add\n      sload\n      swap1\n      dup1\n      0x01\n      add\n      0x00\n      swap1\n      sload\n      swap1\n      0x0100\n      exp\n      swap1\n      div\n      0xffffffffffffffffffffffffffffffffffffffff\n      and\n      swap1\n      dup1\n      0x02\n      add\n      sload\n      swap1\n      dup1\n      0x03\n      add\n      sload\n      swap1\n      dup1\n      0x04\n      add\n      0x00\n      swap1\n      sload\n      swap1\n      0x0100\n      exp\n      swap1\n      div\n      0xffffffffffffffffffffffffffffffffffffffff\n      and\n      swap1\n      dup1\n      0x04\n      add\n      0x14\n      swap1\n      sload\n      swap1\n      0x0100\n      exp\n      swap1\n      div\n      0xff\n      and\n      swap1\n      pop\n      dup7\n      jump\t// out\n        /* \"Marketplace/Marketplace.sol\":1062:1204  function makeItem(IERC721 _nft, uint _tokenId, uint _price) external nonReentrant {\r... */\n    tag_28:\n        /* \"@openzeppelin/contracts@4.6.0/security/ReentrancyGuard.sol\":1744:1745  2 */\n      0x02\n        /* \"@openzeppelin/contracts@4.6.0/security/ReentrancyGuard.sol\":2325:2332  _status */\n      sload(0x00)\n        /* \"@openzeppelin/contracts@4.6.0/security/ReentrancyGuard.sol\":2325:2344  _status != _ENTERED */\n      eq\n      iszero\n        /* \"@openzeppelin/contracts@4.6.0/security/ReentrancyGuard.sol\":2317:2380  require(_status != _ENTERED, \"ReentrancyGuard: reentrant call\") */\n      tag_30\n      jumpi\n      mload(0x40)\n      0x08c379a000000000000000000000000000000000000000000000000000000000\n      dup2\n      mstore\n      0x04\n      add\n      tag_31\n      swap1\n      tag_32\n      jump\t// in\n    tag_31:\n      mload(0x40)\n      dup1\n      swap2\n      sub\n      swap1\n      revert\n    tag_30:\n        /* \"@openzeppelin/contracts@4.6.0/security/ReentrancyGuard.sol\":1744:1745  2 */\n      0x02\n        /* \"@openzeppelin/contracts@4.6.0/security/ReentrancyGuard.sol\":2455:2462  _status */\n      0x00\n        /* \"@openzeppelin/contracts@4.6.0/security/ReentrancyGuard.sol\":2455:2473  _status = _ENTERED */\n      dup2\n      swap1\n      sstore\n      pop\n        /* \"Marketplace/Marketplace.sol\":1172:1173  0 */\n      0x00\n        /* \"Marketplace/Marketplace.sol\":1163:1169  _price */\n      dup2\n        /* \"Marketplace/Marketplace.sol\":1163:1173  _price > 0 */\n      gt\n        /* \"Marketplace/Marketplace.sol\":1155:1174  require(_price > 0) */\n      tag_34\n      jumpi\n      0x00\n      dup1\n      revert\n    tag_34:\n        /* \"Marketplace/Marketplace.sol\":1185:1194  itemCount */\n      0x01\n      0x00\n        /* \"Marketplace/Marketplace.sol\":1185:1196  itemCount++ */\n      dup2\n      sload\n      dup1\n      swap3\n      swap2\n      swap1\n      tag_35\n      swap1\n      tag_36\n      jump\t// in\n    tag_35:\n      swap2\n      swap1\n      pop\n      sstore\n      pop\n        /* \"@openzeppelin/contracts@4.6.0/security/ReentrancyGuard.sol\":1701:1702  1 */\n      0x01\n        /* \"@openzeppelin/contracts@4.6.0/security/ReentrancyGuard.sol\":2628:2635  _status */\n      0x00\n        /* \"@openzeppelin/contracts@4.6.0/security/ReentrancyGuard.sol\":2628:2650  _status = _NOT_ENTERED */\n      dup2\n      swap1\n      sstore\n      pop\n        /* \"Marketplace/Marketplace.sol\":1062:1204  function makeItem(IERC721 _nft, uint _tokenId, uint _price) external nonReentrant {\r... */\n      pop\n      pop\n      pop\n      jump\t// out\n        /* \"#utility.yul\":7:176   */\n    tag_38:\n        /* \"#utility.yul\":68:73   */\n      0x00\n        /* \"#utility.yul\":106:112   */\n      dup2\n        /* \"#utility.yul\":93:113   */\n      calldataload\n        /* \"#utility.yul\":84:113   */\n      swap1\n      pop\n        /* \"#utility.yul\":122:170   */\n      tag_40\n        /* \"#utility.yul\":164:169   */\n      dup2\n        /* \"#utility.yul\":122:170   */\n      tag_41\n      jump\t// in\n    tag_40:\n        /* \"#utility.yul\":7:176   */\n      swap3\n      swap2\n      pop\n      pop\n      jump\t// out\n        /* \"#utility.yul\":182:321   */\n    tag_42:\n        /* \"#utility.yul\":228:233   */\n      0x00\n        /* \"#utility.yul\":266:272   */\n      dup2\n        /* \"#utility.yul\":253:273   */\n      calldataload\n        /* \"#utility.yul\":244:273   */\n      swap1\n      pop\n        /* \"#utility.yul\":282:315   */\n      tag_44\n        /* \"#utility.yul\":309:314   */\n      dup2\n        /* \"#utility.yul\":282:315   */\n      tag_45\n      jump\t// in\n    tag_44:\n        /* \"#utility.yul\":182:321   */\n      swap3\n      swap2\n      pop\n      pop\n      jump\t// out\n        /* \"#utility.yul\":327:976   */\n    tag_27:\n        /* \"#utility.yul\":419:425   */\n      0x00\n        /* \"#utility.yul\":427:433   */\n      dup1\n        /* \"#utility.yul\":435:441   */\n      0x00\n        /* \"#utility.yul\":484:486   */\n      0x60\n        /* \"#utility.yul\":472:481   */\n      dup5\n        /* \"#utility.yul\":463:470   */\n      dup7\n        /* \"#utility.yul\":459:482   */\n      sub\n        /* \"#utility.yul\":455:487   */\n      slt\n        /* \"#utility.yul\":452:571   */\n      iszero\n      tag_47\n      jumpi\n        /* \"#utility.yul\":490:569   */\n      tag_48\n      tag_49\n      jump\t// in\n    tag_48:\n        /* \"#utility.yul\":452:571   */\n    tag_47:\n        /* \"#utility.yul\":610:611   */\n      0x00\n        /* \"#utility.yul\":635:703   */\n      tag_50\n        /* \"#utility.yul\":695:702   */\n      dup7\n        /* \"#utility.yul\":686:692   */\n      dup3\n        /* \"#utility.yul\":675:684   */\n      dup8\n        /* \"#utility.yul\":671:693   */\n      add\n        /* \"#utility.yul\":635:703   */\n      tag_38\n      jump\t// in\n    tag_50:\n        /* \"#utility.yul\":625:703   */\n      swap4\n      pop\n        /* \"#utility.yul\":581:713   */\n      pop\n        /* \"#utility.yul\":752:754   */\n      0x20\n        /* \"#utility.yul\":778:831   */\n      tag_51\n        /* \"#utility.yul\":823:830   */\n      dup7\n        /* \"#utility.yul\":814:820   */\n      dup3\n        /* \"#utility.yul\":803:812   */\n      dup8\n        /* \"#utility.yul\":799:821   */\n      add\n        /* \"#utility.yul\":778:831   */\n      tag_42\n      jump\t// in\n    tag_51:\n        /* \"#utility.yul\":768:831   */\n      swap3\n      pop\n        /* \"#utility.yul\":723:841   */\n      pop\n        /* \"#utility.yul\":880:882   */\n      0x40\n        /* \"#utility.yul\":906:959   */\n      tag_52\n        /* \"#utility.yul\":951:958   */\n      dup7\n        /* \"#utility.yul\":942:948   */\n      dup3\n        /* \"#utility.yul\":931:940   */\n      dup8\n        /* \"#utility.yul\":927:949   */\n      add\n        /* \"#utility.yul\":906:959   */\n      tag_42\n      jump\t// in\n    tag_52:\n        /* \"#utility.yul\":896:959   */\n      swap2\n      pop\n        /* \"#utility.yul\":851:969   */\n      pop\n        /* \"#utility.yul\":327:976   */\n      swap3\n      pop\n      swap3\n      pop\n      swap3\n      jump\t// out\n        /* \"#utility.yul\":982:1311   */\n    tag_21:\n        /* \"#utility.yul\":1041:1047   */\n      0x00\n        /* \"#utility.yul\":1090:1092   */\n      0x20\n        /* \"#utility.yul\":1078:1087   */\n      dup3\n        /* \"#utility.yul\":1069:1076   */\n      dup5\n        /* \"#utility.yul\":1065:1088   */\n      sub\n        /* \"#utility.yul\":1061:1093   */\n      slt\n        /* \"#utility.yul\":1058:1177   */\n      iszero\n      tag_54\n      jumpi\n        /* \"#utility.yul\":1096:1175   */\n      tag_55\n      tag_49\n      jump\t// in\n    tag_55:\n        /* \"#utility.yul\":1058:1177   */\n    tag_54:\n        /* \"#utility.yul\":1216:1217   */\n      0x00\n        /* \"#utility.yul\":1241:1294   */\n      tag_56\n        /* \"#utility.yul\":1286:1293   */\n      dup5\n        /* \"#utility.yul\":1277:1283   */\n      dup3\n        /* \"#utility.yul\":1266:1275   */\n      dup6\n        /* \"#utility.yul\":1262:1284   */\n      add\n        /* \"#utility.yul\":1241:1294   */\n      tag_42\n      jump\t// in\n    tag_56:\n        /* \"#utility.yul\":1231:1294   */\n      swap2\n      pop\n        /* \"#utility.yul\":1187:1304   */\n      pop\n        /* \"#utility.yul\":982:1311   */\n      swap3\n      swap2\n      pop\n      pop\n      jump\t// out\n        /* \"#utility.yul\":1317:1459   */\n    tag_57:\n        /* \"#utility.yul\":1420:1452   */\n      tag_59\n        /* \"#utility.yul\":1446:1451   */\n      dup2\n        /* \"#utility.yul\":1420:1452   */\n      tag_60\n      jump\t// in\n    tag_59:\n        /* \"#utility.yul\":1415:1418   */\n      dup3\n        /* \"#utility.yul\":1408:1453   */\n      mstore\n        /* \"#utility.yul\":1317:1459   */\n      pop\n      pop\n      jump\t// out\n        /* \"#utility.yul\":1465:1574   */\n    tag_61:\n        /* \"#utility.yul\":1546:1567   */\n      tag_63\n        /* \"#utility.yul\":1561:1566   */\n      dup2\n        /* \"#utility.yul\":1546:1567   */\n      tag_64\n      jump\t// in\n    tag_63:\n        /* \"#utility.yul\":1541:1544   */\n      dup3\n        /* \"#utility.yul\":1534:1568   */\n      mstore\n        /* \"#utility.yul\":1465:1574   */\n      pop\n      pop\n      jump\t// out\n        /* \"#utility.yul\":1580:1741   */\n    tag_65:\n        /* \"#utility.yul\":1682:1734   */\n      tag_67\n        /* \"#utility.yul\":1728:1733   */\n      dup2\n        /* \"#utility.yul\":1682:1734   */\n      tag_68\n      jump\t// in\n    tag_67:\n        /* \"#utility.yul\":1677:1680   */\n      dup3\n        /* \"#utility.yul\":1670:1735   */\n      mstore\n        /* \"#utility.yul\":1580:1741   */\n      pop\n      pop\n      jump\t// out\n        /* \"#utility.yul\":1747:2113   */\n    tag_69:\n        /* \"#utility.yul\":1889:1892   */\n      0x00\n        /* \"#utility.yul\":1910:1977   */\n      tag_71\n        /* \"#utility.yul\":1974:1976   */\n      0x1f\n        /* \"#utility.yul\":1969:1972   */\n      dup4\n        /* \"#utility.yul\":1910:1977   */\n      tag_72\n      jump\t// in\n    tag_71:\n        /* \"#utility.yul\":1903:1977   */\n      swap2\n      pop\n        /* \"#utility.yul\":1986:2079   */\n      tag_73\n        /* \"#utility.yul\":2075:2078   */\n      dup3\n        /* \"#utility.yul\":1986:2079   */\n      tag_74\n      jump\t// in\n    tag_73:\n        /* \"#utility.yul\":2104:2106   */\n      0x20\n        /* \"#utility.yul\":2099:2102   */\n      dup3\n        /* \"#utility.yul\":2095:2107   */\n      add\n        /* \"#utility.yul\":2088:2107   */\n      swap1\n      pop\n        /* \"#utility.yul\":1747:2113   */\n      swap2\n      swap1\n      pop\n      jump\t// out\n        /* \"#utility.yul\":2119:2237   */\n    tag_75:\n        /* \"#utility.yul\":2206:2230   */\n      tag_77\n        /* \"#utility.yul\":2224:2229   */\n      dup2\n        /* \"#utility.yul\":2206:2230   */\n      tag_78\n      jump\t// in\n    tag_77:\n        /* \"#utility.yul\":2201:2204   */\n      dup3\n        /* \"#utility.yul\":2194:2231   */\n      mstore\n        /* \"#utility.yul\":2119:2237   */\n      pop\n      pop\n      jump\t// out\n        /* \"#utility.yul\":2243:2497   */\n    tag_11:\n        /* \"#utility.yul\":2352:2356   */\n      0x00\n        /* \"#utility.yul\":2390:2392   */\n      0x20\n        /* \"#utility.yul\":2379:2388   */\n      dup3\n        /* \"#utility.yul\":2375:2393   */\n      add\n        /* \"#utility.yul\":2367:2393   */\n      swap1\n      pop\n        /* \"#utility.yul\":2403:2490   */\n      tag_80\n        /* \"#utility.yul\":2487:2488   */\n      0x00\n        /* \"#utility.yul\":2476:2485   */\n      dup4\n        /* \"#utility.yul\":2472:2489   */\n      add\n        /* \"#utility.yul\":2463:2469   */\n      dup5\n        /* \"#utility.yul\":2403:2490   */\n      tag_57\n      jump\t// in\n    tag_80:\n        /* \"#utility.yul\":2243:2497   */\n      swap3\n      swap2\n      pop\n      pop\n      jump\t// out\n        /* \"#utility.yul\":2503:2922   */\n    tag_32:\n        /* \"#utility.yul\":2669:2673   */\n      0x00\n        /* \"#utility.yul\":2707:2709   */\n      0x20\n        /* \"#utility.yul\":2696:2705   */\n      dup3\n        /* \"#utility.yul\":2692:2710   */\n      add\n        /* \"#utility.yul\":2684:2710   */\n      swap1\n      pop\n        /* \"#utility.yul\":2756:2765   */\n      dup2\n        /* \"#utility.yul\":2750:2754   */\n      dup2\n        /* \"#utility.yul\":2746:2766   */\n      sub\n        /* \"#utility.yul\":2742:2743   */\n      0x00\n        /* \"#utility.yul\":2731:2740   */\n      dup4\n        /* \"#utility.yul\":2727:2744   */\n      add\n        /* \"#utility.yul\":2720:2767   */\n      mstore\n        /* \"#utility.yul\":2784:2915   */\n      tag_82\n        /* \"#utility.yul\":2910:2914   */\n      dup2\n        /* \"#utility.yul\":2784:2915   */\n      tag_69\n      jump\t// in\n    tag_82:\n        /* \"#utility.yul\":2776:2915   */\n      swap1\n      pop\n        /* \"#utility.yul\":2503:2922   */\n      swap2\n      swap1\n      pop\n      jump\t// out\n        /* \"#utility.yul\":2928:3150   */\n    tag_15:\n        /* \"#utility.yul\":3021:3025   */\n      0x00\n        /* \"#utility.yul\":3059:3061   */\n      0x20\n        /* \"#utility.yul\":3048:3057   */\n      dup3\n        /* \"#utility.yul\":3044:3062   */\n      add\n        /* \"#utility.yul\":3036:3062   */\n      swap1\n      pop\n        /* \"#utility.yul\":3072:3143   */\n      tag_84\n        /* \"#utility.yul\":3140:3141   */\n      0x00\n        /* \"#utility.yul\":3129:3138   */\n      dup4\n        /* \"#utility.yul\":3125:3142   */\n      add\n        /* \"#utility.yul\":3116:3122   */\n      dup5\n        /* \"#utility.yul\":3072:3143   */\n      tag_75\n      jump\t// in\n    tag_84:\n        /* \"#utility.yul\":2928:3150   */\n      swap3\n      swap2\n      pop\n      pop\n      jump\t// out\n        /* \"#utility.yul\":3156:3981   */\n    tag_24:\n        /* \"#utility.yul\":3414:3418   */\n      0x00\n        /* \"#utility.yul\":3452:3455   */\n      0xc0\n        /* \"#utility.yul\":3441:3450   */\n      dup3\n        /* \"#utility.yul\":3437:3456   */\n      add\n        /* \"#utility.yul\":3429:3456   */\n      swap1\n      pop\n        /* \"#utility.yul\":3466:3537   */\n      tag_86\n        /* \"#utility.yul\":3534:3535   */\n      0x00\n        /* \"#utility.yul\":3523:3532   */\n      dup4\n        /* \"#utility.yul\":3519:3536   */\n      add\n        /* \"#utility.yul\":3510:3516   */\n      dup10\n        /* \"#utility.yul\":3466:3537   */\n      tag_75\n      jump\t// in\n    tag_86:\n        /* \"#utility.yul\":3547:3634   */\n      tag_87\n        /* \"#utility.yul\":3630:3632   */\n      0x20\n        /* \"#utility.yul\":3619:3628   */\n      dup4\n        /* \"#utility.yul\":3615:3633   */\n      add\n        /* \"#utility.yul\":3606:3612   */\n      dup9\n        /* \"#utility.yul\":3547:3634   */\n      tag_65\n      jump\t// in\n    tag_87:\n        /* \"#utility.yul\":3644:3716   */\n      tag_88\n        /* \"#utility.yul\":3712:3714   */\n      0x40\n        /* \"#utility.yul\":3701:3710   */\n      dup4\n        /* \"#utility.yul\":3697:3715   */\n      add\n        /* \"#utility.yul\":3688:3694   */\n      dup8\n        /* \"#utility.yul\":3644:3716   */\n      tag_75\n      jump\t// in\n    tag_88:\n        /* \"#utility.yul\":3726:3798   */\n      tag_89\n        /* \"#utility.yul\":3794:3796   */\n      0x60\n        /* \"#utility.yul\":3783:3792   */\n      dup4\n        /* \"#utility.yul\":3779:3797   */\n      add\n        /* \"#utility.yul\":3770:3776   */\n      dup7\n        /* \"#utility.yul\":3726:3798   */\n      tag_75\n      jump\t// in\n    tag_89:\n        /* \"#utility.yul\":3808:3897   */\n      tag_90\n        /* \"#utility.yul\":3892:3895   */\n      0x80\n        /* \"#utility.yul\":3881:3890   */\n      dup4\n        /* \"#utility.yul\":3877:3896   */\n      add\n        /* \"#utility.yul\":3868:3874   */\n      dup6\n        /* \"#utility.yul\":3808:3897   */\n      tag_57\n      jump\t// in\n    tag_90:\n        /* \"#utility.yul\":3907:3974   */\n      tag_91\n        /* \"#utility.yul\":3969:3972   */\n      0xa0\n        /* \"#utility.yul\":3958:3967   */\n      dup4\n        /* \"#utility.yul\":3954:3973   */\n      add\n        /* \"#utility.yul\":3945:3951   */\n      dup5\n        /* \"#utility.yul\":3907:3974   */\n      tag_61\n      jump\t// in\n    tag_91:\n        /* \"#utility.yul\":3156:3981   */\n      swap8\n      swap7\n      pop\n      pop\n      pop\n      pop\n      pop\n      pop\n      pop\n      jump\t// out\n        /* \"#utility.yul\":4068:4237   */\n    tag_72:\n        /* \"#utility.yul\":4152:4163   */\n      0x00\n        /* \"#utility.yul\":4186:4192   */\n      dup3\n        /* \"#utility.yul\":4181:4184   */\n      dup3\n        /* \"#utility.yul\":4174:4193   */\n      mstore\n        /* \"#utility.yul\":4226:4230   */\n      0x20\n        /* \"#utility.yul\":4221:4224   */\n      dup3\n        /* \"#utility.yul\":4217:4231   */\n      add\n        /* \"#utility.yul\":4202:4231   */\n      swap1\n      pop\n        /* \"#utility.yul\":4068:4237   */\n      swap3\n      swap2\n      pop\n      pop\n      jump\t// out\n        /* \"#utility.yul\":4243:4339   */\n    tag_95:\n        /* \"#utility.yul\":4280:4287   */\n      0x00\n        /* \"#utility.yul\":4309:4333   */\n      tag_97\n        /* \"#utility.yul\":4327:4332   */\n      dup3\n        /* \"#utility.yul\":4309:4333   */\n      tag_98\n      jump\t// in\n    tag_97:\n        /* \"#utility.yul\":4298:4333   */\n      swap1\n      pop\n        /* \"#utility.yul\":4243:4339   */\n      swap2\n      swap1\n      pop\n      jump\t// out\n        /* \"#utility.yul\":4345:4449   */\n    tag_60:\n        /* \"#utility.yul\":4390:4397   */\n      0x00\n        /* \"#utility.yul\":4419:4443   */\n      tag_100\n        /* \"#utility.yul\":4437:4442   */\n      dup3\n        /* \"#utility.yul\":4419:4443   */\n      tag_98\n      jump\t// in\n    tag_100:\n        /* \"#utility.yul\":4408:4443   */\n      swap1\n      pop\n        /* \"#utility.yul\":4345:4449   */\n      swap2\n      swap1\n      pop\n      jump\t// out\n        /* \"#utility.yul\":4455:4545   */\n    tag_64:\n        /* \"#utility.yul\":4489:4496   */\n      0x00\n        /* \"#utility.yul\":4532:4537   */\n      dup2\n        /* \"#utility.yul\":4525:4538   */\n      iszero\n        /* \"#utility.yul\":4518:4539   */\n      iszero\n        /* \"#utility.yul\":4507:4539   */\n      swap1\n      pop\n        /* \"#utility.yul\":4455:4545   */\n      swap2\n      swap1\n      pop\n      jump\t// out\n        /* \"#utility.yul\":4551:4662   */\n    tag_102:\n        /* \"#utility.yul\":4603:4610   */\n      0x00\n        /* \"#utility.yul\":4632:4656   */\n      tag_104\n        /* \"#utility.yul\":4650:4655   */\n      dup3\n        /* \"#utility.yul\":4632:4656   */\n      tag_95\n      jump\t// in\n    tag_104:\n        /* \"#utility.yul\":4621:4656   */\n      swap1\n      pop\n        /* \"#utility.yul\":4551:4662   */\n      swap2\n      swap1\n      pop\n      jump\t// out\n        /* \"#utility.yul\":4668:4794   */\n    tag_98:\n        /* \"#utility.yul\":4705:4712   */\n      0x00\n        /* \"#utility.yul\":4745:4787   */\n      0xffffffffffffffffffffffffffffffffffffffff\n        /* \"#utility.yul\":4738:4743   */\n      dup3\n        /* \"#utility.yul\":4734:4788   */\n      and\n        /* \"#utility.yul\":4723:4788   */\n      swap1\n      pop\n        /* \"#utility.yul\":4668:4794   */\n      swap2\n      swap1\n      pop\n      jump\t// out\n        /* \"#utility.yul\":4800:4877   */\n    tag_78:\n        /* \"#utility.yul\":4837:4844   */\n      0x00\n        /* \"#utility.yul\":4866:4871   */\n      dup2\n        /* \"#utility.yul\":4855:4871   */\n      swap1\n      pop\n        /* \"#utility.yul\":4800:4877   */\n      swap2\n      swap1\n      pop\n      jump\t// out\n        /* \"#utility.yul\":4883:5024   */\n    tag_68:\n        /* \"#utility.yul\":4948:4957   */\n      0x00\n        /* \"#utility.yul\":4981:5018   */\n      tag_108\n        /* \"#utility.yul\":5012:5017   */\n      dup3\n        /* \"#utility.yul\":4981:5018   */\n      tag_109\n      jump\t// in\n    tag_108:\n        /* \"#utility.yul\":4968:5018   */\n      swap1\n      pop\n        /* \"#utility.yul\":4883:5024   */\n      swap2\n      swap1\n      pop\n      jump\t// out\n        /* \"#utility.yul\":5030:5156   */\n    tag_109:\n        /* \"#utility.yul\":5080:5089   */\n      0x00\n        /* \"#utility.yul\":5113:5150   */\n      tag_111\n        /* \"#utility.yul\":5144:5149   */\n      dup3\n        /* \"#utility.yul\":5113:5150   */\n      tag_112\n      jump\t// in\n    tag_111:\n        /* \"#utility.yul\":5100:5150   */\n      swap1\n      pop\n        /* \"#utility.yul\":5030:5156   */\n      swap2\n      swap1\n      pop\n      jump\t// out\n        /* \"#utility.yul\":5162:5275   */\n    tag_112:\n        /* \"#utility.yul\":5212:5221   */\n      0x00\n        /* \"#utility.yul\":5245:5269   */\n      tag_114\n        /* \"#utility.yul\":5263:5268   */\n      dup3\n        /* \"#utility.yul\":5245:5269   */\n      tag_98\n      jump\t// in\n    tag_114:\n        /* \"#utility.yul\":5232:5269   */\n      swap1\n      pop\n        /* \"#utility.yul\":5162:5275   */\n      swap2\n      swap1\n      pop\n      jump\t// out\n        /* \"#utility.yul\":5281:5514   */\n    tag_36:\n        /* \"#utility.yul\":5320:5323   */\n      0x00\n        /* \"#utility.yul\":5343:5367   */\n      tag_116\n        /* \"#utility.yul\":5361:5366   */\n      dup3\n        /* \"#utility.yul\":5343:5367   */\n      tag_78\n      jump\t// in\n    tag_116:\n        /* \"#utility.yul\":5334:5367   */\n      swap2\n      pop\n        /* \"#utility.yul\":5389:5455   */\n      0xffffffffffffffffffffffffffffffffffffffffffffffffffffffffffffffff\n        /* \"#utility.yul\":5382:5387   */\n      dup3\n        /* \"#utility.yul\":5379:5456   */\n      eq\n        /* \"#utility.yul\":5376:5479   */\n      iszero\n      tag_117\n      jumpi\n        /* \"#utility.yul\":5459:5477   */\n      tag_118\n      tag_119\n      jump\t// in\n    tag_118:\n        /* \"#utility.yul\":5376:5479   */\n    tag_117:\n        /* \"#utility.yul\":5506:5507   */\n      0x01\n        /* \"#utility.yul\":5499:5504   */\n      dup3\n        /* \"#utility.yul\":5495:5508   */\n      add\n        /* \"#utility.yul\":5488:5508   */\n      swap1\n      pop\n        /* \"#utility.yul\":5281:5514   */\n      swap2\n      swap1\n      pop\n      jump\t// out\n        /* \"#utility.yul\":5520:5700   */\n    tag_119:\n        /* \"#utility.yul\":5568:5645   */\n      0x4e487b7100000000000000000000000000000000000000000000000000000000\n        /* \"#utility.yul\":5565:5566   */\n      0x00\n        /* \"#utility.yul\":5558:5646   */\n      mstore\n        /* \"#utility.yul\":5665:5669   */\n      0x11\n        /* \"#utility.yul\":5662:5663   */\n      0x04\n        /* \"#utility.yul\":5655:5670   */\n      mstore\n        /* \"#utility.yul\":5689:5693   */\n      0x24\n        /* \"#utility.yul\":5686:5687   */\n      0x00\n        /* \"#utility.yul\":5679:5694   */\n      revert\n        /* \"#utility.yul\":5829:5946   */\n    tag_49:\n        /* \"#utility.yul\":5938:5939   */\n      0x00\n        /* \"#utility.yul\":5935:5936   */\n      dup1\n        /* \"#utility.yul\":5928:5940   */\n      revert\n        /* \"#utility.yul\":5952:6133   */\n    tag_74:\n        /* \"#utility.yul\":6092:6125   */\n      0x5265656e7472616e637947756172643a207265656e7472616e742063616c6c00\n        /* \"#utility.yul\":6088:6089   */\n      0x00\n        /* \"#utility.yul\":6080:6086   */\n      dup3\n        /* \"#utility.yul\":6076:6090   */\n      add\n        /* \"#utility.yul\":6069:6126   */\n      mstore\n        /* \"#utility.yul\":5952:6133   */\n      pop\n      jump\t// out\n        /* \"#utility.yul\":6139:6291   */\n    tag_41:\n        /* \"#utility.yul\":6227:6266   */\n      tag_126\n        /* \"#utility.yul\":6260:6265   */\n      dup2\n        /* \"#utility.yul\":6227:6266   */\n      tag_102\n      jump\t// in\n    tag_126:\n        /* \"#utility.yul\":6220:6225   */\n      dup2\n        /* \"#utility.yul\":6217:6267   */\n      eq\n        /* \"#utility.yul\":6207:6285   */\n      tag_127\n      jumpi\n        /* \"#utility.yul\":6281:6282   */\n      0x00\n        /* \"#utility.yul\":6278:6279   */\n      dup1\n        /* \"#utility.yul\":6271:6283   */\n      revert\n        /* \"#utility.yul\":6207:6285   */\n    tag_127:\n        /* \"#utility.yul\":6139:6291   */\n      pop\n      jump\t// out\n        /* \"#utility.yul\":6297:6419   */\n    tag_45:\n        /* \"#utility.yul\":6370:6394   */\n      tag_129\n        /* \"#utility.yul\":6388:6393   */\n      dup2\n        /* \"#utility.yul\":6370:6394   */\n      tag_78\n      jump\t// in\n    tag_129:\n        /* \"#utility.yul\":6363:6368   */\n      dup2\n        /* \"#utility.yul\":6360:6395   */\n      eq\n        /* \"#utility.yul\":6350:6413   */\n      tag_130\n      jumpi\n        /* \"#utility.yul\":6409:6410   */\n      0x00\n        /* \"#utility.yul\":6406:6407   */\n      dup1\n        /* \"#utility.yul\":6399:6411   */\n      revert\n        /* \"#utility.yul\":6350:6413   */\n    tag_130:\n        /* \"#utility.yul\":6297:6419   */\n      pop\n      jump\t// out\n\n    auxdata: 0xa26469706673582212200afd9ebc15cadf3421cbb8178de29b0a2131b945352bc872c22068d50a5915c864736f6c63430008070033\n}\n",
				"bytecode": {
					"linkReferences": {},
					"object": "60c060405234801561001057600080fd5b506040516106ea3803806106ea83398181016040528101906100329190610094565b60016000819055503373ffffffffffffffffffffffffffffffffffffffff1660808173ffffffffffffffffffffffffffffffffffffffff1660601b815250508060a08181525050506100e7565b60008151905061008e816100d0565b92915050565b6000602082840312156100aa576100a96100cb565b5b60006100b88482850161007f565b91505092915050565b6000819050919050565b600080fd5b6100d9816100c1565b81146100e457600080fd5b50565b60805160601c60a0516105db61010f60003960006101330152600061010901526105db6000f3fe608060405234801561001057600080fd5b50600436106100575760003560e01c806365e17c9d1461005c5780636bfb0d011461007a5780637fd6f15c14610098578063bfb231d2146100b6578063fa00afc7146100eb575b600080fd5b610064610107565b6040516100719190610367565b60405180910390f35b61008261012b565b60405161008f91906103a2565b60405180910390f35b6100a0610131565b6040516100ad91906103a2565b60405180910390f35b6100d060048036038101906100cb91906102db565b610155565b6040516100e2969594939291906103bd565b60405180910390f35b61010560048036038101906101009190610288565b6101de565b005b7f000000000000000000000000000000000000000000000000000000000000000081565b60015481565b7f000000000000000000000000000000000000000000000000000000000000000081565b60026020528060005260406000206000915090508060000154908060010160009054906101000a900473ffffffffffffffffffffffffffffffffffffffff16908060020154908060030154908060040160009054906101000a900473ffffffffffffffffffffffffffffffffffffffff16908060040160149054906101000a900460ff16905086565b60026000541415610224576040517f08c379a000000000000000000000000000000000000000000000000000000000815260040161021b90610382565b60405180910390fd5b60026000819055506000811161023957600080fd5b6001600081548092919061024c906104d1565b91905055506001600081905550505050565b60008135905061026d81610577565b92915050565b6000813590506102828161058e565b92915050565b6000806000606084860312156102a1576102a0610549565b5b60006102af8682870161025e565b93505060206102c086828701610273565b92505060406102d186828701610273565b9150509250925092565b6000602082840312156102f1576102f0610549565b5b60006102ff84828501610273565b91505092915050565b61031181610441565b82525050565b61032081610453565b82525050565b61032f8161049b565b82525050565b6000610342601f8361041e565b915061034d8261054e565b602082019050919050565b61036181610491565b82525050565b600060208201905061037c6000830184610308565b92915050565b6000602082019050818103600083015261039b81610335565b9050919050565b60006020820190506103b76000830184610358565b92915050565b600060c0820190506103d26000830189610358565b6103df6020830188610326565b6103ec6040830187610358565b6103f96060830186610358565b6104066080830185610308565b61041360a0830184610317565b979650505050505050565b600082825260208201905092915050565b600061043a82610471565b9050919050565b600061044c82610471565b9050919050565b60008115159050919050565b600061046a8261042f565b9050919050565b600073ffffffffffffffffffffffffffffffffffffffff82169050919050565b6000819050919050565b60006104a6826104ad565b9050919050565b60006104b8826104bf565b9050919050565b60006104ca82610471565b9050919050565b60006104dc82610491565b91507fffffffffffffffffffffffffffffffffffffffffffffffffffffffffffffffff82141561050f5761050e61051a565b5b600182019050919050565b7f4e487b7100000000000000000000000000000000000000000000000000000000600052601160045260246000fd5b600080fd5b7f5265656e7472616e637947756172643a207265656e7472616e742063616c6c00600082015250565b6105808161045f565b811461058b57600080fd5b50565b61059781610491565b81146105a257600080fd5b5056fea26469706673582212200afd9ebc15cadf3421cbb8178de29b0a2131b945352bc872c22068d50a5915c864736f6c63430008070033",
					"opcodes": "PUSH1 0xC0 PUSH1 0x40 MSTORE CALLVALUE DUP1 ISZERO PUSH2 0x10 JUMPI PUSH1 0x0 DUP1 REVERT JUMPDEST POP PUSH1 0x40 MLOAD PUSH2 0x6EA CODESIZE SUB DUP1 PUSH2 0x6EA DUP4 CODECOPY DUP2 DUP2 ADD PUSH1 0x40 MSTORE DUP2 ADD SWAP1 PUSH2 0x32 SWAP2 SWAP1 PUSH2 0x94 JUMP JUMPDEST PUSH1 0x1 PUSH1 0x0 DUP2 SWAP1 SSTORE POP CALLER PUSH20 0xFFFFFFFFFFFFFFFFFFFFFFFFFFFFFFFFFFFFFFFF AND PUSH1 0x80 DUP2 PUSH20 0xFFFFFFFFFFFFFFFFFFFFFFFFFFFFFFFFFFFFFFFF AND PUSH1 0x60 SHL DUP2 MSTORE POP POP DUP1 PUSH1 0xA0 DUP2 DUP2 MSTORE POP POP POP PUSH2 0xE7 JUMP JUMPDEST PUSH1 0x0 DUP2 MLOAD SWAP1 POP PUSH2 0x8E DUP2 PUSH2 0xD0 JUMP JUMPDEST SWAP3 SWAP2 POP POP JUMP JUMPDEST PUSH1 0x0 PUSH1 0x20 DUP3 DUP5 SUB SLT ISZERO PUSH2 0xAA JUMPI PUSH2 0xA9 PUSH2 0xCB JUMP JUMPDEST JUMPDEST PUSH1 0x0 PUSH2 0xB8 DUP5 DUP3 DUP6 ADD PUSH2 0x7F JUMP JUMPDEST SWAP2 POP POP SWAP3 SWAP2 POP POP JUMP JUMPDEST PUSH1 0x0 DUP2 SWAP1 POP SWAP2 SWAP1 POP JUMP JUMPDEST PUSH1 0x0 DUP1 REVERT JUMPDEST PUSH2 0xD9 DUP2 PUSH2 0xC1 JUMP JUMPDEST DUP2 EQ PUSH2 0xE4 JUMPI PUSH1 0x0 DUP1 REVERT JUMPDEST POP JUMP JUMPDEST PUSH1 0x80 MLOAD PUSH1 0x60 SHR PUSH1 0xA0 MLOAD PUSH2 0x5DB PUSH2 0x10F PUSH1 0x0 CODECOPY PUSH1 0x0 PUSH2 0x133 ADD MSTORE PUSH1 0x0 PUSH2 0x109 ADD MSTORE PUSH2 0x5DB PUSH1 0x0 RETURN INVALID PUSH1 0x80 PUSH1 0x40 MSTORE CALLVALUE DUP1 ISZERO PUSH2 0x10 JUMPI PUSH1 0x0 DUP1 REVERT JUMPDEST POP PUSH1 0x4 CALLDATASIZE LT PUSH2 0x57 JUMPI PUSH1 0x0 CALLDATALOAD PUSH1 0xE0 SHR DUP1 PUSH4 0x65E17C9D EQ PUSH2 0x5C JUMPI DUP1 PUSH4 0x6BFB0D01 EQ PUSH2 0x7A JUMPI DUP1 PUSH4 0x7FD6F15C EQ PUSH2 0x98 JUMPI DUP1 PUSH4 0xBFB231D2 EQ PUSH2 0xB6 JUMPI DUP1 PUSH4 0xFA00AFC7 EQ PUSH2 0xEB JUMPI JUMPDEST PUSH1 0x0 DUP1 REVERT JUMPDEST PUSH2 0x64 PUSH2 0x107 JUMP JUMPDEST PUSH1 0x40 MLOAD PUSH2 0x71 SWAP2 SWAP1 PUSH2 0x367 JUMP JUMPDEST PUSH1 0x40 MLOAD DUP1 SWAP2 SUB SWAP1 RETURN JUMPDEST PUSH2 0x82 PUSH2 0x12B JUMP JUMPDEST PUSH1 0x40 MLOAD PUSH2 0x8F SWAP2 SWAP1 PUSH2 0x3A2 JUMP JUMPDEST PUSH1 0x40 MLOAD DUP1 SWAP2 SUB SWAP1 RETURN JUMPDEST PUSH2 0xA0 PUSH2 0x131 JUMP JUMPDEST PUSH1 0x40 MLOAD PUSH2 0xAD SWAP2 SWAP1 PUSH2 0x3A2 JUMP JUMPDEST PUSH1 0x40 MLOAD DUP1 SWAP2 SUB SWAP1 RETURN JUMPDEST PUSH2 0xD0 PUSH1 0x4 DUP1 CALLDATASIZE SUB DUP2 ADD SWAP1 PUSH2 0xCB SWAP2 SWAP1 PUSH2 0x2DB JUMP JUMPDEST PUSH2 0x155 JUMP JUMPDEST PUSH1 0x40 MLOAD PUSH2 0xE2 SWAP7 SWAP6 SWAP5 SWAP4 SWAP3 SWAP2 SWAP1 PUSH2 0x3BD JUMP JUMPDEST PUSH1 0x40 MLOAD DUP1 SWAP2 SUB SWAP1 RETURN JUMPDEST PUSH2 0x105 PUSH1 0x4 DUP1 CALLDATASIZE SUB DUP2 ADD SWAP1 PUSH2 0x100 SWAP2 SWAP1 PUSH2 0x288 JUMP JUMPDEST PUSH2 0x1DE JUMP JUMPDEST STOP JUMPDEST PUSH32 0x0 DUP2 JUMP JUMPDEST PUSH1 0x1 SLOAD DUP2 JUMP JUMPDEST PUSH32 0x0 DUP2 JUMP JUMPDEST PUSH1 0x2 PUSH1 0x20 MSTORE DUP1 PUSH1 0x0 MSTORE PUSH1 0x40 PUSH1 0x0 KECCAK256 PUSH1 0x0 SWAP2 POP SWAP1 POP DUP1 PUSH1 0x0 ADD SLOAD SWAP1 DUP1 PUSH1 0x1 ADD PUSH1 0x0 SWAP1 SLOAD SWAP1 PUSH2 0x100 EXP SWAP1 DIV PUSH20 0xFFFFFFFFFFFFFFFFFFFFFFFFFFFFFFFFFFFFFFFF AND SWAP1 DUP1 PUSH1 0x2 ADD SLOAD SWAP1 DUP1 PUSH1 0x3 ADD SLOAD SWAP1 DUP1 PUSH1 0x4 ADD PUSH1 0x0 SWAP1 SLOAD SWAP1 PUSH2 0x100 EXP SWAP1 DIV PUSH20 0xFFFFFFFFFFFFFFFFFFFFFFFFFFFFFFFFFFFFFFFF AND SWAP1 DUP1 PUSH1 0x4 ADD PUSH1 0x14 SWAP1 SLOAD SWAP1 PUSH2 0x100 EXP SWAP1 DIV PUSH1 0xFF AND SWAP1 POP DUP7 JUMP JUMPDEST PUSH1 0x2 PUSH1 0x0 SLOAD EQ ISZERO PUSH2 0x224 JUMPI PUSH1 0x40 MLOAD PUSH32 0x8C379A000000000000000000000000000000000000000000000000000000000 DUP2 MSTORE PUSH1 0x4 ADD PUSH2 0x21B SWAP1 PUSH2 0x382 JUMP JUMPDEST PUSH1 0x40 MLOAD DUP1 SWAP2 SUB SWAP1 REVERT JUMPDEST PUSH1 0x2 PUSH1 0x0 DUP2 SWAP1 SSTORE POP PUSH1 0x0 DUP2 GT PUSH2 0x239 JUMPI PUSH1 0x0 DUP1 REVERT JUMPDEST PUSH1 0x1 PUSH1 0x0 DUP2 SLOAD DUP1 SWAP3 SWAP2 SWAP1 PUSH2 0x24C SWAP1 PUSH2 0x4D1 JUMP JUMPDEST SWAP2 SWAP1 POP SSTORE POP PUSH1 0x1 PUSH1 0x0 DUP2 SWAP1 SSTORE POP POP POP POP JUMP JUMPDEST PUSH1 0x0 DUP2 CALLDATALOAD SWAP1 POP PUSH2 0x26D DUP2 PUSH2 0x577 JUMP JUMPDEST SWAP3 SWAP2 POP POP JUMP JUMPDEST PUSH1 0x0 DUP2 CALLDATALOAD SWAP1 POP PUSH2 0x282 DUP2 PUSH2 0x58E JUMP JUMPDEST SWAP3 SWAP2 POP POP JUMP JUMPDEST PUSH1 0x0 DUP1 PUSH1 0x0 PUSH1 0x60 DUP5 DUP7 SUB SLT ISZERO PUSH2 0x2A1 JUMPI PUSH2 0x2A0 PUSH2 0x549 JUMP JUMPDEST JUMPDEST PUSH1 0x0 PUSH2 0x2AF DUP7 DUP3 DUP8 ADD PUSH2 0x25E JUMP JUMPDEST SWAP4 POP POP PUSH1 0x20 PUSH2 0x2C0 DUP7 DUP3 DUP8 ADD PUSH2 0x273 JUMP JUMPDEST SWAP3 POP POP PUSH1 0x40 PUSH2 0x2D1 DUP7 DUP3 DUP8 ADD PUSH2 0x273 JUMP JUMPDEST SWAP2 POP POP SWAP3 POP SWAP3 POP SWAP3 JUMP JUMPDEST PUSH1 0x0 PUSH1 0x20 DUP3 DUP5 SUB SLT ISZERO PUSH2 0x2F1 JUMPI PUSH2 0x2F0 PUSH2 0x549 JUMP JUMPDEST JUMPDEST PUSH1 0x0 PUSH2 0x2FF DUP5 DUP3 DUP6 ADD PUSH2 0x273 JUMP JUMPDEST SWAP2 POP POP SWAP3 SWAP2 POP POP JUMP JUMPDEST PUSH2 0x311 DUP2 PUSH2 0x441 JUMP JUMPDEST DUP3 MSTORE POP POP JUMP JUMPDEST PUSH2 0x320 DUP2 PUSH2 0x453 JUMP JUMPDEST DUP3 MSTORE POP POP JUMP JUMPDEST PUSH2 0x32F DUP2 PUSH2 0x49B JUMP JUMPDEST DUP3 MSTORE POP POP JUMP JUMPDEST PUSH1 0x0 PUSH2 0x342 PUSH1 0x1F DUP4 PUSH2 0x41E JUMP JUMPDEST SWAP2 POP PUSH2 0x34D DUP3 PUSH2 0x54E JUMP JUMPDEST PUSH1 0x20 DUP3 ADD SWAP1 POP SWAP2 SWAP1 POP JUMP JUMPDEST PUSH2 0x361 DUP2 PUSH2 0x491 JUMP JUMPDEST DUP3 MSTORE POP POP JUMP JUMPDEST PUSH1 0x0 PUSH1 0x20 DUP3 ADD SWAP1 POP PUSH2 0x37C PUSH1 0x0 DUP4 ADD DUP5 PUSH2 0x308 JUMP JUMPDEST SWAP3 SWAP2 POP POP JUMP JUMPDEST PUSH1 0x0 PUSH1 0x20 DUP3 ADD SWAP1 POP DUP2 DUP2 SUB PUSH1 0x0 DUP4 ADD MSTORE PUSH2 0x39B DUP2 PUSH2 0x335 JUMP JUMPDEST SWAP1 POP SWAP2 SWAP1 POP JUMP JUMPDEST PUSH1 0x0 PUSH1 0x20 DUP3 ADD SWAP1 POP PUSH2 0x3B7 PUSH1 0x0 DUP4 ADD DUP5 PUSH2 0x358 JUMP JUMPDEST SWAP3 SWAP2 POP POP JUMP JUMPDEST PUSH1 0x0 PUSH1 0xC0 DUP3 ADD SWAP1 POP PUSH2 0x3D2 PUSH1 0x0 DUP4 ADD DUP10 PUSH2 0x358 JUMP JUMPDEST PUSH2 0x3DF PUSH1 0x20 DUP4 ADD DUP9 PUSH2 0x326 JUMP JUMPDEST PUSH2 0x3EC PUSH1 0x40 DUP4 ADD DUP8 PUSH2 0x358 JUMP JUMPDEST PUSH2 0x3F9 PUSH1 0x60 DUP4 ADD DUP7 PUSH2 0x358 JUMP JUMPDEST PUSH2 0x406 PUSH1 0x80 DUP4 ADD DUP6 PUSH2 0x308 JUMP JUMPDEST PUSH2 0x413 PUSH1 0xA0 DUP4 ADD DUP5 PUSH2 0x317 JUMP JUMPDEST SWAP8 SWAP7 POP POP POP POP POP POP POP JUMP JUMPDEST PUSH1 0x0 DUP3 DUP3 MSTORE PUSH1 0x20 DUP3 ADD SWAP1 POP SWAP3 SWAP2 POP POP JUMP JUMPDEST PUSH1 0x0 PUSH2 0x43A DUP3 PUSH2 0x471 JUMP JUMPDEST SWAP1 POP SWAP2 SWAP1 POP JUMP JUMPDEST PUSH1 0x0 PUSH2 0x44C DUP3 PUSH2 0x471 JUMP JUMPDEST SWAP1 POP SWAP2 SWAP1 POP JUMP JUMPDEST PUSH1 0x0 DUP2 ISZERO ISZERO SWAP1 POP SWAP2 SWAP1 POP JUMP JUMPDEST PUSH1 0x0 PUSH2 0x46A DUP3 PUSH2 0x42F JUMP JUMPDEST SWAP1 POP SWAP2 SWAP1 POP JUMP JUMPDEST PUSH1 0x0 PUSH20 0xFFFFFFFFFFFFFFFFFFFFFFFFFFFFFFFFFFFFFFFF DUP3 AND SWAP1 POP SWAP2 SWAP1 POP JUMP JUMPDEST PUSH1 0x0 DUP2 SWAP1 POP SWAP2 SWAP1 POP JUMP JUMPDEST PUSH1 0x0 PUSH2 0x4A6 DUP3 PUSH2 0x4AD JUMP JUMPDEST SWAP1 POP SWAP2 SWAP1 POP JUMP JUMPDEST PUSH1 0x0 PUSH2 0x4B8 DUP3 PUSH2 0x4BF JUMP JUMPDEST SWAP1 POP SWAP2 SWAP1 POP JUMP JUMPDEST PUSH1 0x0 PUSH2 0x4CA DUP3 PUSH2 0x471 JUMP JUMPDEST SWAP1 POP SWAP2 SWAP1 POP JUMP JUMPDEST PUSH1 0x0 PUSH2 0x4DC DUP3 PUSH2 0x491 JUMP JUMPDEST SWAP2 POP PUSH32 0xFFFFFFFFFFFFFFFFFFFFFFFFFFFFFFFFFFFFFFFFFFFFFFFFFFFFFFFFFFFFFFFF DUP3 EQ ISZERO PUSH2 0x50F JUMPI PUSH2 0x50E PUSH2 0x51A JUMP JUMPDEST JUMPDEST PUSH1 0x1 DUP3 ADD SWAP1 POP SWAP2 SWAP1 POP JUMP JUMPDEST PUSH32 0x4E487B7100000000000000000000000000000000000000000000000000000000 PUSH1 0x0 MSTORE PUSH1 0x11 PUSH1 0x4 MSTORE PUSH1 0x24 PUSH1 0x0 REVERT JUMPDEST PUSH1 0x0 DUP1 REVERT JUMPDEST PUSH32 0x5265656E7472616E637947756172643A207265656E7472616E742063616C6C00 PUSH1 0x0 DUP3 ADD MSTORE POP JUMP JUMPDEST PUSH2 0x580 DUP2 PUSH2 0x45F JUMP JUMPDEST DUP2 EQ PUSH2 0x58B JUMPI PUSH1 0x0 DUP1 REVERT JUMPDEST POP JUMP JUMPDEST PUSH2 0x597 DUP2 PUSH2 0x491 JUMP JUMPDEST DUP2 EQ PUSH2 0x5A2 JUMPI PUSH1 0x0 DUP1 REVERT JUMPDEST POP JUMP INVALID LOG2 PUSH5 0x6970667358 0x22 SLT KECCAK256 EXP REVERT SWAP15 0xBC ISZERO 0xCA 0xDF CALLVALUE 0x21 0xCB 0xB8 OR DUP14 0xE2 SWAP12 EXP 0x21 BALANCE 0xB9 GASLIMIT CALLDATALOAD 0x2B 0xC8 PUSH19 0xC22068D50A5915C864736F6C63430008070033 "
				},
				"gasEstimates": {
					"creation": {
						"codeDepositCost": "299800",
						"executionCost": "infinite",
						"totalCost": "infinite"
					},
					"external": {
						"feeAccount()": "infinite",
						"feePercent()": "infinite",
						"itemCount()": "2429",
						"items(uint256)": "infinite",
						"makeItem(address,uint256,uint256)": "infinite"
					}
				},
				"methodIdentifiers": {
					"feeAccount()": "65e17c9d",
					"feePercent()": "7fd6f15c",
					"itemCount()": "6bfb0d01",
					"items(uint256)": "bfb231d2",
					"makeItem(address,uint256,uint256)": "fa00afc7"
				}
			},
			"storageLayout": {
				"storage": [
					{
						"astId": 10,
						"contract": "Marketplace/Marketplace.sol:Marketplace",
						"label": "_status",
						"offset": 0,
						"slot": "0",
						"type": "t_uint256"
					},
					{
						"astId": 179,
						"contract": "Marketplace/Marketplace.sol:Marketplace",
						"label": "itemCount",
						"offset": 0,
						"slot": "1",
						"type": "t_uint256"
					},
					{
						"astId": 198,
						"contract": "Marketplace/Marketplace.sol:Marketplace",
						"label": "items",
						"offset": 0,
						"slot": "2",
						"type": "t_mapping(t_uint256,t_struct(Item)193_storage)"
					}
				],
				"types": {
					"t_address_payable": {
						"encoding": "inplace",
						"label": "address payable",
						"numberOfBytes": "20"
					},
					"t_bool": {
						"encoding": "inplace",
						"label": "bool",
						"numberOfBytes": "1"
					},
					"t_contract(IERC721)155": {
						"encoding": "inplace",
						"label": "contract IERC721",
						"numberOfBytes": "20"
					},
					"t_mapping(t_uint256,t_struct(Item)193_storage)": {
						"encoding": "mapping",
						"key": "t_uint256",
						"label": "mapping(uint256 => struct Marketplace.Item)",
						"numberOfBytes": "32",
						"value": "t_struct(Item)193_storage"
					},
					"t_struct(Item)193_storage": {
						"encoding": "inplace",
						"label": "struct Marketplace.Item",
						"members": [
							{
								"astId": 181,
								"contract": "Marketplace/Marketplace.sol:Marketplace",
								"label": "itemId",
								"offset": 0,
								"slot": "0",
								"type": "t_uint256"
							},
							{
								"astId": 184,
								"contract": "Marketplace/Marketplace.sol:Marketplace",
								"label": "nft",
								"offset": 0,
								"slot": "1",
								"type": "t_contract(IERC721)155"
							},
							{
								"astId": 186,
								"contract": "Marketplace/Marketplace.sol:Marketplace",
								"label": "tokenId",
								"offset": 0,
								"slot": "2",
								"type": "t_uint256"
							},
							{
								"astId": 188,
								"contract": "Marketplace/Marketplace.sol:Marketplace",
								"label": "price",
								"offset": 0,
								"slot": "3",
								"type": "t_uint256"
							},
							{
								"astId": 190,
								"contract": "Marketplace/Marketplace.sol:Marketplace",
								"label": "seller",
								"offset": 0,
								"slot": "4",
								"type": "t_address_payable"
							},
							{
								"astId": 192,
								"contract": "Marketplace/Marketplace.sol:Marketplace",
								"label": "sold",
								"offset": 20,
								"slot": "4",
								"type": "t_bool"
							}
						],
						"numberOfBytes": "160"
					},
					"t_uint256": {
						"encoding": "inplace",
						"label": "uint256",
						"numberOfBytes": "32"
					}
				}
			},
			"userdoc": {
				"kind": "user",
				"methods": {},
				"version": 1
			}
		}
	}
}